{
  "_format": "hh-sol-artifact-1",
  "contractName": "HellKitten",
  "sourceName": "contracts/HellKitten.sol",
  "abi": [
    {
      "inputs": [],
      "stateMutability": "nonpayable",
      "type": "constructor"
    },
    {
      "anonymous": false,
      "inputs": [
        {
          "indexed": true,
          "internalType": "address",
          "name": "owner",
          "type": "address"
        },
        {
          "indexed": true,
          "internalType": "address",
          "name": "spender",
          "type": "address"
        },
        {
          "indexed": false,
          "internalType": "uint256",
          "name": "value",
          "type": "uint256"
        }
      ],
      "name": "Approval",
      "type": "event"
    },
    {
      "anonymous": false,
      "inputs": [
        {
          "indexed": true,
          "internalType": "address",
          "name": "from",
          "type": "address"
        },
        {
          "indexed": true,
          "internalType": "address",
          "name": "to",
          "type": "address"
        },
        {
          "indexed": false,
          "internalType": "uint256",
          "name": "value",
          "type": "uint256"
        }
      ],
      "name": "Transfer",
      "type": "event"
    },
    {
      "inputs": [
        {
          "internalType": "address",
          "name": "owner",
          "type": "address"
        },
        {
          "internalType": "address",
          "name": "spender",
          "type": "address"
        }
      ],
      "name": "allowance",
      "outputs": [
        {
          "internalType": "uint256",
          "name": "",
          "type": "uint256"
        }
      ],
      "stateMutability": "view",
      "type": "function"
    },
    {
      "inputs": [
        {
          "internalType": "address",
          "name": "spender",
          "type": "address"
        },
        {
          "internalType": "uint256",
          "name": "amount",
          "type": "uint256"
        }
      ],
      "name": "approve",
      "outputs": [
        {
          "internalType": "bool",
          "name": "",
          "type": "bool"
        }
      ],
      "stateMutability": "nonpayable",
      "type": "function"
    },
    {
      "inputs": [
        {
          "internalType": "address",
          "name": "account",
          "type": "address"
        }
      ],
      "name": "balanceOf",
      "outputs": [
        {
          "internalType": "uint256",
          "name": "",
          "type": "uint256"
        }
      ],
      "stateMutability": "view",
      "type": "function"
    },
    {
      "inputs": [
        {
          "internalType": "uint256",
          "name": "burnId",
          "type": "uint256"
        }
      ],
      "name": "burn",
      "outputs": [],
      "stateMutability": "nonpayable",
      "type": "function"
    },
    {
      "inputs": [],
      "name": "decimals",
      "outputs": [
        {
          "internalType": "uint8",
          "name": "",
          "type": "uint8"
        }
      ],
      "stateMutability": "view",
      "type": "function"
    },
    {
      "inputs": [
        {
          "internalType": "address",
          "name": "spender",
          "type": "address"
        },
        {
          "internalType": "uint256",
          "name": "subtractedValue",
          "type": "uint256"
        }
      ],
      "name": "decreaseAllowance",
      "outputs": [
        {
          "internalType": "bool",
          "name": "",
          "type": "bool"
        }
      ],
      "stateMutability": "nonpayable",
      "type": "function"
    },
    {
      "inputs": [
        {
          "internalType": "address",
          "name": "token",
          "type": "address"
        },
        {
          "internalType": "uint256",
          "name": "amountIn",
          "type": "uint256"
        }
      ],
      "name": "estimateRKITTENToBurnFromLPReserves",
      "outputs": [
        {
          "internalType": "uint256",
          "name": "",
          "type": "uint256"
        }
      ],
      "stateMutability": "view",
      "type": "function"
    },
    {
      "inputs": [
        {
          "internalType": "address",
          "name": "spender",
          "type": "address"
        },
        {
          "internalType": "uint256",
          "name": "addedValue",
          "type": "uint256"
        }
      ],
      "name": "increaseAllowance",
      "outputs": [
        {
          "internalType": "bool",
          "name": "",
          "type": "bool"
        }
      ],
      "stateMutability": "nonpayable",
      "type": "function"
    },
    {
      "inputs": [],
      "name": "name",
      "outputs": [
        {
          "internalType": "string",
          "name": "",
          "type": "string"
        }
      ],
      "stateMutability": "view",
      "type": "function"
    },
    {
      "inputs": [
        {
          "internalType": "uint256",
          "name": "",
          "type": "uint256"
        }
      ],
      "name": "programmedBurns",
      "outputs": [
        {
          "internalType": "address",
          "name": "fromToken",
          "type": "address"
        },
        {
          "internalType": "uint256",
          "name": "fromTokenAmount",
          "type": "uint256"
        },
        {
          "internalType": "uint256",
          "name": "amountOutOfRKITTEN",
          "type": "uint256"
        },
        {
          "internalType": "uint256",
          "name": "dateOfBurn",
          "type": "uint256"
        },
        {
          "internalType": "uint256",
          "name": "burnedAt",
          "type": "uint256"
        },
        {
          "internalType": "address",
          "name": "sender",
          "type": "address"
        }
      ],
      "stateMutability": "view",
      "type": "function"
    },
    {
      "inputs": [],
      "name": "routerAddress",
      "outputs": [
        {
          "internalType": "address",
          "name": "",
          "type": "address"
        }
      ],
      "stateMutability": "view",
      "type": "function"
    },
    {
      "inputs": [],
      "name": "routerContract",
      "outputs": [
        {
          "internalType": "contract IUniswapV2Router02",
          "name": "",
          "type": "address"
        }
      ],
      "stateMutability": "view",
      "type": "function"
    },
    {
      "inputs": [],
      "name": "symbol",
      "outputs": [
        {
          "internalType": "string",
          "name": "",
          "type": "string"
        }
      ],
      "stateMutability": "view",
      "type": "function"
    },
    {
      "inputs": [],
      "name": "totalSupply",
      "outputs": [
        {
          "internalType": "uint256",
          "name": "",
          "type": "uint256"
        }
      ],
      "stateMutability": "view",
      "type": "function"
    },
    {
      "inputs": [
        {
          "internalType": "address",
          "name": "recipient",
          "type": "address"
        },
        {
          "internalType": "uint256",
          "name": "amount",
          "type": "uint256"
        }
      ],
      "name": "transfer",
      "outputs": [
        {
          "internalType": "bool",
          "name": "",
          "type": "bool"
        }
      ],
      "stateMutability": "nonpayable",
      "type": "function"
    },
    {
      "inputs": [
        {
          "internalType": "address",
          "name": "sender",
          "type": "address"
        },
        {
          "internalType": "address",
          "name": "recipient",
          "type": "address"
        },
        {
          "internalType": "uint256",
          "name": "amount",
          "type": "uint256"
        }
      ],
      "name": "transferFrom",
      "outputs": [
        {
          "internalType": "bool",
          "name": "",
          "type": "bool"
        }
      ],
      "stateMutability": "nonpayable",
      "type": "function"
    }
  ],
  "bytecode": "0x60806040527307e796368ac8480f74b57eba6391733ede0dcad7600760006101000a81548173ffffffffffffffffffffffffffffffffffffffff021916908373ffffffffffffffffffffffffffffffffffffffff1602179055503480156200006657600080fd5b506040518060400160405280600b81526020017f48656c6c204b697474656e0000000000000000000000000000000000000000008152506040518060400160405280600781526020017f684b495454454e000000000000000000000000000000000000000000000000008152508160039080519060200190620000eb929190620001c5565b50806004908051906020019062000104929190620001c5565b50505073f491e7b69e4244ad4002bc14e878a34207e38c29600660006101000a81548173ffffffffffffffffffffffffffffffffffffffff021916908373ffffffffffffffffffffffffffffffffffffffff160217905550600660009054906101000a900473ffffffffffffffffffffffffffffffffffffffff16600560006101000a81548173ffffffffffffffffffffffffffffffffffffffff021916908373ffffffffffffffffffffffffffffffffffffffff160217905550620002da565b828054620001d39062000275565b90600052602060002090601f016020900481019282620001f7576000855562000243565b82601f106200021257805160ff191683800117855562000243565b8280016001018555821562000243579182015b828111156200024257825182559160200191906001019062000225565b5b50905062000252919062000256565b5090565b5b808211156200027157600081600090555060010162000257565b5090565b600060028204905060018216806200028e57607f821691505b60208210811415620002a557620002a4620002ab565b5b50919050565b7f4e487b7100000000000000000000000000000000000000000000000000000000600052602260045260246000fd5b6127b980620002ea6000396000f3fe608060405234801561001057600080fd5b50600436106101005760003560e01c80634f72d846116100975780639d440adb116100665780639d440adb146102ca578063a457c2d7146102fa578063a9059cbb1461032a578063dd62ed3e1461035a57610100565b80634f72d8461461022957806370a082311461024757806388b393a21461027757806395d89b41146102ac57610100565b8063313ce567116100d3578063313ce567146101a15780633268cc56146101bf57806339509351146101dd57806342966c681461020d57610100565b806306fdde0314610105578063095ea7b31461012357806318160ddd1461015357806323b872dd14610171575b600080fd5b61010d61038a565b60405161011a9190611fcf565b60405180910390f35b61013d60048036038101906101389190611b87565b61041c565b60405161014a9190611f99565b60405180910390f35b61015b61043a565b6040516101689190612131565b60405180910390f35b61018b60048036038101906101869190611b38565b610444565b6040516101989190611f99565b60405180910390f35b6101a961053c565b6040516101b691906121d6565b60405180910390f35b6101c7610545565b6040516101d49190611ee6565b60405180910390f35b6101f760048036038101906101f29190611b87565b61056b565b6040516102049190611f99565b60405180910390f35b61022760048036038101906102229190611c2d565b610617565b005b6102316109f5565b60405161023e9190611fb4565b60405180910390f35b610261600480360381019061025c9190611aaa565b610a1b565b60405161026e9190612131565b60405180910390f35b610291600480360381019061028c9190611c2d565b610a63565b6040516102a396959493929190611f38565b60405180910390f35b6102b4610adf565b6040516102c19190611fcf565b60405180910390f35b6102e460048036038101906102df9190611b87565b610b71565b6040516102f19190612131565b60405180910390f35b610314600480360381019061030f9190611b87565b610f08565b6040516103219190611f99565b60405180910390f35b610344600480360381019061033f9190611b87565b610ff3565b6040516103519190611f99565b60405180910390f35b610374600480360381019061036f9190611afc565b611011565b6040516103819190612131565b60405180910390f35b60606003805461039990612399565b80601f01602080910402602001604051908101604052809291908181526020018280546103c590612399565b80156104125780601f106103e757610100808354040283529160200191610412565b820191906000526020600020905b8154815290600101906020018083116103f557829003601f168201915b5050505050905090565b6000610430610429611098565b84846110a0565b6001905092915050565b6000600254905090565b600061045184848461126b565b6000600160008673ffffffffffffffffffffffffffffffffffffffff1673ffffffffffffffffffffffffffffffffffffffff168152602001908152602001600020600061049c611098565b73ffffffffffffffffffffffffffffffffffffffff1673ffffffffffffffffffffffffffffffffffffffff1681526020019081526020016000205490508281101561051c576040517f08c379a000000000000000000000000000000000000000000000000000000000815260040161051390612091565b60405180910390fd5b61053085610528611098565b8584036110a0565b60019150509392505050565b60006012905090565b600660009054906101000a900473ffffffffffffffffffffffffffffffffffffffff1681565b600061060d610578611098565b848460016000610586611098565b73ffffffffffffffffffffffffffffffffffffffff1673ffffffffffffffffffffffffffffffffffffffff16815260200190815260200160002060008873ffffffffffffffffffffffffffffffffffffffff1673ffffffffffffffffffffffffffffffffffffffff168152602001908152602001600020546106089190612297565b6110a0565b6001905092915050565b600060086000838152602001908152602001600020600301541415610671576040517f08c379a000000000000000000000000000000000000000000000000000000000815260040161066890612011565b60405180910390fd5b6000600860008381526020019081526020016000206040518060c00160405290816000820160009054906101000a900473ffffffffffffffffffffffffffffffffffffffff1673ffffffffffffffffffffffffffffffffffffffff1673ffffffffffffffffffffffffffffffffffffffff168152602001600182015481526020016002820154815260200160038201548152602001600482015481526020016005820160009054906101000a900473ffffffffffffffffffffffffffffffffffffffff1673ffffffffffffffffffffffffffffffffffffffff1673ffffffffffffffffffffffffffffffffffffffff1681525050905042816060015110156107ae576040517f08c379a00000000000000000000000000000000000000000000000000000000081526004016107a590612051565b60405180910390fd5b60006107c282600001518360200151610b71565b9050426008600085815260200190815260200160002060040181905550336008600085815260200190815260200160002060050160006101000a81548173ffffffffffffffffffffffffffffffffffffffff021916908373ffffffffffffffffffffffffffffffffffffffff16021790555080600860008581526020019081526020016000206002018190555061086282600001518360200151836114ec565b6000600760009054906101000a900473ffffffffffffffffffffffffffffffffffffffff1673ffffffffffffffffffffffffffffffffffffffff166370a08231306040518263ffffffff1660e01b81526004016108bf9190611ee6565b60206040518083038186803b1580156108d757600080fd5b505afa1580156108eb573d6000803e3d6000fd5b505050506040513d601f19601f8201168201806040525081019061090f9190611c56565b9050600760009054906101000a900473ffffffffffffffffffffffffffffffffffffffff1673ffffffffffffffffffffffffffffffffffffffff166323b872dd30600760009054906101000a900473ffffffffffffffffffffffffffffffffffffffff16846040518463ffffffff1660e01b815260040161099293929190611f01565b602060405180830381600087803b1580156109ac57600080fd5b505af11580156109c0573d6000803e3d6000fd5b505050506040513d601f19601f820116820180604052508101906109e49190611c04565b506109ef3382611841565b50505050565b600560009054906101000a900473ffffffffffffffffffffffffffffffffffffffff1681565b60008060008373ffffffffffffffffffffffffffffffffffffffff1673ffffffffffffffffffffffffffffffffffffffff168152602001908152602001600020549050919050565b60086020528060005260406000206000915090508060000160009054906101000a900473ffffffffffffffffffffffffffffffffffffffff16908060010154908060020154908060030154908060040154908060050160009054906101000a900473ffffffffffffffffffffffffffffffffffffffff16905086565b606060048054610aee90612399565b80601f0160208091040260200160405190810160405280929190818152602001828054610b1a90612399565b8015610b675780601f10610b3c57610100808354040283529160200191610b67565b820191906000526020600020905b815481529060010190602001808311610b4a57829003601f168201915b5050505050905090565b600080600367ffffffffffffffff811115610bb5577f4e487b7100000000000000000000000000000000000000000000000000000000600052604160045260246000fd5b604051908082528060200260200182016040528015610be35781602001602082028036833780820191505090505b5090508381600081518110610c21577f4e487b7100000000000000000000000000000000000000000000000000000000600052603260045260246000fd5b602002602001019073ffffffffffffffffffffffffffffffffffffffff16908173ffffffffffffffffffffffffffffffffffffffff1681525050600560009054906101000a900473ffffffffffffffffffffffffffffffffffffffff1673ffffffffffffffffffffffffffffffffffffffff1663ad5c46486040518163ffffffff1660e01b815260040160206040518083038186803b158015610cc357600080fd5b505afa158015610cd7573d6000803e3d6000fd5b505050506040513d601f19601f82011682018060405250810190610cfb9190611ad3565b81600181518110610d35577f4e487b7100000000000000000000000000000000000000000000000000000000600052603260045260246000fd5b602002602001019073ffffffffffffffffffffffffffffffffffffffff16908173ffffffffffffffffffffffffffffffffffffffff1681525050600760009054906101000a900473ffffffffffffffffffffffffffffffffffffffff1681600281518110610dcc577f4e487b7100000000000000000000000000000000000000000000000000000000600052603260045260246000fd5b602002602001019073ffffffffffffffffffffffffffffffffffffffff16908173ffffffffffffffffffffffffffffffffffffffff16815250506000600560009054906101000a900473ffffffffffffffffffffffffffffffffffffffff1673ffffffffffffffffffffffffffffffffffffffff1663d06ca61f85846040518363ffffffff1660e01b8152600401610e6592919061214c565b60006040518083038186803b158015610e7d57600080fd5b505afa158015610e91573d6000803e3d6000fd5b505050506040513d6000823e3d601f19601f82011682018060405250810190610eba9190611bc3565b905080600281518110610ef6577f4e487b7100000000000000000000000000000000000000000000000000000000600052603260045260246000fd5b60200260200101519250505092915050565b60008060016000610f17611098565b73ffffffffffffffffffffffffffffffffffffffff1673ffffffffffffffffffffffffffffffffffffffff16815260200190815260200160002060008573ffffffffffffffffffffffffffffffffffffffff1673ffffffffffffffffffffffffffffffffffffffff16815260200190815260200160002054905082811015610fd4576040517f08c379a0000000000000000000000000000000000000000000000000000000008152600401610fcb906120f1565b60405180910390fd5b610fe8610fdf611098565b858584036110a0565b600191505092915050565b6000611007611000611098565b848461126b565b6001905092915050565b6000600160008473ffffffffffffffffffffffffffffffffffffffff1673ffffffffffffffffffffffffffffffffffffffff16815260200190815260200160002060008373ffffffffffffffffffffffffffffffffffffffff1673ffffffffffffffffffffffffffffffffffffffff16815260200190815260200160002054905092915050565b600033905090565b600073ffffffffffffffffffffffffffffffffffffffff168373ffffffffffffffffffffffffffffffffffffffff161415611110576040517f08c379a0000000000000000000000000000000000000000000000000000000008152600401611107906120d1565b60405180910390fd5b600073ffffffffffffffffffffffffffffffffffffffff168273ffffffffffffffffffffffffffffffffffffffff161415611180576040517f08c379a000000000000000000000000000000000000000000000000000000000815260040161117790612031565b60405180910390fd5b80600160008573ffffffffffffffffffffffffffffffffffffffff1673ffffffffffffffffffffffffffffffffffffffff16815260200190815260200160002060008473ffffffffffffffffffffffffffffffffffffffff1673ffffffffffffffffffffffffffffffffffffffff168152602001908152602001600020819055508173ffffffffffffffffffffffffffffffffffffffff168373ffffffffffffffffffffffffffffffffffffffff167f8c5be1e5ebec7d5bd14f71427d1e84f3dd0314c0f7b2291e5b200ac8c7c3b9258360405161125e9190612131565b60405180910390a3505050565b600073ffffffffffffffffffffffffffffffffffffffff168373ffffffffffffffffffffffffffffffffffffffff1614156112db576040517f08c379a00000000000000000000000000000000000000000000000000000000081526004016112d2906120b1565b60405180910390fd5b600073ffffffffffffffffffffffffffffffffffffffff168273ffffffffffffffffffffffffffffffffffffffff16141561134b576040517f08c379a000000000000000000000000000000000000000000000000000000000815260040161134290611ff1565b60405180910390fd5b6113568383836119a1565b60008060008573ffffffffffffffffffffffffffffffffffffffff1673ffffffffffffffffffffffffffffffffffffffff168152602001908152602001600020549050818110156113dc576040517f08c379a00000000000000000000000000000000000000000000000000000000081526004016113d390612071565b60405180910390fd5b8181036000808673ffffffffffffffffffffffffffffffffffffffff1673ffffffffffffffffffffffffffffffffffffffff16815260200190815260200160002081905550816000808573ffffffffffffffffffffffffffffffffffffffff1673ffffffffffffffffffffffffffffffffffffffff168152602001908152602001600020600082825461146f9190612297565b925050819055508273ffffffffffffffffffffffffffffffffffffffff168473ffffffffffffffffffffffffffffffffffffffff167fddf252ad1be2c89b69c2b068fc378daa952ba7f163c4a11628f55a4df523b3ef846040516114d39190612131565b60405180910390a36114e68484846119a6565b50505050565b6000600367ffffffffffffffff81111561152f577f4e487b7100000000000000000000000000000000000000000000000000000000600052604160045260246000fd5b60405190808252806020026020018201604052801561155d5781602001602082028036833780820191505090505b509050838160008151811061159b577f4e487b7100000000000000000000000000000000000000000000000000000000600052603260045260246000fd5b602002602001019073ffffffffffffffffffffffffffffffffffffffff16908173ffffffffffffffffffffffffffffffffffffffff1681525050600560009054906101000a900473ffffffffffffffffffffffffffffffffffffffff1673ffffffffffffffffffffffffffffffffffffffff1663ad5c46486040518163ffffffff1660e01b815260040160206040518083038186803b15801561163d57600080fd5b505afa158015611651573d6000803e3d6000fd5b505050506040513d601f19601f820116820180604052508101906116759190611ad3565b816001815181106116af577f4e487b7100000000000000000000000000000000000000000000000000000000600052603260045260246000fd5b602002602001019073ffffffffffffffffffffffffffffffffffffffff16908173ffffffffffffffffffffffffffffffffffffffff1681525050600760009054906101000a900473ffffffffffffffffffffffffffffffffffffffff1681600281518110611746577f4e487b7100000000000000000000000000000000000000000000000000000000600052603260045260246000fd5b602002602001019073ffffffffffffffffffffffffffffffffffffffff16908173ffffffffffffffffffffffffffffffffffffffff1681525050600560009054906101000a900473ffffffffffffffffffffffffffffffffffffffff1673ffffffffffffffffffffffffffffffffffffffff166338ed173984848430426040518663ffffffff1660e01b81526004016117e395949392919061217c565b600060405180830381600087803b1580156117fd57600080fd5b505af1158015611811573d6000803e3d6000fd5b505050506040513d6000823e3d601f19601f8201168201806040525081019061183a9190611bc3565b5050505050565b600073ffffffffffffffffffffffffffffffffffffffff168273ffffffffffffffffffffffffffffffffffffffff1614156118b1576040517f08c379a00000000000000000000000000000000000000000000000000000000081526004016118a890612111565b60405180910390fd5b6118bd600083836119a1565b80600260008282546118cf9190612297565b92505081905550806000808473ffffffffffffffffffffffffffffffffffffffff1673ffffffffffffffffffffffffffffffffffffffff16815260200190815260200160002060008282546119249190612297565b925050819055508173ffffffffffffffffffffffffffffffffffffffff16600073ffffffffffffffffffffffffffffffffffffffff167fddf252ad1be2c89b69c2b068fc378daa952ba7f163c4a11628f55a4df523b3ef836040516119899190612131565b60405180910390a361199d600083836119a6565b5050565b505050565b505050565b60006119be6119b984612216565b6121f1565b905080838252602082019050828560208602820111156119dd57600080fd5b60005b85811015611a0d57816119f38882611a95565b8452602084019350602083019250506001810190506119e0565b5050509392505050565b600081359050611a268161273e565b92915050565b600081519050611a3b8161273e565b92915050565b600082601f830112611a5257600080fd5b8151611a628482602086016119ab565b91505092915050565b600081519050611a7a81612755565b92915050565b600081359050611a8f8161276c565b92915050565b600081519050611aa48161276c565b92915050565b600060208284031215611abc57600080fd5b6000611aca84828501611a17565b91505092915050565b600060208284031215611ae557600080fd5b6000611af384828501611a2c565b91505092915050565b60008060408385031215611b0f57600080fd5b6000611b1d85828601611a17565b9250506020611b2e85828601611a17565b9150509250929050565b600080600060608486031215611b4d57600080fd5b6000611b5b86828701611a17565b9350506020611b6c86828701611a17565b9250506040611b7d86828701611a80565b9150509250925092565b60008060408385031215611b9a57600080fd5b6000611ba885828601611a17565b9250506020611bb985828601611a80565b9150509250929050565b600060208284031215611bd557600080fd5b600082015167ffffffffffffffff811115611bef57600080fd5b611bfb84828501611a41565b91505092915050565b600060208284031215611c1657600080fd5b6000611c2484828501611a6b565b91505092915050565b600060208284031215611c3f57600080fd5b6000611c4d84828501611a80565b91505092915050565b600060208284031215611c6857600080fd5b6000611c7684828501611a95565b91505092915050565b6000611c8b8383611c97565b60208301905092915050565b611ca0816122ed565b82525050565b611caf816122ed565b82525050565b6000611cc082612252565b611cca8185612275565b9350611cd583612242565b8060005b83811015611d06578151611ced8882611c7f565b9750611cf883612268565b925050600181019050611cd9565b5085935050505092915050565b611d1c816122ff565b82525050565b611d2b81612342565b82525050565b6000611d3c8261225d565b611d468185612286565b9350611d56818560208601612366565b611d5f81612489565b840191505092915050565b6000611d77602383612286565b9150611d828261249a565b604082019050919050565b6000611d9a601283612286565b9150611da5826124e9565b602082019050919050565b6000611dbd602283612286565b9150611dc882612512565b604082019050919050565b6000611de0600783612286565b9150611deb82612561565b602082019050919050565b6000611e03602683612286565b9150611e0e8261258a565b604082019050919050565b6000611e26602883612286565b9150611e31826125d9565b604082019050919050565b6000611e49602583612286565b9150611e5482612628565b604082019050919050565b6000611e6c602483612286565b9150611e7782612677565b604082019050919050565b6000611e8f602583612286565b9150611e9a826126c6565b604082019050919050565b6000611eb2601f83612286565b9150611ebd82612715565b602082019050919050565b611ed18161232b565b82525050565b611ee081612335565b82525050565b6000602082019050611efb6000830184611ca6565b92915050565b6000606082019050611f166000830186611ca6565b611f236020830185611ca6565b611f306040830184611ec8565b949350505050565b600060c082019050611f4d6000830189611ca6565b611f5a6020830188611ec8565b611f676040830187611ec8565b611f746060830186611ec8565b611f816080830185611ec8565b611f8e60a0830184611ca6565b979650505050505050565b6000602082019050611fae6000830184611d13565b92915050565b6000602082019050611fc96000830184611d22565b92915050565b60006020820190508181036000830152611fe98184611d31565b905092915050565b6000602082019050818103600083015261200a81611d6a565b9050919050565b6000602082019050818103600083015261202a81611d8d565b9050919050565b6000602082019050818103600083015261204a81611db0565b9050919050565b6000602082019050818103600083015261206a81611dd3565b9050919050565b6000602082019050818103600083015261208a81611df6565b9050919050565b600060208201905081810360008301526120aa81611e19565b9050919050565b600060208201905081810360008301526120ca81611e3c565b9050919050565b600060208201905081810360008301526120ea81611e5f565b9050919050565b6000602082019050818103600083015261210a81611e82565b9050919050565b6000602082019050818103600083015261212a81611ea5565b9050919050565b60006020820190506121466000830184611ec8565b92915050565b60006040820190506121616000830185611ec8565b81810360208301526121738184611cb5565b90509392505050565b600060a0820190506121916000830188611ec8565b61219e6020830187611ec8565b81810360408301526121b08186611cb5565b90506121bf6060830185611ca6565b6121cc6080830184611ec8565b9695505050505050565b60006020820190506121eb6000830184611ed7565b92915050565b60006121fb61220c565b905061220782826123cb565b919050565b6000604051905090565b600067ffffffffffffffff8211156122315761223061245a565b5b602082029050602081019050919050565b6000819050602082019050919050565b600081519050919050565b600081519050919050565b6000602082019050919050565b600082825260208201905092915050565b600082825260208201905092915050565b60006122a28261232b565b91506122ad8361232b565b9250827fffffffffffffffffffffffffffffffffffffffffffffffffffffffffffffffff038211156122e2576122e16123fc565b5b828201905092915050565b60006122f88261230b565b9050919050565b60008115159050919050565b600073ffffffffffffffffffffffffffffffffffffffff82169050919050565b6000819050919050565b600060ff82169050919050565b600061234d82612354565b9050919050565b600061235f8261230b565b9050919050565b60005b83811015612384578082015181840152602081019050612369565b83811115612393576000848401525b50505050565b600060028204905060018216806123b157607f821691505b602082108114156123c5576123c461242b565b5b50919050565b6123d482612489565b810181811067ffffffffffffffff821117156123f3576123f261245a565b5b80604052505050565b7f4e487b7100000000000000000000000000000000000000000000000000000000600052601160045260246000fd5b7f4e487b7100000000000000000000000000000000000000000000000000000000600052602260045260246000fd5b7f4e487b7100000000000000000000000000000000000000000000000000000000600052604160045260246000fd5b6000601f19601f8301169050919050565b7f45524332303a207472616e7366657220746f20746865207a65726f206164647260008201527f6573730000000000000000000000000000000000000000000000000000000000602082015250565b7f4275726e20646f65736e27742065786973740000000000000000000000000000600082015250565b7f45524332303a20617070726f766520746f20746865207a65726f20616464726560008201527f7373000000000000000000000000000000000000000000000000000000000000602082015250565b7f4e6f742079657400000000000000000000000000000000000000000000000000600082015250565b7f45524332303a207472616e7366657220616d6f756e742065786365656473206260008201527f616c616e63650000000000000000000000000000000000000000000000000000602082015250565b7f45524332303a207472616e7366657220616d6f756e742065786365656473206160008201527f6c6c6f77616e6365000000000000000000000000000000000000000000000000602082015250565b7f45524332303a207472616e736665722066726f6d20746865207a65726f20616460008201527f6472657373000000000000000000000000000000000000000000000000000000602082015250565b7f45524332303a20617070726f76652066726f6d20746865207a65726f2061646460008201527f7265737300000000000000000000000000000000000000000000000000000000602082015250565b7f45524332303a2064656372656173656420616c6c6f77616e63652062656c6f7760008201527f207a65726f000000000000000000000000000000000000000000000000000000602082015250565b7f45524332303a206d696e7420746f20746865207a65726f206164647265737300600082015250565b612747816122ed565b811461275257600080fd5b50565b61275e816122ff565b811461276957600080fd5b50565b6127758161232b565b811461278057600080fd5b5056fea264697066735822122023513bf1c80eebd0a2b4ef49bf49da97d52d707988fdfdff9ef4406d8a31931a64736f6c63430008040033",
  "linkReferences": {},
  "deployedLinkReferences": {}
}