{
  "_format": "hh-sol-artifact-1",
  "contractName": "HonoraryKittens",
  "sourceName": "contracts/HonoraryKittens.sol",
  "abi": [
    {
      "inputs": [],
      "stateMutability": "nonpayable",
      "type": "constructor"
    },
    {
      "anonymous": false,
      "inputs": [
        {
          "indexed": true,
          "internalType": "address",
          "name": "owner",
          "type": "address"
        },
        {
          "indexed": true,
          "internalType": "address",
          "name": "approved",
          "type": "address"
        },
        {
          "indexed": true,
          "internalType": "uint256",
          "name": "tokenId",
          "type": "uint256"
        }
      ],
      "name": "Approval",
      "type": "event"
    },
    {
      "anonymous": false,
      "inputs": [
        {
          "indexed": true,
          "internalType": "address",
          "name": "owner",
          "type": "address"
        },
        {
          "indexed": true,
          "internalType": "address",
          "name": "operator",
          "type": "address"
        },
        {
          "indexed": false,
          "internalType": "bool",
          "name": "approved",
          "type": "bool"
        }
      ],
      "name": "ApprovalForAll",
      "type": "event"
    },
    {
      "anonymous": false,
      "inputs": [
        {
          "indexed": true,
          "internalType": "address",
          "name": "previousOwner",
          "type": "address"
        },
        {
          "indexed": true,
          "internalType": "address",
          "name": "newOwner",
          "type": "address"
        }
      ],
      "name": "OwnershipTransferred",
      "type": "event"
    },
    {
      "anonymous": false,
      "inputs": [
        {
          "indexed": true,
          "internalType": "bytes32",
          "name": "role",
          "type": "bytes32"
        },
        {
          "indexed": true,
          "internalType": "bytes32",
          "name": "previousAdminRole",
          "type": "bytes32"
        },
        {
          "indexed": true,
          "internalType": "bytes32",
          "name": "newAdminRole",
          "type": "bytes32"
        }
      ],
      "name": "RoleAdminChanged",
      "type": "event"
    },
    {
      "anonymous": false,
      "inputs": [
        {
          "indexed": true,
          "internalType": "bytes32",
          "name": "role",
          "type": "bytes32"
        },
        {
          "indexed": true,
          "internalType": "address",
          "name": "account",
          "type": "address"
        },
        {
          "indexed": true,
          "internalType": "address",
          "name": "sender",
          "type": "address"
        }
      ],
      "name": "RoleGranted",
      "type": "event"
    },
    {
      "anonymous": false,
      "inputs": [
        {
          "indexed": true,
          "internalType": "bytes32",
          "name": "role",
          "type": "bytes32"
        },
        {
          "indexed": true,
          "internalType": "address",
          "name": "account",
          "type": "address"
        },
        {
          "indexed": true,
          "internalType": "address",
          "name": "sender",
          "type": "address"
        }
      ],
      "name": "RoleRevoked",
      "type": "event"
    },
    {
      "anonymous": false,
      "inputs": [
        {
          "indexed": true,
          "internalType": "address",
          "name": "from",
          "type": "address"
        },
        {
          "indexed": true,
          "internalType": "address",
          "name": "to",
          "type": "address"
        },
        {
          "indexed": true,
          "internalType": "uint256",
          "name": "tokenId",
          "type": "uint256"
        }
      ],
      "name": "Transfer",
      "type": "event"
    },
    {
      "inputs": [],
      "name": "DEFAULT_ADMIN_ROLE",
      "outputs": [
        {
          "internalType": "bytes32",
          "name": "",
          "type": "bytes32"
        }
      ],
      "stateMutability": "view",
      "type": "function"
    },
    {
      "inputs": [],
      "name": "MINTER_ROLE",
      "outputs": [
        {
          "internalType": "bytes32",
          "name": "",
          "type": "bytes32"
        }
      ],
      "stateMutability": "view",
      "type": "function"
    },
    {
      "inputs": [
        {
          "internalType": "address",
          "name": "to",
          "type": "address"
        },
        {
          "internalType": "uint256",
          "name": "tokenId",
          "type": "uint256"
        }
      ],
      "name": "approve",
      "outputs": [],
      "stateMutability": "nonpayable",
      "type": "function"
    },
    {
      "inputs": [
        {
          "internalType": "address",
          "name": "owner",
          "type": "address"
        }
      ],
      "name": "balanceOf",
      "outputs": [
        {
          "internalType": "uint256",
          "name": "",
          "type": "uint256"
        }
      ],
      "stateMutability": "view",
      "type": "function"
    },
    {
      "inputs": [
        {
          "internalType": "uint256",
          "name": "tokenId",
          "type": "uint256"
        }
      ],
      "name": "getApproved",
      "outputs": [
        {
          "internalType": "address",
          "name": "",
          "type": "address"
        }
      ],
      "stateMutability": "view",
      "type": "function"
    },
    {
      "inputs": [
        {
          "internalType": "bytes32",
          "name": "role",
          "type": "bytes32"
        }
      ],
      "name": "getRoleAdmin",
      "outputs": [
        {
          "internalType": "bytes32",
          "name": "",
          "type": "bytes32"
        }
      ],
      "stateMutability": "view",
      "type": "function"
    },
    {
      "inputs": [
        {
          "internalType": "bytes32",
          "name": "role",
          "type": "bytes32"
        },
        {
          "internalType": "address",
          "name": "account",
          "type": "address"
        }
      ],
      "name": "grantRole",
      "outputs": [],
      "stateMutability": "nonpayable",
      "type": "function"
    },
    {
      "inputs": [
        {
          "internalType": "address",
          "name": "addr",
          "type": "address"
        }
      ],
      "name": "grantRole",
      "outputs": [],
      "stateMutability": "nonpayable",
      "type": "function"
    },
    {
      "inputs": [
        {
          "internalType": "bytes32",
          "name": "role",
          "type": "bytes32"
        },
        {
          "internalType": "address",
          "name": "account",
          "type": "address"
        }
      ],
      "name": "hasRole",
      "outputs": [
        {
          "internalType": "bool",
          "name": "",
          "type": "bool"
        }
      ],
      "stateMutability": "view",
      "type": "function"
    },
    {
      "inputs": [
        {
          "internalType": "address",
          "name": "owner",
          "type": "address"
        },
        {
          "internalType": "address",
          "name": "operator",
          "type": "address"
        }
      ],
      "name": "isApprovedForAll",
      "outputs": [
        {
          "internalType": "bool",
          "name": "",
          "type": "bool"
        }
      ],
      "stateMutability": "view",
      "type": "function"
    },
    {
      "inputs": [
        {
          "internalType": "uint256",
          "name": "",
          "type": "uint256"
        }
      ],
      "name": "kittenURIs",
      "outputs": [
        {
          "internalType": "string",
          "name": "",
          "type": "string"
        }
      ],
      "stateMutability": "view",
      "type": "function"
    },
    {
      "inputs": [
        {
          "internalType": "address",
          "name": "creator",
          "type": "address"
        },
        {
          "internalType": "string",
          "name": "metadataUri",
          "type": "string"
        }
      ],
      "name": "mintNew",
      "outputs": [
        {
          "internalType": "uint256",
          "name": "createdId",
          "type": "uint256"
        }
      ],
      "stateMutability": "nonpayable",
      "type": "function"
    },
    {
      "inputs": [],
      "name": "name",
      "outputs": [
        {
          "internalType": "string",
          "name": "",
          "type": "string"
        }
      ],
      "stateMutability": "view",
      "type": "function"
    },
    {
      "inputs": [],
      "name": "owner",
      "outputs": [
        {
          "internalType": "address",
          "name": "",
          "type": "address"
        }
      ],
      "stateMutability": "view",
      "type": "function"
    },
    {
      "inputs": [
        {
          "internalType": "uint256",
          "name": "tokenId",
          "type": "uint256"
        }
      ],
      "name": "ownerOf",
      "outputs": [
        {
          "internalType": "address",
          "name": "",
          "type": "address"
        }
      ],
      "stateMutability": "view",
      "type": "function"
    },
    {
      "inputs": [],
      "name": "renounceOwnership",
      "outputs": [],
      "stateMutability": "nonpayable",
      "type": "function"
    },
    {
      "inputs": [
        {
          "internalType": "bytes32",
          "name": "role",
          "type": "bytes32"
        },
        {
          "internalType": "address",
          "name": "account",
          "type": "address"
        }
      ],
      "name": "renounceRole",
      "outputs": [],
      "stateMutability": "nonpayable",
      "type": "function"
    },
    {
      "inputs": [
        {
          "internalType": "bytes32",
          "name": "role",
          "type": "bytes32"
        },
        {
          "internalType": "address",
          "name": "account",
          "type": "address"
        }
      ],
      "name": "revokeRole",
      "outputs": [],
      "stateMutability": "nonpayable",
      "type": "function"
    },
    {
      "inputs": [],
      "name": "royaltiesPercentage",
      "outputs": [
        {
          "internalType": "uint256",
          "name": "",
          "type": "uint256"
        }
      ],
      "stateMutability": "view",
      "type": "function"
    },
    {
      "inputs": [
        {
          "internalType": "uint256",
          "name": "tokenId",
          "type": "uint256"
        },
        {
          "internalType": "uint256",
          "name": "_salePrice",
          "type": "uint256"
        }
      ],
      "name": "royaltyInfo",
      "outputs": [
        {
          "internalType": "address",
          "name": "receiver",
          "type": "address"
        },
        {
          "internalType": "uint256",
          "name": "royaltyAmount",
          "type": "uint256"
        }
      ],
      "stateMutability": "view",
      "type": "function"
    },
    {
      "inputs": [
        {
          "internalType": "uint256",
          "name": "",
          "type": "uint256"
        }
      ],
      "name": "royaltyReceivers",
      "outputs": [
        {
          "internalType": "address",
          "name": "",
          "type": "address"
        }
      ],
      "stateMutability": "view",
      "type": "function"
    },
    {
      "inputs": [
        {
          "internalType": "address",
          "name": "from",
          "type": "address"
        },
        {
          "internalType": "address",
          "name": "to",
          "type": "address"
        },
        {
          "internalType": "uint256",
          "name": "tokenId",
          "type": "uint256"
        }
      ],
      "name": "safeTransferFrom",
      "outputs": [],
      "stateMutability": "nonpayable",
      "type": "function"
    },
    {
      "inputs": [
        {
          "internalType": "address",
          "name": "from",
          "type": "address"
        },
        {
          "internalType": "address",
          "name": "to",
          "type": "address"
        },
        {
          "internalType": "uint256",
          "name": "tokenId",
          "type": "uint256"
        },
        {
          "internalType": "bytes",
          "name": "_data",
          "type": "bytes"
        }
      ],
      "name": "safeTransferFrom",
      "outputs": [],
      "stateMutability": "nonpayable",
      "type": "function"
    },
    {
      "inputs": [
        {
          "internalType": "address",
          "name": "operator",
          "type": "address"
        },
        {
          "internalType": "bool",
          "name": "approved",
          "type": "bool"
        }
      ],
      "name": "setApprovalForAll",
      "outputs": [],
      "stateMutability": "nonpayable",
      "type": "function"
    },
    {
      "inputs": [
        {
          "internalType": "uint256",
          "name": "tokenId",
          "type": "uint256"
        },
        {
          "internalType": "string",
          "name": "metadataUri",
          "type": "string"
        }
      ],
      "name": "setKittenMetadataURI",
      "outputs": [],
      "stateMutability": "nonpayable",
      "type": "function"
    },
    {
      "inputs": [
        {
          "internalType": "uint256",
          "name": "tokenId",
          "type": "uint256"
        },
        {
          "internalType": "address",
          "name": "creator",
          "type": "address"
        }
      ],
      "name": "setKittenRoyaltyReceiver",
      "outputs": [],
      "stateMutability": "nonpayable",
      "type": "function"
    },
    {
      "inputs": [
        {
          "internalType": "bytes4",
          "name": "interfaceId",
          "type": "bytes4"
        }
      ],
      "name": "supportsInterface",
      "outputs": [
        {
          "internalType": "bool",
          "name": "",
          "type": "bool"
        }
      ],
      "stateMutability": "view",
      "type": "function"
    },
    {
      "inputs": [],
      "name": "symbol",
      "outputs": [
        {
          "internalType": "string",
          "name": "",
          "type": "string"
        }
      ],
      "stateMutability": "view",
      "type": "function"
    },
    {
      "inputs": [
        {
          "internalType": "uint256",
          "name": "index",
          "type": "uint256"
        }
      ],
      "name": "tokenByIndex",
      "outputs": [
        {
          "internalType": "uint256",
          "name": "",
          "type": "uint256"
        }
      ],
      "stateMutability": "view",
      "type": "function"
    },
    {
      "inputs": [
        {
          "internalType": "address",
          "name": "owner",
          "type": "address"
        },
        {
          "internalType": "uint256",
          "name": "index",
          "type": "uint256"
        }
      ],
      "name": "tokenOfOwnerByIndex",
      "outputs": [
        {
          "internalType": "uint256",
          "name": "",
          "type": "uint256"
        }
      ],
      "stateMutability": "view",
      "type": "function"
    },
    {
      "inputs": [
        {
          "internalType": "uint256",
          "name": "tokenId",
          "type": "uint256"
        }
      ],
      "name": "tokenURI",
      "outputs": [
        {
          "internalType": "string",
          "name": "",
          "type": "string"
        }
      ],
      "stateMutability": "view",
      "type": "function"
    },
    {
      "inputs": [],
      "name": "totalSupply",
      "outputs": [
        {
          "internalType": "uint256",
          "name": "",
          "type": "uint256"
        }
      ],
      "stateMutability": "view",
      "type": "function"
    },
    {
      "inputs": [
        {
          "internalType": "address",
          "name": "from",
          "type": "address"
        },
        {
          "internalType": "address",
          "name": "to",
          "type": "address"
        },
        {
          "internalType": "uint256",
          "name": "tokenId",
          "type": "uint256"
        }
      ],
      "name": "transferFrom",
      "outputs": [],
      "stateMutability": "nonpayable",
      "type": "function"
    },
    {
      "inputs": [
        {
          "internalType": "address",
          "name": "newOwner",
          "type": "address"
        }
      ],
      "name": "transferOwnership",
      "outputs": [],
      "stateMutability": "nonpayable",
      "type": "function"
    }
  ],
  "bytecode": "0x60806040523480156200001157600080fd5b506040518060400160405280600f81526020017f486f6e6f726172794b697474656e7300000000000000000000000000000000008152506040518060400160405280600881526020017f484b495454454e530000000000000000000000000000000000000000000000008152508160009080519060200190620000969291906200032e565b508060019080519060200190620000af9291906200032e565b505050620000d2620000c6620000ed60201b60201c565b620000f560201b60201c565b620000e76000801b33620001bb60201b60201c565b62000443565b600033905090565b6000600b60009054906101000a900473ffffffffffffffffffffffffffffffffffffffff16905081600b60006101000a81548173ffffffffffffffffffffffffffffffffffffffff021916908373ffffffffffffffffffffffffffffffffffffffff1602179055508173ffffffffffffffffffffffffffffffffffffffff168173ffffffffffffffffffffffffffffffffffffffff167f8be0079c531659141344cd1fd0a4f28419497f9722a3daafe3b4186f6b6457e060405160405180910390a35050565b620001cd8282620001d160201b60201c565b5050565b620001e38282620002c360201b60201c565b620002bf576001600c600084815260200190815260200160002060000160008373ffffffffffffffffffffffffffffffffffffffff1673ffffffffffffffffffffffffffffffffffffffff16815260200190815260200160002060006101000a81548160ff02191690831515021790555062000264620000ed60201b60201c565b73ffffffffffffffffffffffffffffffffffffffff168173ffffffffffffffffffffffffffffffffffffffff16837f2f8788117e7eff1d82e926ec794901d17c78024a50270940304540a733656f0d60405160405180910390a45b5050565b6000600c600084815260200190815260200160002060000160008373ffffffffffffffffffffffffffffffffffffffff1673ffffffffffffffffffffffffffffffffffffffff16815260200190815260200160002060009054906101000a900460ff16905092915050565b8280546200033c90620003de565b90600052602060002090601f016020900481019282620003605760008555620003ac565b82601f106200037b57805160ff1916838001178555620003ac565b82800160010185558215620003ac579182015b82811115620003ab5782518255916020019190600101906200038e565b5b509050620003bb9190620003bf565b5090565b5b80821115620003da576000816000905550600101620003c0565b5090565b60006002820490506001821680620003f757607f821691505b602082108114156200040e576200040d62000414565b5b50919050565b7f4e487b7100000000000000000000000000000000000000000000000000000000600052602260045260246000fd5b6143d280620004536000396000f3fe608060405234801561001057600080fd5b50600436106102065760003560e01c806370a082311161011a578063b88d4fde116100ad578063d53913931161007c578063d539139314610622578063d547741f14610640578063e985e9c51461065c578063f2fde38b1461068c578063fd88ef2f146106a857610206565b8063b88d4fde14610588578063c87b56dd146105a4578063cafa8dfe146105d4578063cf1012d3146105f257610206565b806395d89b41116100e957806395d89b4114610514578063a217fddf14610532578063a22cb46514610550578063b0db0b291461056c57610206565b806370a082311461048c578063715018a6146104bc5780638da5cb5b146104c657806391d14854146104e457610206565b80632f2ff15d1161019d5780633c768d0e1161016c5780633c768d0e146103c457806342842e0e146103f45780634606baf2146104105780634f6ccce71461042c5780636352211e1461045c57610206565b80632f2ff15d146103405780632f745c591461035c57806336568abe1461038c57806338977686146103a857610206565b806318160ddd116101d957806318160ddd146102a557806323b872dd146102c3578063248a9ca3146102df5780632a55205a1461030f57610206565b806301ffc9a71461020b57806306fdde031461023b578063081812fc14610259578063095ea7b314610289575b600080fd5b6102256004803603810190610220919061311d565b6106d8565b60405161023291906136ec565b60405180910390f35b610243610752565b6040516102509190613722565b60405180910390f35b610273600480360381019061026e919061316f565b6107e4565b604051610280919061365c565b60405180910390f35b6102a3600480360381019061029e919061307c565b610869565b005b6102ad610981565b6040516102ba91906139a4565b60405180910390f35b6102dd60048036038101906102d89190612f22565b61098e565b005b6102f960048036038101906102f491906130b8565b6109ee565b6040516103069190613707565b60405180910390f35b61032960048036038101906103249190613228565b610a0e565b6040516103379291906136c3565b60405180910390f35b61035a600480360381019061035591906130e1565b610a75565b005b6103766004803603810190610371919061307c565b610a9e565b60405161038391906139a4565b60405180910390f35b6103a660048036038101906103a191906130e1565b610b43565b005b6103c260048036038101906103bd9190612ebd565b610bc6565b005b6103de60048036038101906103d9919061316f565b610c09565b6040516103eb919061365c565b60405180910390f35b61040e60048036038101906104099190612f22565b610c3c565b005b61042a60048036038101906104259190613198565b610c5c565b005b6104466004803603810190610441919061316f565b610ce5565b60405161045391906139a4565b60405180910390f35b6104766004803603810190610471919061316f565b610d7c565b604051610483919061365c565b60405180910390f35b6104a660048036038101906104a19190612ebd565b610e2e565b6040516104b391906139a4565b60405180910390f35b6104c4610ee6565b005b6104ce610f6e565b6040516104db919061365c565b60405180910390f35b6104fe60048036038101906104f991906130e1565b610f98565b60405161050b91906136ec565b60405180910390f35b61051c611003565b6040516105299190613722565b60405180910390f35b61053a611095565b6040516105479190613707565b60405180910390f35b61056a60048036038101906105659190612fec565b61109c565b005b610586600480360381019061058191906131d4565b61121d565b005b6105a2600480360381019061059d9190612f71565b61127c565b005b6105be60048036038101906105b9919061316f565b6112de565b6040516105cb9190613722565b60405180910390f35b6105dc611383565b6040516105e991906139a4565b60405180910390f35b61060c6004803603810190610607919061316f565b611388565b6040516106199190613722565b60405180910390f35b61062a611428565b6040516106379190613707565b60405180910390f35b61065a600480360381019061065591906130e1565b61144c565b005b61067660048036038101906106719190612ee6565b611475565b60405161068391906136ec565b60405180910390f35b6106a660048036038101906106a19190612ebd565b611509565b005b6106c260048036038101906106bd9190613028565b611601565b6040516106cf91906139a4565b60405180910390f35b6000817bffffffffffffffffffffffffffffffffffffffffffffffffffffffff19167f2a55205a000000000000000000000000000000000000000000000000000000007bffffffffffffffffffffffffffffffffffffffffffffffffffffffff1916148061074b575061074a826116e5565b5b9050919050565b60606000805461076190613c88565b80601f016020809104026020016040519081016040528092919081815260200182805461078d90613c88565b80156107da5780601f106107af576101008083540402835291602001916107da565b820191906000526020600020905b8154815290600101906020018083116107bd57829003601f168201915b5050505050905090565b60006107ef8261175f565b61082e576040517f08c379a0000000000000000000000000000000000000000000000000000000008152600401610825906138c4565b60405180910390fd5b6004600083815260200190815260200160002060009054906101000a900473ffffffffffffffffffffffffffffffffffffffff169050919050565b600061087482610d7c565b90508073ffffffffffffffffffffffffffffffffffffffff168373ffffffffffffffffffffffffffffffffffffffff1614156108e5576040517f08c379a00000000000000000000000000000000000000000000000000000000081526004016108dc90613924565b60405180910390fd5b8073ffffffffffffffffffffffffffffffffffffffff166109046117cb565b73ffffffffffffffffffffffffffffffffffffffff16148061093357506109328161092d6117cb565b611475565b5b610972576040517f08c379a000000000000000000000000000000000000000000000000000000000815260040161096990613844565b60405180910390fd5b61097c83836117d3565b505050565b6000600880549050905090565b61099f6109996117cb565b8261188c565b6109de576040517f08c379a00000000000000000000000000000000000000000000000000000000081526004016109d590613944565b60405180910390fd5b6109e983838361196a565b505050565b6000600c6000838152602001908152602001600020600101549050919050565b60008060006064600585610a229190613b10565b610a2c9190613adf565b90506000600e600087815260200190815260200160002060009054906101000a900473ffffffffffffffffffffffffffffffffffffffff16905080829350935050509250929050565b610a7e826109ee565b610a8f81610a8a6117cb565b611bc6565b610a998383611c63565b505050565b6000610aa983610e2e565b8210610aea576040517f08c379a0000000000000000000000000000000000000000000000000000000008152600401610ae190613764565b60405180910390fd5b600660008473ffffffffffffffffffffffffffffffffffffffff1673ffffffffffffffffffffffffffffffffffffffff168152602001908152602001600020600083815260200190815260200160002054905092915050565b610b4b6117cb565b73ffffffffffffffffffffffffffffffffffffffff168173ffffffffffffffffffffffffffffffffffffffff1614610bb8576040517f08c379a0000000000000000000000000000000000000000000000000000000008152600401610baf90613984565b60405180910390fd5b610bc28282611d44565b5050565b6000801b610bdb81610bd66117cb565b611bc6565b610c057f9f2df0fed2c77648de5860a4cc508cd0818c85b8b8a1ab4ceeef8d981c8956a683611e26565b5050565b600e6020528060005260406000206000915054906101000a900473ffffffffffffffffffffffffffffffffffffffff1681565b610c578383836040518060200160405280600081525061127c565b505050565b7f9f2df0fed2c77648de5860a4cc508cd0818c85b8b8a1ab4ceeef8d981c8956a6610c8e81610c896117cb565b611bc6565b81600e600085815260200190815260200160002060006101000a81548173ffffffffffffffffffffffffffffffffffffffff021916908373ffffffffffffffffffffffffffffffffffffffff160217905550505050565b6000610cef610981565b8210610d30576040517f08c379a0000000000000000000000000000000000000000000000000000000008152600401610d2790613964565b60405180910390fd5b60088281548110610d6a577f4e487b7100000000000000000000000000000000000000000000000000000000600052603260045260246000fd5b90600052602060002001549050919050565b6000806002600084815260200190815260200160002060009054906101000a900473ffffffffffffffffffffffffffffffffffffffff169050600073ffffffffffffffffffffffffffffffffffffffff168173ffffffffffffffffffffffffffffffffffffffff161415610e25576040517f08c379a0000000000000000000000000000000000000000000000000000000008152600401610e1c90613884565b60405180910390fd5b80915050919050565b60008073ffffffffffffffffffffffffffffffffffffffff168273ffffffffffffffffffffffffffffffffffffffff161415610e9f576040517f08c379a0000000000000000000000000000000000000000000000000000000008152600401610e9690613864565b60405180910390fd5b600360008373ffffffffffffffffffffffffffffffffffffffff1673ffffffffffffffffffffffffffffffffffffffff168152602001908152602001600020549050919050565b610eee6117cb565b73ffffffffffffffffffffffffffffffffffffffff16610f0c610f6e565b73ffffffffffffffffffffffffffffffffffffffff1614610f62576040517f08c379a0000000000000000000000000000000000000000000000000000000008152600401610f59906138e4565b60405180910390fd5b610f6c6000611e34565b565b6000600b60009054906101000a900473ffffffffffffffffffffffffffffffffffffffff16905090565b6000600c600084815260200190815260200160002060000160008373ffffffffffffffffffffffffffffffffffffffff1673ffffffffffffffffffffffffffffffffffffffff16815260200190815260200160002060009054906101000a900460ff16905092915050565b60606001805461101290613c88565b80601f016020809104026020016040519081016040528092919081815260200182805461103e90613c88565b801561108b5780601f106110605761010080835404028352916020019161108b565b820191906000526020600020905b81548152906001019060200180831161106e57829003601f168201915b5050505050905090565b6000801b81565b6110a46117cb565b73ffffffffffffffffffffffffffffffffffffffff168273ffffffffffffffffffffffffffffffffffffffff161415611112576040517f08c379a000000000000000000000000000000000000000000000000000000000815260040161110990613804565b60405180910390fd5b806005600061111f6117cb565b73ffffffffffffffffffffffffffffffffffffffff1673ffffffffffffffffffffffffffffffffffffffff16815260200190815260200160002060008473ffffffffffffffffffffffffffffffffffffffff1673ffffffffffffffffffffffffffffffffffffffff16815260200190815260200160002060006101000a81548160ff0219169083151502179055508173ffffffffffffffffffffffffffffffffffffffff166111cc6117cb565b73ffffffffffffffffffffffffffffffffffffffff167f17307eab39ab6107e8899845ad3d59bd9653f200f220920489ca2b5937696c318360405161121191906136ec565b60405180910390a35050565b7f9f2df0fed2c77648de5860a4cc508cd0818c85b8b8a1ab4ceeef8d981c8956a661124f8161124a6117cb565b611bc6565b81600f60008581526020019081526020016000209080519060200190611276929190612ccc565b50505050565b61128d6112876117cb565b8361188c565b6112cc576040517f08c379a00000000000000000000000000000000000000000000000000000000081526004016112c390613944565b60405180910390fd5b6112d884848484611efa565b50505050565b6060600f600083815260200190815260200160002080546112fe90613c88565b80601f016020809104026020016040519081016040528092919081815260200182805461132a90613c88565b80156113775780601f1061134c57610100808354040283529160200191611377565b820191906000526020600020905b81548152906001019060200180831161135a57829003601f168201915b50505050509050919050565b600581565b600f60205280600052604060002060009150905080546113a790613c88565b80601f01602080910402602001604051908101604052809291908181526020018280546113d390613c88565b80156114205780601f106113f557610100808354040283529160200191611420565b820191906000526020600020905b81548152906001019060200180831161140357829003601f168201915b505050505081565b7f9f2df0fed2c77648de5860a4cc508cd0818c85b8b8a1ab4ceeef8d981c8956a681565b611455826109ee565b611466816114616117cb565b611bc6565b6114708383611d44565b505050565b6000600560008473ffffffffffffffffffffffffffffffffffffffff1673ffffffffffffffffffffffffffffffffffffffff16815260200190815260200160002060008373ffffffffffffffffffffffffffffffffffffffff1673ffffffffffffffffffffffffffffffffffffffff16815260200190815260200160002060009054906101000a900460ff16905092915050565b6115116117cb565b73ffffffffffffffffffffffffffffffffffffffff1661152f610f6e565b73ffffffffffffffffffffffffffffffffffffffff1614611585576040517f08c379a000000000000000000000000000000000000000000000000000000000815260040161157c906138e4565b60405180910390fd5b600073ffffffffffffffffffffffffffffffffffffffff168173ffffffffffffffffffffffffffffffffffffffff1614156115f5576040517f08c379a00000000000000000000000000000000000000000000000000000000081526004016115ec906137a4565b60405180910390fd5b6115fe81611e34565b50565b60007f9f2df0fed2c77648de5860a4cc508cd0818c85b8b8a1ab4ceeef8d981c8956a6611635816116306117cb565b611bc6565b6000611641600d611f56565b905061165633611651600d611f56565b611f64565b84600e600083815260200190815260200160002060006101000a81548173ffffffffffffffffffffffffffffffffffffffff021916908373ffffffffffffffffffffffffffffffffffffffff16021790555083600f600083815260200190815260200160002090805190602001906116cf929190612ccc565b506116da600d611f82565b809250505092915050565b60007f7965db0b000000000000000000000000000000000000000000000000000000007bffffffffffffffffffffffffffffffffffffffffffffffffffffffff1916827bffffffffffffffffffffffffffffffffffffffffffffffffffffffff19161480611758575061175782611f98565b5b9050919050565b60008073ffffffffffffffffffffffffffffffffffffffff166002600084815260200190815260200160002060009054906101000a900473ffffffffffffffffffffffffffffffffffffffff1673ffffffffffffffffffffffffffffffffffffffff1614159050919050565b600033905090565b816004600083815260200190815260200160002060006101000a81548173ffffffffffffffffffffffffffffffffffffffff021916908373ffffffffffffffffffffffffffffffffffffffff160217905550808273ffffffffffffffffffffffffffffffffffffffff1661184683610d7c565b73ffffffffffffffffffffffffffffffffffffffff167f8c5be1e5ebec7d5bd14f71427d1e84f3dd0314c0f7b2291e5b200ac8c7c3b92560405160405180910390a45050565b60006118978261175f565b6118d6576040517f08c379a00000000000000000000000000000000000000000000000000000000081526004016118cd90613824565b60405180910390fd5b60006118e183610d7c565b90508073ffffffffffffffffffffffffffffffffffffffff168473ffffffffffffffffffffffffffffffffffffffff16148061195057508373ffffffffffffffffffffffffffffffffffffffff16611938846107e4565b73ffffffffffffffffffffffffffffffffffffffff16145b8061196157506119608185611475565b5b91505092915050565b8273ffffffffffffffffffffffffffffffffffffffff1661198a82610d7c565b73ffffffffffffffffffffffffffffffffffffffff16146119e0576040517f08c379a00000000000000000000000000000000000000000000000000000000081526004016119d790613904565b60405180910390fd5b600073ffffffffffffffffffffffffffffffffffffffff168273ffffffffffffffffffffffffffffffffffffffff161415611a50576040517f08c379a0000000000000000000000000000000000000000000000000000000008152600401611a47906137e4565b60405180910390fd5b611a5b838383612012565b611a666000826117d3565b6001600360008573ffffffffffffffffffffffffffffffffffffffff1673ffffffffffffffffffffffffffffffffffffffff1681526020019081526020016000206000828254611ab69190613b6a565b925050819055506001600360008473ffffffffffffffffffffffffffffffffffffffff1673ffffffffffffffffffffffffffffffffffffffff1681526020019081526020016000206000828254611b0d9190613a89565b92505081905550816002600083815260200190815260200160002060006101000a81548173ffffffffffffffffffffffffffffffffffffffff021916908373ffffffffffffffffffffffffffffffffffffffff160217905550808273ffffffffffffffffffffffffffffffffffffffff168473ffffffffffffffffffffffffffffffffffffffff167fddf252ad1be2c89b69c2b068fc378daa952ba7f163c4a11628f55a4df523b3ef60405160405180910390a4505050565b611bd08282610f98565b611c5f57611bf58173ffffffffffffffffffffffffffffffffffffffff166014612022565b611c038360001c6020612022565b604051602001611c14929190613622565b6040516020818303038152906040526040517f08c379a0000000000000000000000000000000000000000000000000000000008152600401611c569190613722565b60405180910390fd5b5050565b611c6d8282610f98565b611d40576001600c600084815260200190815260200160002060000160008373ffffffffffffffffffffffffffffffffffffffff1673ffffffffffffffffffffffffffffffffffffffff16815260200190815260200160002060006101000a81548160ff021916908315150217905550611ce56117cb565b73ffffffffffffffffffffffffffffffffffffffff168173ffffffffffffffffffffffffffffffffffffffff16837f2f8788117e7eff1d82e926ec794901d17c78024a50270940304540a733656f0d60405160405180910390a45b5050565b611d4e8282610f98565b15611e22576000600c600084815260200190815260200160002060000160008373ffffffffffffffffffffffffffffffffffffffff1673ffffffffffffffffffffffffffffffffffffffff16815260200190815260200160002060006101000a81548160ff021916908315150217905550611dc76117cb565b73ffffffffffffffffffffffffffffffffffffffff168173ffffffffffffffffffffffffffffffffffffffff16837ff6391f5c32d9c69d2a47ea670b442974b53935d1edc7fd64eb21e047a839171b60405160405180910390a45b5050565b611e308282611c63565b5050565b6000600b60009054906101000a900473ffffffffffffffffffffffffffffffffffffffff16905081600b60006101000a81548173ffffffffffffffffffffffffffffffffffffffff021916908373ffffffffffffffffffffffffffffffffffffffff1602179055508173ffffffffffffffffffffffffffffffffffffffff168173ffffffffffffffffffffffffffffffffffffffff167f8be0079c531659141344cd1fd0a4f28419497f9722a3daafe3b4186f6b6457e060405160405180910390a35050565b611f0584848461196a565b611f118484848461231c565b611f50576040517f08c379a0000000000000000000000000000000000000000000000000000000008152600401611f4790613784565b60405180910390fd5b50505050565b600081600001549050919050565b611f7e8282604051806020016040528060008152506124b3565b5050565b6001816000016000828254019250508190555050565b60007f780e9d63000000000000000000000000000000000000000000000000000000007bffffffffffffffffffffffffffffffffffffffffffffffffffffffff1916827bffffffffffffffffffffffffffffffffffffffffffffffffffffffff1916148061200b575061200a8261250e565b5b9050919050565b61201d8383836125f0565b505050565b6060600060028360026120359190613b10565b61203f9190613a89565b67ffffffffffffffff81111561207e577f4e487b7100000000000000000000000000000000000000000000000000000000600052604160045260246000fd5b6040519080825280601f01601f1916602001820160405280156120b05781602001600182028036833780820191505090505b5090507f30000000000000000000000000000000000000000000000000000000000000008160008151811061210e577f4e487b7100000000000000000000000000000000000000000000000000000000600052603260045260246000fd5b60200101907effffffffffffffffffffffffffffffffffffffffffffffffffffffffffffff1916908160001a9053507f780000000000000000000000000000000000000000000000000000000000000081600181518110612198577f4e487b7100000000000000000000000000000000000000000000000000000000600052603260045260246000fd5b60200101907effffffffffffffffffffffffffffffffffffffffffffffffffffffffffffff1916908160001a905350600060018460026121d89190613b10565b6121e29190613a89565b90505b60018111156122ce577f3031323334353637383961626364656600000000000000000000000000000000600f86166010811061224a577f4e487b7100000000000000000000000000000000000000000000000000000000600052603260045260246000fd5b1a60f81b828281518110612287577f4e487b7100000000000000000000000000000000000000000000000000000000600052603260045260246000fd5b60200101907effffffffffffffffffffffffffffffffffffffffffffffffffffffffffffff1916908160001a905350600485901c9450806122c790613c5e565b90506121e5565b5060008414612312576040517f08c379a000000000000000000000000000000000000000000000000000000000815260040161230990613744565b60405180910390fd5b8091505092915050565b600061233d8473ffffffffffffffffffffffffffffffffffffffff16612704565b156124a6578373ffffffffffffffffffffffffffffffffffffffff1663150b7a026123666117cb565b8786866040518563ffffffff1660e01b81526004016123889493929190613677565b602060405180830381600087803b1580156123a257600080fd5b505af19250505080156123d357506040513d601f19601f820116820180604052508101906123d09190613146565b60015b612456573d8060008114612403576040519150601f19603f3d011682016040523d82523d6000602084013e612408565b606091505b5060008151141561244e576040517f08c379a000000000000000000000000000000000000000000000000000000000815260040161244590613784565b60405180910390fd5b805181602001fd5b63150b7a0260e01b7bffffffffffffffffffffffffffffffffffffffffffffffffffffffff1916817bffffffffffffffffffffffffffffffffffffffffffffffffffffffff1916149150506124ab565b600190505b949350505050565b6124bd8383612717565b6124ca600084848461231c565b612509576040517f08c379a000000000000000000000000000000000000000000000000000000000815260040161250090613784565b60405180910390fd5b505050565b60007f80ac58cd000000000000000000000000000000000000000000000000000000007bffffffffffffffffffffffffffffffffffffffffffffffffffffffff1916827bffffffffffffffffffffffffffffffffffffffffffffffffffffffff191614806125d957507f5b5e139f000000000000000000000000000000000000000000000000000000007bffffffffffffffffffffffffffffffffffffffffffffffffffffffff1916827bffffffffffffffffffffffffffffffffffffffffffffffffffffffff1916145b806125e957506125e8826128e5565b5b9050919050565b6125fb83838361294f565b600073ffffffffffffffffffffffffffffffffffffffff168373ffffffffffffffffffffffffffffffffffffffff16141561263e5761263981612954565b61267d565b8173ffffffffffffffffffffffffffffffffffffffff168373ffffffffffffffffffffffffffffffffffffffff161461267c5761267b838261299d565b5b5b600073ffffffffffffffffffffffffffffffffffffffff168273ffffffffffffffffffffffffffffffffffffffff1614156126c0576126bb81612b0a565b6126ff565b8273ffffffffffffffffffffffffffffffffffffffff168273ffffffffffffffffffffffffffffffffffffffff16146126fe576126fd8282612c4d565b5b5b505050565b600080823b905060008111915050919050565b600073ffffffffffffffffffffffffffffffffffffffff168273ffffffffffffffffffffffffffffffffffffffff161415612787576040517f08c379a000000000000000000000000000000000000000000000000000000000815260040161277e906138a4565b60405180910390fd5b6127908161175f565b156127d0576040517f08c379a00000000000000000000000000000000000000000000000000000000081526004016127c7906137c4565b60405180910390fd5b6127dc60008383612012565b6001600360008473ffffffffffffffffffffffffffffffffffffffff1673ffffffffffffffffffffffffffffffffffffffff168152602001908152602001600020600082825461282c9190613a89565b92505081905550816002600083815260200190815260200160002060006101000a81548173ffffffffffffffffffffffffffffffffffffffff021916908373ffffffffffffffffffffffffffffffffffffffff160217905550808273ffffffffffffffffffffffffffffffffffffffff16600073ffffffffffffffffffffffffffffffffffffffff167fddf252ad1be2c89b69c2b068fc378daa952ba7f163c4a11628f55a4df523b3ef60405160405180910390a45050565b60007f01ffc9a7000000000000000000000000000000000000000000000000000000007bffffffffffffffffffffffffffffffffffffffffffffffffffffffff1916827bffffffffffffffffffffffffffffffffffffffffffffffffffffffff1916149050919050565b505050565b6008805490506009600083815260200190815260200160002081905550600881908060018154018082558091505060019003906000526020600020016000909190919091505550565b600060016129aa84610e2e565b6129b49190613b6a565b9050600060076000848152602001908152602001600020549050818114612a99576000600660008673ffffffffffffffffffffffffffffffffffffffff1673ffffffffffffffffffffffffffffffffffffffff168152602001908152602001600020600084815260200190815260200160002054905080600660008773ffffffffffffffffffffffffffffffffffffffff1673ffffffffffffffffffffffffffffffffffffffff168152602001908152602001600020600084815260200190815260200160002081905550816007600083815260200190815260200160002081905550505b6007600084815260200190815260200160002060009055600660008573ffffffffffffffffffffffffffffffffffffffff1673ffffffffffffffffffffffffffffffffffffffff16815260200190815260200160002060008381526020019081526020016000206000905550505050565b60006001600880549050612b1e9190613b6a565b9050600060096000848152602001908152602001600020549050600060088381548110612b74577f4e487b7100000000000000000000000000000000000000000000000000000000600052603260045260246000fd5b906000526020600020015490508060088381548110612bbc577f4e487b7100000000000000000000000000000000000000000000000000000000600052603260045260246000fd5b906000526020600020018190555081600960008381526020019081526020016000208190555060096000858152602001908152602001600020600090556008805480612c31577f4e487b7100000000000000000000000000000000000000000000000000000000600052603160045260246000fd5b6001900381819060005260206000200160009055905550505050565b6000612c5883610e2e565b905081600660008573ffffffffffffffffffffffffffffffffffffffff1673ffffffffffffffffffffffffffffffffffffffff168152602001908152602001600020600083815260200190815260200160002081905550806007600084815260200190815260200160002081905550505050565b828054612cd890613c88565b90600052602060002090601f016020900481019282612cfa5760008555612d41565b82601f10612d1357805160ff1916838001178555612d41565b82800160010185558215612d41579182015b82811115612d40578251825591602001919060010190612d25565b5b509050612d4e9190612d52565b5090565b5b80821115612d6b576000816000905550600101612d53565b5090565b6000612d82612d7d846139e4565b6139bf565b905082815260208101848484011115612d9a57600080fd5b612da5848285613c1c565b509392505050565b6000612dc0612dbb84613a15565b6139bf565b905082815260208101848484011115612dd857600080fd5b612de3848285613c1c565b509392505050565b600081359050612dfa81614329565b92915050565b600081359050612e0f81614340565b92915050565b600081359050612e2481614357565b92915050565b600081359050612e398161436e565b92915050565b600081519050612e4e8161436e565b92915050565b600082601f830112612e6557600080fd5b8135612e75848260208601612d6f565b91505092915050565b600082601f830112612e8f57600080fd5b8135612e9f848260208601612dad565b91505092915050565b600081359050612eb781614385565b92915050565b600060208284031215612ecf57600080fd5b6000612edd84828501612deb565b91505092915050565b60008060408385031215612ef957600080fd5b6000612f0785828601612deb565b9250506020612f1885828601612deb565b9150509250929050565b600080600060608486031215612f3757600080fd5b6000612f4586828701612deb565b9350506020612f5686828701612deb565b9250506040612f6786828701612ea8565b9150509250925092565b60008060008060808587031215612f8757600080fd5b6000612f9587828801612deb565b9450506020612fa687828801612deb565b9350506040612fb787828801612ea8565b925050606085013567ffffffffffffffff811115612fd457600080fd5b612fe087828801612e54565b91505092959194509250565b60008060408385031215612fff57600080fd5b600061300d85828601612deb565b925050602061301e85828601612e00565b9150509250929050565b6000806040838503121561303b57600080fd5b600061304985828601612deb565b925050602083013567ffffffffffffffff81111561306657600080fd5b61307285828601612e7e565b9150509250929050565b6000806040838503121561308f57600080fd5b600061309d85828601612deb565b92505060206130ae85828601612ea8565b9150509250929050565b6000602082840312156130ca57600080fd5b60006130d884828501612e15565b91505092915050565b600080604083850312156130f457600080fd5b600061310285828601612e15565b925050602061311385828601612deb565b9150509250929050565b60006020828403121561312f57600080fd5b600061313d84828501612e2a565b91505092915050565b60006020828403121561315857600080fd5b600061316684828501612e3f565b91505092915050565b60006020828403121561318157600080fd5b600061318f84828501612ea8565b91505092915050565b600080604083850312156131ab57600080fd5b60006131b985828601612ea8565b92505060206131ca85828601612deb565b9150509250929050565b600080604083850312156131e757600080fd5b60006131f585828601612ea8565b925050602083013567ffffffffffffffff81111561321257600080fd5b61321e85828601612e7e565b9150509250929050565b6000806040838503121561323b57600080fd5b600061324985828601612ea8565b925050602061325a85828601612ea8565b9150509250929050565b61326d81613b9e565b82525050565b61327c81613bb0565b82525050565b61328b81613bbc565b82525050565b600061329c82613a46565b6132a68185613a5c565b93506132b6818560208601613c2b565b6132bf81613da7565b840191505092915050565b60006132d582613a51565b6132df8185613a6d565b93506132ef818560208601613c2b565b6132f881613da7565b840191505092915050565b600061330e82613a51565b6133188185613a7e565b9350613328818560208601613c2b565b80840191505092915050565b6000613341602083613a6d565b915061334c82613db8565b602082019050919050565b6000613364602b83613a6d565b915061336f82613de1565b604082019050919050565b6000613387603283613a6d565b915061339282613e30565b604082019050919050565b60006133aa602683613a6d565b91506133b582613e7f565b604082019050919050565b60006133cd601c83613a6d565b91506133d882613ece565b602082019050919050565b60006133f0602483613a6d565b91506133fb82613ef7565b604082019050919050565b6000613413601983613a6d565b915061341e82613f46565b602082019050919050565b6000613436602c83613a6d565b915061344182613f6f565b604082019050919050565b6000613459603883613a6d565b915061346482613fbe565b604082019050919050565b600061347c602a83613a6d565b91506134878261400d565b604082019050919050565b600061349f602983613a6d565b91506134aa8261405c565b604082019050919050565b60006134c2602083613a6d565b91506134cd826140ab565b602082019050919050565b60006134e5602c83613a6d565b91506134f0826140d4565b604082019050919050565b6000613508602083613a6d565b915061351382614123565b602082019050919050565b600061352b602983613a6d565b91506135368261414c565b604082019050919050565b600061354e602183613a6d565b91506135598261419b565b604082019050919050565b6000613571603183613a6d565b915061357c826141ea565b604082019050919050565b6000613594602c83613a6d565b915061359f82614239565b604082019050919050565b60006135b7601783613a7e565b91506135c282614288565b601782019050919050565b60006135da601183613a7e565b91506135e5826142b1565b601182019050919050565b60006135fd602f83613a6d565b9150613608826142da565b604082019050919050565b61361c81613c12565b82525050565b600061362d826135aa565b91506136398285613303565b9150613644826135cd565b91506136508284613303565b91508190509392505050565b60006020820190506136716000830184613264565b92915050565b600060808201905061368c6000830187613264565b6136996020830186613264565b6136a66040830185613613565b81810360608301526136b88184613291565b905095945050505050565b60006040820190506136d86000830185613264565b6136e56020830184613613565b9392505050565b60006020820190506137016000830184613273565b92915050565b600060208201905061371c6000830184613282565b92915050565b6000602082019050818103600083015261373c81846132ca565b905092915050565b6000602082019050818103600083015261375d81613334565b9050919050565b6000602082019050818103600083015261377d81613357565b9050919050565b6000602082019050818103600083015261379d8161337a565b9050919050565b600060208201905081810360008301526137bd8161339d565b9050919050565b600060208201905081810360008301526137dd816133c0565b9050919050565b600060208201905081810360008301526137fd816133e3565b9050919050565b6000602082019050818103600083015261381d81613406565b9050919050565b6000602082019050818103600083015261383d81613429565b9050919050565b6000602082019050818103600083015261385d8161344c565b9050919050565b6000602082019050818103600083015261387d8161346f565b9050919050565b6000602082019050818103600083015261389d81613492565b9050919050565b600060208201905081810360008301526138bd816134b5565b9050919050565b600060208201905081810360008301526138dd816134d8565b9050919050565b600060208201905081810360008301526138fd816134fb565b9050919050565b6000602082019050818103600083015261391d8161351e565b9050919050565b6000602082019050818103600083015261393d81613541565b9050919050565b6000602082019050818103600083015261395d81613564565b9050919050565b6000602082019050818103600083015261397d81613587565b9050919050565b6000602082019050818103600083015261399d816135f0565b9050919050565b60006020820190506139b96000830184613613565b92915050565b60006139c96139da565b90506139d58282613cba565b919050565b6000604051905090565b600067ffffffffffffffff8211156139ff576139fe613d78565b5b613a0882613da7565b9050602081019050919050565b600067ffffffffffffffff821115613a3057613a2f613d78565b5b613a3982613da7565b9050602081019050919050565b600081519050919050565b600081519050919050565b600082825260208201905092915050565b600082825260208201905092915050565b600081905092915050565b6000613a9482613c12565b9150613a9f83613c12565b9250827fffffffffffffffffffffffffffffffffffffffffffffffffffffffffffffffff03821115613ad457613ad3613ceb565b5b828201905092915050565b6000613aea82613c12565b9150613af583613c12565b925082613b0557613b04613d1a565b5b828204905092915050565b6000613b1b82613c12565b9150613b2683613c12565b9250817fffffffffffffffffffffffffffffffffffffffffffffffffffffffffffffffff0483118215151615613b5f57613b5e613ceb565b5b828202905092915050565b6000613b7582613c12565b9150613b8083613c12565b925082821015613b9357613b92613ceb565b5b828203905092915050565b6000613ba982613bf2565b9050919050565b60008115159050919050565b6000819050919050565b60007fffffffff0000000000000000000000000000000000000000000000000000000082169050919050565b600073ffffffffffffffffffffffffffffffffffffffff82169050919050565b6000819050919050565b82818337600083830152505050565b60005b83811015613c49578082015181840152602081019050613c2e565b83811115613c58576000848401525b50505050565b6000613c6982613c12565b91506000821415613c7d57613c7c613ceb565b5b600182039050919050565b60006002820490506001821680613ca057607f821691505b60208210811415613cb457613cb3613d49565b5b50919050565b613cc382613da7565b810181811067ffffffffffffffff82111715613ce257613ce1613d78565b5b80604052505050565b7f4e487b7100000000000000000000000000000000000000000000000000000000600052601160045260246000fd5b7f4e487b7100000000000000000000000000000000000000000000000000000000600052601260045260246000fd5b7f4e487b7100000000000000000000000000000000000000000000000000000000600052602260045260246000fd5b7f4e487b7100000000000000000000000000000000000000000000000000000000600052604160045260246000fd5b6000601f19601f8301169050919050565b7f537472696e67733a20686578206c656e67746820696e73756666696369656e74600082015250565b7f455243373231456e756d657261626c653a206f776e657220696e646578206f7560008201527f74206f6620626f756e6473000000000000000000000000000000000000000000602082015250565b7f4552433732313a207472616e7366657220746f206e6f6e20455243373231526560008201527f63656976657220696d706c656d656e7465720000000000000000000000000000602082015250565b7f4f776e61626c653a206e6577206f776e657220697320746865207a65726f206160008201527f6464726573730000000000000000000000000000000000000000000000000000602082015250565b7f4552433732313a20746f6b656e20616c7265616479206d696e74656400000000600082015250565b7f4552433732313a207472616e7366657220746f20746865207a65726f2061646460008201527f7265737300000000000000000000000000000000000000000000000000000000602082015250565b7f4552433732313a20617070726f766520746f2063616c6c657200000000000000600082015250565b7f4552433732313a206f70657261746f7220717565727920666f72206e6f6e657860008201527f697374656e7420746f6b656e0000000000000000000000000000000000000000602082015250565b7f4552433732313a20617070726f76652063616c6c6572206973206e6f74206f7760008201527f6e6572206e6f7220617070726f76656420666f7220616c6c0000000000000000602082015250565b7f4552433732313a2062616c616e636520717565727920666f7220746865207a6560008201527f726f206164647265737300000000000000000000000000000000000000000000602082015250565b7f4552433732313a206f776e657220717565727920666f72206e6f6e657869737460008201527f656e7420746f6b656e0000000000000000000000000000000000000000000000602082015250565b7f4552433732313a206d696e7420746f20746865207a65726f2061646472657373600082015250565b7f4552433732313a20617070726f76656420717565727920666f72206e6f6e657860008201527f697374656e7420746f6b656e0000000000000000000000000000000000000000602082015250565b7f4f776e61626c653a2063616c6c6572206973206e6f7420746865206f776e6572600082015250565b7f4552433732313a207472616e73666572206f6620746f6b656e2074686174206960008201527f73206e6f74206f776e0000000000000000000000000000000000000000000000602082015250565b7f4552433732313a20617070726f76616c20746f2063757272656e74206f776e6560008201527f7200000000000000000000000000000000000000000000000000000000000000602082015250565b7f4552433732313a207472616e736665722063616c6c6572206973206e6f74206f60008201527f776e6572206e6f7220617070726f766564000000000000000000000000000000602082015250565b7f455243373231456e756d657261626c653a20676c6f62616c20696e646578206f60008201527f7574206f6620626f756e64730000000000000000000000000000000000000000602082015250565b7f416363657373436f6e74726f6c3a206163636f756e7420000000000000000000600082015250565b7f206973206d697373696e6720726f6c6520000000000000000000000000000000600082015250565b7f416363657373436f6e74726f6c3a2063616e206f6e6c792072656e6f756e636560008201527f20726f6c657320666f722073656c660000000000000000000000000000000000602082015250565b61433281613b9e565b811461433d57600080fd5b50565b61434981613bb0565b811461435457600080fd5b50565b61436081613bbc565b811461436b57600080fd5b50565b61437781613bc6565b811461438257600080fd5b50565b61438e81613c12565b811461439957600080fd5b5056fea2646970667358221220ceccd0e2368636efb18d8cbfc9a9cb80199e63626af7a12383ea35340216718664736f6c63430008040033",
  "linkReferences": {},
  "deployedLinkReferences": {}
}