{
  "_format": "hh-sol-artifact-1",
  "contractName": "Affinity",
  "sourceName": "contracts/Affinity.sol",
  "abi": [
    {
      "inputs": [
        {
          "internalType": "address",
          "name": "kittensAddress",
          "type": "address"
        }
      ],
      "stateMutability": "nonpayable",
      "type": "constructor"
    },
    {
      "inputs": [
        {
          "internalType": "uint256",
          "name": "tokenId",
          "type": "uint256"
        }
      ],
      "name": "affinityBalanceOf",
      "outputs": [
        {
          "internalType": "uint256",
          "name": "",
          "type": "uint256"
        }
      ],
      "stateMutability": "view",
      "type": "function"
    },
    {
      "inputs": [],
      "name": "emission",
      "outputs": [
        {
          "internalType": "uint256",
          "name": "",
          "type": "uint256"
        }
      ],
      "stateMutability": "view",
      "type": "function"
    },
    {
      "inputs": [
        {
          "internalType": "uint256",
          "name": "",
          "type": "uint256"
        }
      ],
      "name": "kittensAffinities",
      "outputs": [
        {
          "internalType": "uint256",
          "name": "",
          "type": "uint256"
        }
      ],
      "stateMutability": "view",
      "type": "function"
    },
    {
      "inputs": [
        {
          "internalType": "uint256",
          "name": "",
          "type": "uint256"
        }
      ],
      "name": "lastPetting",
      "outputs": [
        {
          "internalType": "uint256",
          "name": "",
          "type": "uint256"
        }
      ],
      "stateMutability": "view",
      "type": "function"
    },
    {
      "inputs": [
        {
          "internalType": "address",
          "name": "operator",
          "type": "address"
        },
        {
          "internalType": "address",
          "name": "from",
          "type": "address"
        },
        {
          "internalType": "uint256",
          "name": "tokenId",
          "type": "uint256"
        },
        {
          "internalType": "bytes",
          "name": "data",
          "type": "bytes"
        }
      ],
      "name": "onERC721Received",
      "outputs": [
        {
          "internalType": "bytes4",
          "name": "",
          "type": "bytes4"
        }
      ],
      "stateMutability": "nonpayable",
      "type": "function"
    },
    {
      "inputs": [
        {
          "internalType": "uint256",
          "name": "",
          "type": "uint256"
        }
      ],
      "name": "ownerOf",
      "outputs": [
        {
          "internalType": "address",
          "name": "",
          "type": "address"
        }
      ],
      "stateMutability": "view",
      "type": "function"
    },
    {
      "inputs": [
        {
          "internalType": "uint256",
          "name": "tokenId",
          "type": "uint256"
        }
      ],
      "name": "pet",
      "outputs": [
        {
          "internalType": "uint256",
          "name": "affinity",
          "type": "uint256"
        }
      ],
      "stateMutability": "nonpayable",
      "type": "function"
    },
    {
      "inputs": [
        {
          "internalType": "uint256",
          "name": "amount",
          "type": "uint256"
        }
      ],
      "name": "setEmission",
      "outputs": [],
      "stateMutability": "nonpayable",
      "type": "function"
    },
    {
      "inputs": [
        {
          "internalType": "uint256",
          "name": "tokenId",
          "type": "uint256"
        }
      ],
      "name": "withdrawKitten",
      "outputs": [],
      "stateMutability": "nonpayable",
      "type": "function"
    }
  ],
  "bytecode": "0x6080604052600160035573fd211f3b016a75bc8d73550ac5adc2f1cae780c0600560006101000a81548173ffffffffffffffffffffffffffffffffffffffff021916908373ffffffffffffffffffffffffffffffffffffffff16021790555034801561006a57600080fd5b50604051610db9380380610db9833981810160405281019061008c9190610129565b33600460006101000a81548173ffffffffffffffffffffffffffffffffffffffff021916908373ffffffffffffffffffffffffffffffffffffffff16021790555080600560006101000a81548173ffffffffffffffffffffffffffffffffffffffff021916908373ffffffffffffffffffffffffffffffffffffffff1602179055505061019b565b60008151905061012381610184565b92915050565b60006020828403121561013b57600080fd5b600061014984828501610114565b91505092915050565b600061015d82610164565b9050919050565b600073ffffffffffffffffffffffffffffffffffffffff82169050919050565b61018d81610152565b811461019857600080fd5b50565b610c0f806101aa6000396000f3fe608060405234801561001057600080fd5b50600436106100935760003560e01c8063827c049e11610066578063827c049e14610158578063a07d797214610176578063c63cc710146101a6578063c6d74633146101d6578063ddce102f146101f257610093565b8063150b7a02146100985780632b4ffec5146100c85780636352211e146100f85780637fec98c314610128575b600080fd5b6100b260048036038101906100ad919061081a565b61020e565b6040516100bf91906109b1565b60405180910390f35b6100e260048036038101906100dd919061089a565b610275565b6040516100ef9190610a0c565b60405180910390f35b610112600480360381019061010d919061089a565b61028d565b60405161011f9190610936565b60405180910390f35b610142600480360381019061013d919061089a565b6102c0565b60405161014f9190610a0c565b60405180910390f35b6101606102d8565b60405161016d9190610a0c565b60405180910390f35b610190600480360381019061018b919061089a565b6102de565b60405161019d9190610a0c565b60405180910390f35b6101c060048036038101906101bb919061089a565b610542565b6040516101cd9190610a0c565b60405180910390f35b6101f060048036038101906101eb919061089a565b61055e565b005b61020c6004803603810190610207919061089a565b610704565b005b6000846001600086815260200190815260200160002060006101000a81548173ffffffffffffffffffffffffffffffffffffffff021916908373ffffffffffffffffffffffffffffffffffffffff16021790555063150b7a0260e01b905095945050505050565b60006020528060005260406000206000915090505481565b60016020528060005260406000206000915054906101000a900473ffffffffffffffffffffffffffffffffffffffff1681565b60026020528060005260406000206000915090505481565b60035481565b60006001600083815260200190815260200160002060009054906101000a900473ffffffffffffffffffffffffffffffffffffffff1673ffffffffffffffffffffffffffffffffffffffff163373ffffffffffffffffffffffffffffffffffffffff1614610381576040517f08c379a0000000000000000000000000000000000000000000000000000000008152600401610378906109cc565b60405180910390fd5b3073ffffffffffffffffffffffffffffffffffffffff16600560009054906101000a900473ffffffffffffffffffffffffffffffffffffffff1673ffffffffffffffffffffffffffffffffffffffff16636352211e846040518263ffffffff1660e01b81526004016103f39190610a0c565b60206040518083038186803b15801561040b57600080fd5b505afa15801561041f573d6000803e3d6000fd5b505050506040513d601f19601f8201168201806040525081019061044391906107f1565b73ffffffffffffffffffffffffffffffffffffffff161461046357600080fd5b6000600260008481526020019081526020016000205414806104a65750620151806002600084815260200190815260200160002054426104a39190610a8e565b10155b6104e5576040517f08c379a00000000000000000000000000000000000000000000000000000000081526004016104dc906109ec565b60405180910390fd5b60035460008084815260200190815260200160002060008282546105099190610a38565b92505081905550426002600084815260200190815260200160002081905550600080838152602001908152602001600020549050919050565b6000806000838152602001908152602001600020549050919050565b3373ffffffffffffffffffffffffffffffffffffffff166001600083815260200190815260200160002060009054906101000a900473ffffffffffffffffffffffffffffffffffffffff1673ffffffffffffffffffffffffffffffffffffffff16146105c957600080fd5b600080600083815260200190815260200160002081905550600560009054906101000a900473ffffffffffffffffffffffffffffffffffffffff1673ffffffffffffffffffffffffffffffffffffffff1663095ea7b333836040518363ffffffff1660e01b815260040161063e929190610988565b600060405180830381600087803b15801561065857600080fd5b505af115801561066c573d6000803e3d6000fd5b50505050600560009054906101000a900473ffffffffffffffffffffffffffffffffffffffff1673ffffffffffffffffffffffffffffffffffffffff166342842e0e3033846040518463ffffffff1660e01b81526004016106cf93929190610951565b600060405180830381600087803b1580156106e957600080fd5b505af11580156106fd573d6000803e3d6000fd5b5050505050565b600460009054906101000a900473ffffffffffffffffffffffffffffffffffffffff1673ffffffffffffffffffffffffffffffffffffffff163373ffffffffffffffffffffffffffffffffffffffff161461075e57600080fd5b8060038190555050565b60008135905061077781610bab565b92915050565b60008151905061078c81610bab565b92915050565b60008083601f8401126107a457600080fd5b8235905067ffffffffffffffff8111156107bd57600080fd5b6020830191508360018202830111156107d557600080fd5b9250929050565b6000813590506107eb81610bc2565b92915050565b60006020828403121561080357600080fd5b60006108118482850161077d565b91505092915050565b60008060008060006080868803121561083257600080fd5b600061084088828901610768565b955050602061085188828901610768565b9450506040610862888289016107dc565b935050606086013567ffffffffffffffff81111561087f57600080fd5b61088b88828901610792565b92509250509295509295909350565b6000602082840312156108ac57600080fd5b60006108ba848285016107dc565b91505092915050565b6108cc81610ac2565b82525050565b6108db81610ad4565b82525050565b60006108ee600a83610a27565b91506108f982610b59565b602082019050919050565b6000610911601a83610a27565b915061091c82610b82565b602082019050919050565b61093081610b20565b82525050565b600060208201905061094b60008301846108c3565b92915050565b600060608201905061096660008301866108c3565b61097360208301856108c3565b6109806040830184610927565b949350505050565b600060408201905061099d60008301856108c3565b6109aa6020830184610927565b9392505050565b60006020820190506109c660008301846108d2565b92915050565b600060208201905081810360008301526109e5816108e1565b9050919050565b60006020820190508181036000830152610a0581610904565b9050919050565b6000602082019050610a216000830184610927565b92915050565b600082825260208201905092915050565b6000610a4382610b20565b9150610a4e83610b20565b9250827fffffffffffffffffffffffffffffffffffffffffffffffffffffffffffffffff03821115610a8357610a82610b2a565b5b828201905092915050565b6000610a9982610b20565b9150610aa483610b20565b925082821015610ab757610ab6610b2a565b5b828203905092915050565b6000610acd82610b00565b9050919050565b60007fffffffff0000000000000000000000000000000000000000000000000000000082169050919050565b600073ffffffffffffffffffffffffffffffffffffffff82169050919050565b6000819050919050565b7f4e487b7100000000000000000000000000000000000000000000000000000000600052601160045260246000fd5b7f4f6e6c79206f776e657200000000000000000000000000000000000000000000600082015250565b7f43616e6e6f742063616c6c20747769636520696e206120646179000000000000600082015250565b610bb481610ac2565b8114610bbf57600080fd5b50565b610bcb81610b20565b8114610bd657600080fd5b5056fea26469706673582212205fe32c24c510f812383268d3bcd389e320448b44816b401f110a8a662566e78964736f6c63430008040033",
  "linkReferences": {},
  "deployedLinkReferences": {}
}