{
  "_format": "hh-sol-artifact-1",
  "contractName": "Affinity",
  "sourceName": "contracts/Affinity.sol",
  "abi": [
    {
      "inputs": [
        {
          "internalType": "address",
          "name": "kittensAddress",
          "type": "address"
        }
      ],
      "stateMutability": "nonpayable",
      "type": "constructor"
    },
    {
      "inputs": [
        {
          "internalType": "uint256",
          "name": "tokenId",
          "type": "uint256"
        }
      ],
      "name": "affinityBalanceOf",
      "outputs": [
        {
          "internalType": "uint256",
          "name": "",
          "type": "uint256"
        }
      ],
      "stateMutability": "view",
      "type": "function"
    },
    {
      "inputs": [],
      "name": "emission",
      "outputs": [
        {
          "internalType": "uint256",
          "name": "",
          "type": "uint256"
        }
      ],
      "stateMutability": "view",
      "type": "function"
    },
    {
      "inputs": [
        {
          "internalType": "uint256",
          "name": "",
          "type": "uint256"
        }
      ],
      "name": "kittensAffinities",
      "outputs": [
        {
          "internalType": "uint256",
          "name": "",
          "type": "uint256"
        }
      ],
      "stateMutability": "view",
      "type": "function"
    },
    {
      "inputs": [
        {
          "internalType": "uint256",
          "name": "",
          "type": "uint256"
        }
      ],
      "name": "lastPetting",
      "outputs": [
        {
          "internalType": "uint256",
          "name": "",
          "type": "uint256"
        }
      ],
      "stateMutability": "view",
      "type": "function"
    },
    {
      "inputs": [
        {
          "internalType": "address",
          "name": "operator",
          "type": "address"
        },
        {
          "internalType": "address",
          "name": "from",
          "type": "address"
        },
        {
          "internalType": "uint256",
          "name": "tokenId",
          "type": "uint256"
        },
        {
          "internalType": "bytes",
          "name": "data",
          "type": "bytes"
        }
      ],
      "name": "onERC721Received",
      "outputs": [
        {
          "internalType": "bytes4",
          "name": "",
          "type": "bytes4"
        }
      ],
      "stateMutability": "nonpayable",
      "type": "function"
    },
    {
      "inputs": [
        {
          "internalType": "uint256",
          "name": "",
          "type": "uint256"
        }
      ],
      "name": "ownerOf",
      "outputs": [
        {
          "internalType": "address",
          "name": "",
          "type": "address"
        }
      ],
      "stateMutability": "view",
      "type": "function"
    },
    {
      "inputs": [
        {
          "internalType": "uint256",
          "name": "tokenId",
          "type": "uint256"
        }
      ],
      "name": "pet",
      "outputs": [
        {
          "internalType": "uint256",
          "name": "affinity",
          "type": "uint256"
        }
      ],
      "stateMutability": "nonpayable",
      "type": "function"
    },
    {
      "inputs": [
        {
          "internalType": "uint256",
          "name": "amount",
          "type": "uint256"
        }
      ],
      "name": "setEmission",
      "outputs": [],
      "stateMutability": "nonpayable",
      "type": "function"
    },
    {
      "inputs": [
        {
          "internalType": "uint256",
          "name": "tokenId",
          "type": "uint256"
        }
      ],
      "name": "withdrawKitten",
      "outputs": [],
      "stateMutability": "nonpayable",
      "type": "function"
    }
  ],
  "bytecode": "0x6080604052600160035573fd211f3b016a75bc8d73550ac5adc2f1cae780c0600560006101000a81548173ffffffffffffffffffffffffffffffffffffffff021916908373ffffffffffffffffffffffffffffffffffffffff16021790555034801561006a57600080fd5b50604051610c98380380610c98833981810160405281019061008c9190610129565b33600460006101000a81548173ffffffffffffffffffffffffffffffffffffffff021916908373ffffffffffffffffffffffffffffffffffffffff16021790555080600560006101000a81548173ffffffffffffffffffffffffffffffffffffffff021916908373ffffffffffffffffffffffffffffffffffffffff1602179055505061019b565b60008151905061012381610184565b92915050565b60006020828403121561013b57600080fd5b600061014984828501610114565b91505092915050565b600061015d82610164565b9050919050565b600073ffffffffffffffffffffffffffffffffffffffff82169050919050565b61018d81610152565b811461019857600080fd5b50565b610aee806101aa6000396000f3fe608060405234801561001057600080fd5b50600436106100935760003560e01c8063827c049e11610066578063827c049e14610158578063a07d797214610176578063c63cc710146101a6578063c6d74633146101d6578063ddce102f146101f257610093565b8063150b7a02146100985780632b4ffec5146100c85780636352211e146100f85780637fec98c314610128575b600080fd5b6100b260048036038101906100ad91906106f9565b61020e565b6040516100bf9190610890565b60405180910390f35b6100e260048036038101906100dd9190610779565b610275565b6040516100ef91906108eb565b60405180910390f35b610112600480360381019061010d9190610779565b61028d565b60405161011f9190610815565b60405180910390f35b610142600480360381019061013d9190610779565b6102c0565b60405161014f91906108eb565b60405180910390f35b6101606102d8565b60405161016d91906108eb565b60405180910390f35b610190600480360381019061018b9190610779565b6102de565b60405161019d91906108eb565b60405180910390f35b6101c060048036038101906101bb9190610779565b61045f565b6040516101cd91906108eb565b60405180910390f35b6101f060048036038101906101eb9190610779565b61047b565b005b61020c60048036038101906102079190610779565b610621565b005b6000846001600086815260200190815260200160002060006101000a81548173ffffffffffffffffffffffffffffffffffffffff021916908373ffffffffffffffffffffffffffffffffffffffff16021790555063150b7a0260e01b905095945050505050565b60006020528060005260406000206000915090505481565b60016020528060005260406000206000915054906101000a900473ffffffffffffffffffffffffffffffffffffffff1681565b60026020528060005260406000206000915090505481565b60035481565b60006001600083815260200190815260200160002060009054906101000a900473ffffffffffffffffffffffffffffffffffffffff1673ffffffffffffffffffffffffffffffffffffffff163373ffffffffffffffffffffffffffffffffffffffff1614610381576040517f08c379a0000000000000000000000000000000000000000000000000000000008152600401610378906108ab565b60405180910390fd5b6000600260008481526020019081526020016000205414806103c45750620151806002600084815260200190815260200160002054426103c1919061096d565b10155b610403576040517f08c379a00000000000000000000000000000000000000000000000000000000081526004016103fa906108cb565b60405180910390fd5b600160008084815260200190815260200160002060008282546104269190610917565b92505081905550426002600084815260200190815260200160002081905550600080838152602001908152602001600020549050919050565b6000806000838152602001908152602001600020549050919050565b3373ffffffffffffffffffffffffffffffffffffffff166001600083815260200190815260200160002060009054906101000a900473ffffffffffffffffffffffffffffffffffffffff1673ffffffffffffffffffffffffffffffffffffffff16146104e657600080fd5b600080600083815260200190815260200160002081905550600560009054906101000a900473ffffffffffffffffffffffffffffffffffffffff1673ffffffffffffffffffffffffffffffffffffffff1663095ea7b333836040518363ffffffff1660e01b815260040161055b929190610867565b600060405180830381600087803b15801561057557600080fd5b505af1158015610589573d6000803e3d6000fd5b50505050600560009054906101000a900473ffffffffffffffffffffffffffffffffffffffff1673ffffffffffffffffffffffffffffffffffffffff166342842e0e3033846040518463ffffffff1660e01b81526004016105ec93929190610830565b600060405180830381600087803b15801561060657600080fd5b505af115801561061a573d6000803e3d6000fd5b5050505050565b600460009054906101000a900473ffffffffffffffffffffffffffffffffffffffff1673ffffffffffffffffffffffffffffffffffffffff163373ffffffffffffffffffffffffffffffffffffffff161461067b57600080fd5b8060038190555050565b60008135905061069481610a8a565b92915050565b60008083601f8401126106ac57600080fd5b8235905067ffffffffffffffff8111156106c557600080fd5b6020830191508360018202830111156106dd57600080fd5b9250929050565b6000813590506106f381610aa1565b92915050565b60008060008060006080868803121561071157600080fd5b600061071f88828901610685565b955050602061073088828901610685565b9450506040610741888289016106e4565b935050606086013567ffffffffffffffff81111561075e57600080fd5b61076a8882890161069a565b92509250509295509295909350565b60006020828403121561078b57600080fd5b6000610799848285016106e4565b91505092915050565b6107ab816109a1565b82525050565b6107ba816109b3565b82525050565b60006107cd600a83610906565b91506107d882610a38565b602082019050919050565b60006107f0601a83610906565b91506107fb82610a61565b602082019050919050565b61080f816109ff565b82525050565b600060208201905061082a60008301846107a2565b92915050565b600060608201905061084560008301866107a2565b61085260208301856107a2565b61085f6040830184610806565b949350505050565b600060408201905061087c60008301856107a2565b6108896020830184610806565b9392505050565b60006020820190506108a560008301846107b1565b92915050565b600060208201905081810360008301526108c4816107c0565b9050919050565b600060208201905081810360008301526108e4816107e3565b9050919050565b60006020820190506109006000830184610806565b92915050565b600082825260208201905092915050565b6000610922826109ff565b915061092d836109ff565b9250827fffffffffffffffffffffffffffffffffffffffffffffffffffffffffffffffff0382111561096257610961610a09565b5b828201905092915050565b6000610978826109ff565b9150610983836109ff565b92508282101561099657610995610a09565b5b828203905092915050565b60006109ac826109df565b9050919050565b60007fffffffff0000000000000000000000000000000000000000000000000000000082169050919050565b600073ffffffffffffffffffffffffffffffffffffffff82169050919050565b6000819050919050565b7f4e487b7100000000000000000000000000000000000000000000000000000000600052601160045260246000fd5b7f4f6e6c79206f776e657200000000000000000000000000000000000000000000600082015250565b7f43616e6e6f742063616c6c20747769636520696e206120646179000000000000600082015250565b610a93816109a1565b8114610a9e57600080fd5b50565b610aaa816109ff565b8114610ab557600080fd5b5056fea2646970667358221220ed7e4817e83a17cdb8dcc9094c7f6963bf70f7288002b66e13d0e6b3b3ba6bc864736f6c63430008040033",
  "linkReferences": {},
  "deployedLinkReferences": {}
}