{
  "_format": "hh-sol-artifact-1",
  "contractName": "KittenNameService",
  "sourceName": "contracts/KittenNameService.sol",
  "abi": [
    {
      "inputs": [
        {
          "internalType": "address",
          "name": "kittensAddress",
          "type": "address"
        },
        {
          "internalType": "address",
          "name": "affinityAddress",
          "type": "address"
        }
      ],
      "stateMutability": "nonpayable",
      "type": "constructor"
    },
    {
      "inputs": [
        {
          "internalType": "uint256",
          "name": "",
          "type": "uint256"
        }
      ],
      "name": "names",
      "outputs": [
        {
          "internalType": "string",
          "name": "",
          "type": "string"
        }
      ],
      "stateMutability": "view",
      "type": "function"
    },
    {
      "inputs": [
        {
          "internalType": "uint256",
          "name": "kittenId",
          "type": "uint256"
        },
        {
          "internalType": "string",
          "name": "newKittenName",
          "type": "string"
        }
      ],
      "name": "setKittenName",
      "outputs": [],
      "stateMutability": "nonpayable",
      "type": "function"
    },
    {
      "inputs": [
        {
          "internalType": "address",
          "name": "addr",
          "type": "address"
        }
      ],
      "name": "setKittensAddress",
      "outputs": [],
      "stateMutability": "nonpayable",
      "type": "function"
    }
  ],
  "bytecode": "0x6080604052600160025573fd211f3b016a75bc8d73550ac5adc2f1cae780c0600360006101000a81548173ffffffffffffffffffffffffffffffffffffffff021916908373ffffffffffffffffffffffffffffffffffffffff16021790555034801561006a57600080fd5b50604051610e4d380380610e4d833981810160405281019061008c919061016b565b33600160006101000a81548173ffffffffffffffffffffffffffffffffffffffff021916908373ffffffffffffffffffffffffffffffffffffffff16021790555081600360006101000a81548173ffffffffffffffffffffffffffffffffffffffff021916908373ffffffffffffffffffffffffffffffffffffffff16021790555080600460006101000a81548173ffffffffffffffffffffffffffffffffffffffff021916908373ffffffffffffffffffffffffffffffffffffffff16021790555050506101f0565b600081519050610165816101d9565b92915050565b6000806040838503121561017e57600080fd5b600061018c85828601610156565b925050602061019d85828601610156565b9150509250929050565b60006101b2826101b9565b9050919050565b600073ffffffffffffffffffffffffffffffffffffffff82169050919050565b6101e2816101a7565b81146101ed57600080fd5b50565b610c4e806101ff6000396000f3fe608060405234801561001057600080fd5b50600436106100415760003560e01c80634622ab03146100465780638b20168714610076578063adf5138114610092575b600080fd5b610060600480360381019061005b919061074d565b6100ae565b60405161006d91906108c7565b60405180910390f35b610090600480360381019061008b919061079f565b61014e565b005b6100ac60048036038101906100a791906106fb565b6104c8565b005b600060205280600052604060002060009150905080546100cd90610a74565b80601f01602080910402602001604051908101604052809291908181526020018280546100f990610a74565b80156101465780601f1061011b57610100808354040283529160200191610146565b820191906000526020600020905b81548152906001019060200180831161012957829003601f168201915b505050505081565b600460009054906101000a900473ffffffffffffffffffffffffffffffffffffffff1673ffffffffffffffffffffffffffffffffffffffff16600360009054906101000a900473ffffffffffffffffffffffffffffffffffffffff1673ffffffffffffffffffffffffffffffffffffffff16636352211e846040518263ffffffff1660e01b81526004016101e29190610969565b60206040518083038186803b1580156101fa57600080fd5b505afa15801561020e573d6000803e3d6000fd5b505050506040513d601f19601f820116820180604052508101906102329190610724565b73ffffffffffffffffffffffffffffffffffffffff1614610288576040517f08c379a000000000000000000000000000000000000000000000000000000000815260040161027f90610929565b60405180910390fd5b3373ffffffffffffffffffffffffffffffffffffffff16600460009054906101000a900473ffffffffffffffffffffffffffffffffffffffff1673ffffffffffffffffffffffffffffffffffffffff16636352211e846040518263ffffffff1660e01b81526004016102fa9190610969565b60206040518083038186803b15801561031257600080fd5b505afa158015610326573d6000803e3d6000fd5b505050506040513d601f19601f8201168201806040525081019061034a9190610724565b73ffffffffffffffffffffffffffffffffffffffff16146103a0576040517f08c379a000000000000000000000000000000000000000000000000000000000815260040161039790610909565b60405180910390fd5b600254600460009054906101000a900473ffffffffffffffffffffffffffffffffffffffff1673ffffffffffffffffffffffffffffffffffffffff1663c63cc710846040518263ffffffff1660e01b81526004016103fe9190610969565b60206040518083038186803b15801561041657600080fd5b505afa15801561042a573d6000803e3d6000fd5b505050506040513d601f19601f8201168201806040525081019061044e9190610776565b101561045957600080fd5b601081511061049d576040517f08c379a000000000000000000000000000000000000000000000000000000000815260040161049490610949565b60405180910390fd5b8060008084815260200190815260200160002090805190602001906104c392919061059c565b505050565b600160009054906101000a900473ffffffffffffffffffffffffffffffffffffffff1673ffffffffffffffffffffffffffffffffffffffff163373ffffffffffffffffffffffffffffffffffffffff1614610558576040517f08c379a000000000000000000000000000000000000000000000000000000000815260040161054f906108e9565b60405180910390fd5b80600360006101000a81548173ffffffffffffffffffffffffffffffffffffffff021916908373ffffffffffffffffffffffffffffffffffffffff16021790555050565b8280546105a890610a74565b90600052602060002090601f0160209004810192826105ca5760008555610611565b82601f106105e357805160ff1916838001178555610611565b82800160010185558215610611579182015b828111156106105782518255916020019190600101906105f5565b5b50905061061e9190610622565b5090565b5b8082111561063b576000816000905550600101610623565b5090565b600061065261064d846109a9565b610984565b90508281526020810184848401111561066a57600080fd5b610675848285610a32565b509392505050565b60008135905061068c81610bea565b92915050565b6000815190506106a181610bea565b92915050565b600082601f8301126106b857600080fd5b81356106c884826020860161063f565b91505092915050565b6000813590506106e081610c01565b92915050565b6000815190506106f581610c01565b92915050565b60006020828403121561070d57600080fd5b600061071b8482850161067d565b91505092915050565b60006020828403121561073657600080fd5b600061074484828501610692565b91505092915050565b60006020828403121561075f57600080fd5b600061076d848285016106d1565b91505092915050565b60006020828403121561078857600080fd5b6000610796848285016106e6565b91505092915050565b600080604083850312156107b257600080fd5b60006107c0858286016106d1565b925050602083013567ffffffffffffffff8111156107dd57600080fd5b6107e9858286016106a7565b9150509250929050565b60006107fe826109da565b61080881856109e5565b9350610818818560208601610a41565b61082181610b35565b840191505092915050565b6000610839600a836109e5565b915061084482610b46565b602082019050919050565b600061085c601a836109e5565b915061086782610b6f565b602082019050919050565b600061087f6020836109e5565b915061088a82610b98565b602082019050919050565b60006108a2601b836109e5565b91506108ad82610bc1565b602082019050919050565b6108c181610a28565b82525050565b600060208201905081810360008301526108e181846107f3565b905092915050565b600060208201905081810360008301526109028161082c565b9050919050565b600060208201905081810360008301526109228161084f565b9050919050565b6000602082019050818103600083015261094281610872565b9050919050565b6000602082019050818103600083015261096281610895565b9050919050565b600060208201905061097e60008301846108b8565b92915050565b600061098e61099f565b905061099a8282610aa6565b919050565b6000604051905090565b600067ffffffffffffffff8211156109c4576109c3610b06565b5b6109cd82610b35565b9050602081019050919050565b600081519050919050565b600082825260208201905092915050565b6000610a0182610a08565b9050919050565b600073ffffffffffffffffffffffffffffffffffffffff82169050919050565b6000819050919050565b82818337600083830152505050565b60005b83811015610a5f578082015181840152602081019050610a44565b83811115610a6e576000848401525b50505050565b60006002820490506001821680610a8c57607f821691505b60208210811415610aa057610a9f610ad7565b5b50919050565b610aaf82610b35565b810181811067ffffffffffffffff82111715610ace57610acd610b06565b5b80604052505050565b7f4e487b7100000000000000000000000000000000000000000000000000000000600052602260045260246000fd5b7f4e487b7100000000000000000000000000000000000000000000000000000000600052604160045260246000fd5b6000601f19601f8301169050919050565b7f4f6e6c79206f776e657200000000000000000000000000000000000000000000600082015250565b7f596f7520646f206e6f74206f776e2074686973206b697474656e000000000000600082015250565b7f4b697474656e206973206e6f74206c6f636b656420696e20416666696e697479600082015250565b7f4d6178206e616d65206c656e6774682069732031352063686172730000000000600082015250565b610bf3816109f6565b8114610bfe57600080fd5b50565b610c0a81610a28565b8114610c1557600080fd5b5056fea2646970667358221220f0536a8a397596c0f3c948e04fdbbc2856f2c478ff3791ad69813bd0f0ab583364736f6c63430008040033",
  "linkReferences": {},
  "deployedLinkReferences": {}
}