{
  "_format": "hh-sol-artifact-1",
  "contractName": "KittenNameService",
  "sourceName": "contracts/KittenNameService.sol",
  "abi": [
    {
      "inputs": [],
      "stateMutability": "nonpayable",
      "type": "constructor"
    },
    {
      "inputs": [
        {
          "internalType": "uint256",
          "name": "",
          "type": "uint256"
        }
      ],
      "name": "names",
      "outputs": [
        {
          "internalType": "string",
          "name": "",
          "type": "string"
        }
      ],
      "stateMutability": "view",
      "type": "function"
    },
    {
      "inputs": [
        {
          "internalType": "uint256",
          "name": "kittenId",
          "type": "uint256"
        },
        {
          "internalType": "string",
          "name": "newKittenName",
          "type": "string"
        }
      ],
      "name": "setKittenName",
      "outputs": [],
      "stateMutability": "nonpayable",
      "type": "function"
    },
    {
      "inputs": [
        {
          "internalType": "address",
          "name": "addr",
          "type": "address"
        }
      ],
      "name": "setKittensAddress",
      "outputs": [],
      "stateMutability": "nonpayable",
      "type": "function"
    }
  ],
  "bytecode": "0x608060405273fd211f3b016a75bc8d73550ac5adc2f1cae780c0600260006101000a81548173ffffffffffffffffffffffffffffffffffffffff021916908373ffffffffffffffffffffffffffffffffffffffff16021790555034801561006557600080fd5b5033600160006101000a81548173ffffffffffffffffffffffffffffffffffffffff021916908373ffffffffffffffffffffffffffffffffffffffff160217905550610901806100b66000396000f3fe608060405234801561001057600080fd5b50600436106100415760003560e01c80634622ab03146100465780638b20168714610076578063adf5138114610092575b600080fd5b610060600480360381019061005b9190610501565b6100ae565b60405161006d919061060c565b60405180910390f35b610090600480360381019061008b919061052a565b61014e565b005b6100ac60048036038101906100a791906104af565b610291565b005b600060205280600052604060002060009150905080546100cd90610779565b80601f01602080910402602001604051908101604052809291908181526020018280546100f990610779565b80156101465780601f1061011b57610100808354040283529160200191610146565b820191906000526020600020905b81548152906001019060200180831161012957829003601f168201915b505050505081565b3373ffffffffffffffffffffffffffffffffffffffff16600260009054906101000a900473ffffffffffffffffffffffffffffffffffffffff1673ffffffffffffffffffffffffffffffffffffffff16636352211e846040518263ffffffff1660e01b81526004016101c0919061066e565b60206040518083038186803b1580156101d857600080fd5b505afa1580156101ec573d6000803e3d6000fd5b505050506040513d601f19601f8201168201806040525081019061021091906104d8565b73ffffffffffffffffffffffffffffffffffffffff1614610266576040517f08c379a000000000000000000000000000000000000000000000000000000000815260040161025d9061064e565b60405180910390fd5b80600080848152602001908152602001600020908051906020019061028c929190610365565b505050565b600160009054906101000a900473ffffffffffffffffffffffffffffffffffffffff1673ffffffffffffffffffffffffffffffffffffffff163373ffffffffffffffffffffffffffffffffffffffff1614610321576040517f08c379a00000000000000000000000000000000000000000000000000000000081526004016103189061062e565b60405180910390fd5b80600260006101000a81548173ffffffffffffffffffffffffffffffffffffffff021916908373ffffffffffffffffffffffffffffffffffffffff16021790555050565b82805461037190610779565b90600052602060002090601f01602090048101928261039357600085556103da565b82601f106103ac57805160ff19168380011785556103da565b828001600101855582156103da579182015b828111156103d95782518255916020019190600101906103be565b5b5090506103e791906103eb565b5090565b5b808211156104045760008160009055506001016103ec565b5090565b600061041b610416846106ae565b610689565b90508281526020810184848401111561043357600080fd5b61043e848285610737565b509392505050565b6000813590506104558161089d565b92915050565b60008151905061046a8161089d565b92915050565b600082601f83011261048157600080fd5b8135610491848260208601610408565b91505092915050565b6000813590506104a9816108b4565b92915050565b6000602082840312156104c157600080fd5b60006104cf84828501610446565b91505092915050565b6000602082840312156104ea57600080fd5b60006104f88482850161045b565b91505092915050565b60006020828403121561051357600080fd5b60006105218482850161049a565b91505092915050565b6000806040838503121561053d57600080fd5b600061054b8582860161049a565b925050602083013567ffffffffffffffff81111561056857600080fd5b61057485828601610470565b9150509250929050565b6000610589826106df565b61059381856106ea565b93506105a3818560208601610746565b6105ac8161083a565b840191505092915050565b60006105c4600a836106ea565b91506105cf8261084b565b602082019050919050565b60006105e7601a836106ea565b91506105f282610874565b602082019050919050565b6106068161072d565b82525050565b60006020820190508181036000830152610626818461057e565b905092915050565b60006020820190508181036000830152610647816105b7565b9050919050565b60006020820190508181036000830152610667816105da565b9050919050565b600060208201905061068360008301846105fd565b92915050565b60006106936106a4565b905061069f82826107ab565b919050565b6000604051905090565b600067ffffffffffffffff8211156106c9576106c861080b565b5b6106d28261083a565b9050602081019050919050565b600081519050919050565b600082825260208201905092915050565b60006107068261070d565b9050919050565b600073ffffffffffffffffffffffffffffffffffffffff82169050919050565b6000819050919050565b82818337600083830152505050565b60005b83811015610764578082015181840152602081019050610749565b83811115610773576000848401525b50505050565b6000600282049050600182168061079157607f821691505b602082108114156107a5576107a46107dc565b5b50919050565b6107b48261083a565b810181811067ffffffffffffffff821117156107d3576107d261080b565b5b80604052505050565b7f4e487b7100000000000000000000000000000000000000000000000000000000600052602260045260246000fd5b7f4e487b7100000000000000000000000000000000000000000000000000000000600052604160045260246000fd5b6000601f19601f8301169050919050565b7f4f6e6c79206f776e657200000000000000000000000000000000000000000000600082015250565b7f596f7520646f206e6f74206f776e2074686973206b697474656e000000000000600082015250565b6108a6816106fb565b81146108b157600080fd5b50565b6108bd8161072d565b81146108c857600080fd5b5056fea26469706673582212201e2835f5a130502a13cbf1a4085c5cd72323a5b152eb205a5971ec6b364052f464736f6c63430008040033",
  "linkReferences": {},
  "deployedLinkReferences": {}
}