{
  "_format": "hh-sol-artifact-1",
  "contractName": "FantomKittens",
  "sourceName": "contracts/FantomKittens.sol",
  "abi": [
    {
      "inputs": [],
      "stateMutability": "nonpayable",
      "type": "constructor"
    },
    {
      "anonymous": false,
      "inputs": [
        {
          "indexed": true,
          "internalType": "address",
          "name": "owner",
          "type": "address"
        },
        {
          "indexed": true,
          "internalType": "address",
          "name": "approved",
          "type": "address"
        },
        {
          "indexed": true,
          "internalType": "uint256",
          "name": "tokenId",
          "type": "uint256"
        }
      ],
      "name": "Approval",
      "type": "event"
    },
    {
      "anonymous": false,
      "inputs": [
        {
          "indexed": true,
          "internalType": "address",
          "name": "owner",
          "type": "address"
        },
        {
          "indexed": true,
          "internalType": "address",
          "name": "operator",
          "type": "address"
        },
        {
          "indexed": false,
          "internalType": "bool",
          "name": "approved",
          "type": "bool"
        }
      ],
      "name": "ApprovalForAll",
      "type": "event"
    },
    {
      "anonymous": false,
      "inputs": [
        {
          "indexed": true,
          "internalType": "address",
          "name": "previousOwner",
          "type": "address"
        },
        {
          "indexed": true,
          "internalType": "address",
          "name": "newOwner",
          "type": "address"
        }
      ],
      "name": "OwnershipTransferred",
      "type": "event"
    },
    {
      "anonymous": false,
      "inputs": [
        {
          "indexed": true,
          "internalType": "address",
          "name": "from",
          "type": "address"
        },
        {
          "indexed": true,
          "internalType": "address",
          "name": "to",
          "type": "address"
        },
        {
          "indexed": true,
          "internalType": "uint256",
          "name": "tokenId",
          "type": "uint256"
        }
      ],
      "name": "Transfer",
      "type": "event"
    },
    {
      "inputs": [
        {
          "internalType": "address",
          "name": "to",
          "type": "address"
        },
        {
          "internalType": "uint256",
          "name": "tokenId",
          "type": "uint256"
        }
      ],
      "name": "approve",
      "outputs": [],
      "stateMutability": "nonpayable",
      "type": "function"
    },
    {
      "inputs": [
        {
          "internalType": "address",
          "name": "owner",
          "type": "address"
        }
      ],
      "name": "balanceOf",
      "outputs": [
        {
          "internalType": "uint256",
          "name": "",
          "type": "uint256"
        }
      ],
      "stateMutability": "view",
      "type": "function"
    },
    {
      "inputs": [],
      "name": "claim",
      "outputs": [],
      "stateMutability": "payable",
      "type": "function"
    },
    {
      "inputs": [],
      "name": "depositAddress",
      "outputs": [
        {
          "internalType": "address payable",
          "name": "",
          "type": "address"
        }
      ],
      "stateMutability": "view",
      "type": "function"
    },
    {
      "inputs": [
        {
          "internalType": "uint256",
          "name": "tokenId",
          "type": "uint256"
        }
      ],
      "name": "getApproved",
      "outputs": [
        {
          "internalType": "address",
          "name": "",
          "type": "address"
        }
      ],
      "stateMutability": "view",
      "type": "function"
    },
    {
      "inputs": [
        {
          "internalType": "address",
          "name": "owner",
          "type": "address"
        },
        {
          "internalType": "address",
          "name": "operator",
          "type": "address"
        }
      ],
      "name": "isApprovedForAll",
      "outputs": [
        {
          "internalType": "bool",
          "name": "",
          "type": "bool"
        }
      ],
      "stateMutability": "view",
      "type": "function"
    },
    {
      "inputs": [],
      "name": "maxMintable",
      "outputs": [
        {
          "internalType": "uint256",
          "name": "",
          "type": "uint256"
        }
      ],
      "stateMutability": "view",
      "type": "function"
    },
    {
      "inputs": [],
      "name": "name",
      "outputs": [
        {
          "internalType": "string",
          "name": "",
          "type": "string"
        }
      ],
      "stateMutability": "view",
      "type": "function"
    },
    {
      "inputs": [],
      "name": "owner",
      "outputs": [
        {
          "internalType": "address",
          "name": "",
          "type": "address"
        }
      ],
      "stateMutability": "view",
      "type": "function"
    },
    {
      "inputs": [
        {
          "internalType": "uint256",
          "name": "tokenId",
          "type": "uint256"
        }
      ],
      "name": "ownerOf",
      "outputs": [
        {
          "internalType": "address",
          "name": "",
          "type": "address"
        }
      ],
      "stateMutability": "view",
      "type": "function"
    },
    {
      "inputs": [],
      "name": "renounceOwnership",
      "outputs": [],
      "stateMutability": "nonpayable",
      "type": "function"
    },
    {
      "inputs": [
        {
          "internalType": "address",
          "name": "from",
          "type": "address"
        },
        {
          "internalType": "address",
          "name": "to",
          "type": "address"
        },
        {
          "internalType": "uint256",
          "name": "tokenId",
          "type": "uint256"
        }
      ],
      "name": "safeTransferFrom",
      "outputs": [],
      "stateMutability": "nonpayable",
      "type": "function"
    },
    {
      "inputs": [
        {
          "internalType": "address",
          "name": "from",
          "type": "address"
        },
        {
          "internalType": "address",
          "name": "to",
          "type": "address"
        },
        {
          "internalType": "uint256",
          "name": "tokenId",
          "type": "uint256"
        },
        {
          "internalType": "bytes",
          "name": "_data",
          "type": "bytes"
        }
      ],
      "name": "safeTransferFrom",
      "outputs": [],
      "stateMutability": "nonpayable",
      "type": "function"
    },
    {
      "inputs": [
        {
          "internalType": "address",
          "name": "operator",
          "type": "address"
        },
        {
          "internalType": "bool",
          "name": "approved",
          "type": "bool"
        }
      ],
      "name": "setApprovalForAll",
      "outputs": [],
      "stateMutability": "nonpayable",
      "type": "function"
    },
    {
      "inputs": [
        {
          "internalType": "address payable",
          "name": "to",
          "type": "address"
        }
      ],
      "name": "setDepositAddress",
      "outputs": [],
      "stateMutability": "nonpayable",
      "type": "function"
    },
    {
      "inputs": [
        {
          "internalType": "bytes4",
          "name": "interfaceId",
          "type": "bytes4"
        }
      ],
      "name": "supportsInterface",
      "outputs": [
        {
          "internalType": "bool",
          "name": "",
          "type": "bool"
        }
      ],
      "stateMutability": "view",
      "type": "function"
    },
    {
      "inputs": [],
      "name": "symbol",
      "outputs": [
        {
          "internalType": "string",
          "name": "",
          "type": "string"
        }
      ],
      "stateMutability": "view",
      "type": "function"
    },
    {
      "inputs": [
        {
          "internalType": "uint256",
          "name": "index",
          "type": "uint256"
        }
      ],
      "name": "tokenByIndex",
      "outputs": [
        {
          "internalType": "uint256",
          "name": "",
          "type": "uint256"
        }
      ],
      "stateMutability": "view",
      "type": "function"
    },
    {
      "inputs": [
        {
          "internalType": "address",
          "name": "owner",
          "type": "address"
        },
        {
          "internalType": "uint256",
          "name": "index",
          "type": "uint256"
        }
      ],
      "name": "tokenOfOwnerByIndex",
      "outputs": [
        {
          "internalType": "uint256",
          "name": "",
          "type": "uint256"
        }
      ],
      "stateMutability": "view",
      "type": "function"
    },
    {
      "inputs": [
        {
          "internalType": "uint256",
          "name": "tokenId",
          "type": "uint256"
        }
      ],
      "name": "tokenURI",
      "outputs": [
        {
          "internalType": "string",
          "name": "",
          "type": "string"
        }
      ],
      "stateMutability": "view",
      "type": "function"
    },
    {
      "inputs": [],
      "name": "totalSupply",
      "outputs": [
        {
          "internalType": "uint256",
          "name": "",
          "type": "uint256"
        }
      ],
      "stateMutability": "view",
      "type": "function"
    },
    {
      "inputs": [
        {
          "internalType": "address",
          "name": "from",
          "type": "address"
        },
        {
          "internalType": "address",
          "name": "to",
          "type": "address"
        },
        {
          "internalType": "uint256",
          "name": "tokenId",
          "type": "uint256"
        }
      ],
      "name": "transferFrom",
      "outputs": [],
      "stateMutability": "nonpayable",
      "type": "function"
    },
    {
      "inputs": [
        {
          "internalType": "address",
          "name": "newOwner",
          "type": "address"
        }
      ],
      "name": "transferOwnership",
      "outputs": [],
      "stateMutability": "nonpayable",
      "type": "function"
    }
  ],
  "bytecode": "0x608060405273c748e6de30222f4e9bc01812860ff005a82543e6600d60006101000a81548173ffffffffffffffffffffffffffffffffffffffff021916908373ffffffffffffffffffffffffffffffffffffffff1602179055506101a4600e553480156200006c57600080fd5b506040518060400160405280600d81526020017f46616e746f6d4b697474656e73000000000000000000000000000000000000008152506040518060400160405280600681526020017f4b495454454e00000000000000000000000000000000000000000000000000008152508160009080519060200190620000f192919062000201565b5080600190805190602001906200010a92919062000201565b5050506200012d620001216200013360201b60201c565b6200013b60201b60201c565b62000316565b600033905090565b6000600b60009054906101000a900473ffffffffffffffffffffffffffffffffffffffff16905081600b60006101000a81548173ffffffffffffffffffffffffffffffffffffffff021916908373ffffffffffffffffffffffffffffffffffffffff1602179055508173ffffffffffffffffffffffffffffffffffffffff168173ffffffffffffffffffffffffffffffffffffffff167f8be0079c531659141344cd1fd0a4f28419497f9722a3daafe3b4186f6b6457e060405160405180910390a35050565b8280546200020f90620002b1565b90600052602060002090601f0160209004810192826200023357600085556200027f565b82601f106200024e57805160ff19168380011785556200027f565b828001600101855582156200027f579182015b828111156200027e57825182559160200191906001019062000261565b5b5090506200028e919062000292565b5090565b5b80821115620002ad57600081600090555060010162000293565b5090565b60006002820490506001821680620002ca57607f821691505b60208210811415620002e157620002e0620002e7565b5b50919050565b7f4e487b7100000000000000000000000000000000000000000000000000000000600052602260045260246000fd5b613a5580620003266000396000f3fe6080604052600436106101405760003560e01c80634f6ccce7116100b6578063a22cb4651161006f578063a22cb46514610451578063ab18af271461047a578063b88d4fde146104a3578063c87b56dd146104cc578063e985e9c514610509578063f2fde38b1461054657610140565b80634f6ccce71461032d5780636352211e1461036a57806370a08231146103a7578063715018a6146103e45780638da5cb5b146103fb57806395d89b411461042657610140565b80632154dc39116101085780632154dc391461023e57806323b872dd1461026957806328f833b7146102925780632f745c59146102bd57806342842e0e146102fa5780634e71d92d1461032357610140565b806301ffc9a71461014557806306fdde0314610182578063081812fc146101ad578063095ea7b3146101ea57806318160ddd14610213575b600080fd5b34801561015157600080fd5b5061016c6004803603810190610167919061284c565b61056f565b6040516101799190612d2b565b60405180910390f35b34801561018e57600080fd5b50610197610581565b6040516101a49190612d46565b60405180910390f35b3480156101b957600080fd5b506101d460048036038101906101cf919061289e565b610613565b6040516101e19190612ca9565b60405180910390f35b3480156101f657600080fd5b50610211600480360381019061020c9190612810565b610698565b005b34801561021f57600080fd5b506102286107b0565b6040516102359190613008565b60405180910390f35b34801561024a57600080fd5b506102536107bd565b6040516102609190613008565b60405180910390f35b34801561027557600080fd5b50610290600480360381019061028b919061270a565b6107c3565b005b34801561029e57600080fd5b506102a7610823565b6040516102b49190612cc4565b60405180910390f35b3480156102c957600080fd5b506102e460048036038101906102df9190612810565b610849565b6040516102f19190613008565b60405180910390f35b34801561030657600080fd5b50610321600480360381019061031c919061270a565b6108ee565b005b61032b61090e565b005b34801561033957600080fd5b50610354600480360381019061034f919061289e565b610a45565b6040516103619190613008565b60405180910390f35b34801561037657600080fd5b50610391600480360381019061038c919061289e565b610adc565b60405161039e9190612ca9565b60405180910390f35b3480156103b357600080fd5b506103ce60048036038101906103c9919061267c565b610b8e565b6040516103db9190613008565b60405180910390f35b3480156103f057600080fd5b506103f9610c46565b005b34801561040757600080fd5b50610410610cce565b60405161041d9190612ca9565b60405180910390f35b34801561043257600080fd5b5061043b610cf8565b6040516104489190612d46565b60405180910390f35b34801561045d57600080fd5b50610478600480360381019061047391906127d4565b610d8a565b005b34801561048657600080fd5b506104a1600480360381019061049c91906126a5565b610f0b565b005b3480156104af57600080fd5b506104ca60048036038101906104c59190612759565b610fcb565b005b3480156104d857600080fd5b506104f360048036038101906104ee919061289e565b61102d565b6040516105009190612d46565b60405180910390f35b34801561051557600080fd5b50610530600480360381019061052b91906126ce565b61103f565b60405161053d9190612d2b565b60405180910390f35b34801561055257600080fd5b5061056d6004803603810190610568919061267c565b6110d3565b005b600061057a826111cb565b9050919050565b6060600080546105909061323f565b80601f01602080910402602001604051908101604052809291908181526020018280546105bc9061323f565b80156106095780601f106105de57610100808354040283529160200191610609565b820191906000526020600020905b8154815290600101906020018083116105ec57829003601f168201915b5050505050905090565b600061061e82611245565b61065d576040517f08c379a000000000000000000000000000000000000000000000000000000000815260040161065490612f28565b60405180910390fd5b6004600083815260200190815260200160002060009054906101000a900473ffffffffffffffffffffffffffffffffffffffff169050919050565b60006106a382610adc565b90508073ffffffffffffffffffffffffffffffffffffffff168373ffffffffffffffffffffffffffffffffffffffff161415610714576040517f08c379a000000000000000000000000000000000000000000000000000000000815260040161070b90612fa8565b60405180910390fd5b8073ffffffffffffffffffffffffffffffffffffffff166107336112b1565b73ffffffffffffffffffffffffffffffffffffffff16148061076257506107618161075c6112b1565b61103f565b5b6107a1576040517f08c379a000000000000000000000000000000000000000000000000000000000815260040161079890612e88565b60405180910390fd5b6107ab83836112b9565b505050565b6000600880549050905090565b600e5481565b6107d46107ce6112b1565b82611372565b610813576040517f08c379a000000000000000000000000000000000000000000000000000000000815260040161080a90612fc8565b60405180910390fd5b61081e838383611450565b505050565b600d60009054906101000a900473ffffffffffffffffffffffffffffffffffffffff1681565b600061085483610b8e565b8210610895576040517f08c379a000000000000000000000000000000000000000000000000000000000815260040161088c90612d68565b60405180910390fd5b600660008473ffffffffffffffffffffffffffffffffffffffff1673ffffffffffffffffffffffffffffffffffffffff168152602001908152602001600020600083815260200190815260200160002054905092915050565b61090983838360405180602001604052806000815250610fcb565b505050565b600061091a600c6116ac565b90506000673a4965bf58a40000905080341461096b576040517f08c379a000000000000000000000000000000000000000000000000000000000815260040161096290612e08565b60405180910390fd5b6001600e5461097a9190613143565b82106109bb576040517f08c379a00000000000000000000000000000000000000000000000000000000081526004016109b290612dc8565b60405180910390fd5b600d60009054906101000a900473ffffffffffffffffffffffffffffffffffffffff1673ffffffffffffffffffffffffffffffffffffffff166108fc829081150290604051600060405180830381858888f19350505050158015610a23573d6000803e3d6000fd5b50610a3733610a32600c6116ac565b6116ba565b610a41600c6116d8565b5050565b6000610a4f6107b0565b8210610a90576040517f08c379a0000000000000000000000000000000000000000000000000000000008152600401610a8790612fe8565b60405180910390fd5b60088281548110610aca577f4e487b7100000000000000000000000000000000000000000000000000000000600052603260045260246000fd5b90600052602060002001549050919050565b6000806002600084815260200190815260200160002060009054906101000a900473ffffffffffffffffffffffffffffffffffffffff169050600073ffffffffffffffffffffffffffffffffffffffff168173ffffffffffffffffffffffffffffffffffffffff161415610b85576040517f08c379a0000000000000000000000000000000000000000000000000000000008152600401610b7c90612ec8565b60405180910390fd5b80915050919050565b60008073ffffffffffffffffffffffffffffffffffffffff168273ffffffffffffffffffffffffffffffffffffffff161415610bff576040517f08c379a0000000000000000000000000000000000000000000000000000000008152600401610bf690612ea8565b60405180910390fd5b600360008373ffffffffffffffffffffffffffffffffffffffff1673ffffffffffffffffffffffffffffffffffffffff168152602001908152602001600020549050919050565b610c4e6112b1565b73ffffffffffffffffffffffffffffffffffffffff16610c6c610cce565b73ffffffffffffffffffffffffffffffffffffffff1614610cc2576040517f08c379a0000000000000000000000000000000000000000000000000000000008152600401610cb990612f48565b60405180910390fd5b610ccc60006116ee565b565b6000600b60009054906101000a900473ffffffffffffffffffffffffffffffffffffffff16905090565b606060018054610d079061323f565b80601f0160208091040260200160405190810160405280929190818152602001828054610d339061323f565b8015610d805780601f10610d5557610100808354040283529160200191610d80565b820191906000526020600020905b815481529060010190602001808311610d6357829003601f168201915b5050505050905090565b610d926112b1565b73ffffffffffffffffffffffffffffffffffffffff168273ffffffffffffffffffffffffffffffffffffffff161415610e00576040517f08c379a0000000000000000000000000000000000000000000000000000000008152600401610df790612e48565b60405180910390fd5b8060056000610e0d6112b1565b73ffffffffffffffffffffffffffffffffffffffff1673ffffffffffffffffffffffffffffffffffffffff16815260200190815260200160002060008473ffffffffffffffffffffffffffffffffffffffff1673ffffffffffffffffffffffffffffffffffffffff16815260200190815260200160002060006101000a81548160ff0219169083151502179055508173ffffffffffffffffffffffffffffffffffffffff16610eba6112b1565b73ffffffffffffffffffffffffffffffffffffffff167f17307eab39ab6107e8899845ad3d59bd9653f200f220920489ca2b5937696c3183604051610eff9190612d2b565b60405180910390a35050565b610f136112b1565b73ffffffffffffffffffffffffffffffffffffffff16610f31610cce565b73ffffffffffffffffffffffffffffffffffffffff1614610f87576040517f08c379a0000000000000000000000000000000000000000000000000000000008152600401610f7e90612f48565b60405180910390fd5b80600d60006101000a81548173ffffffffffffffffffffffffffffffffffffffff021916908373ffffffffffffffffffffffffffffffffffffffff16021790555050565b610fdc610fd66112b1565b83611372565b61101b576040517f08c379a000000000000000000000000000000000000000000000000000000000815260040161101290612fc8565b60405180910390fd5b611027848484846117b4565b50505050565b606061103882611810565b9050919050565b6000600560008473ffffffffffffffffffffffffffffffffffffffff1673ffffffffffffffffffffffffffffffffffffffff16815260200190815260200160002060008373ffffffffffffffffffffffffffffffffffffffff1673ffffffffffffffffffffffffffffffffffffffff16815260200190815260200160002060009054906101000a900460ff16905092915050565b6110db6112b1565b73ffffffffffffffffffffffffffffffffffffffff166110f9610cce565b73ffffffffffffffffffffffffffffffffffffffff161461114f576040517f08c379a000000000000000000000000000000000000000000000000000000000815260040161114690612f48565b60405180910390fd5b600073ffffffffffffffffffffffffffffffffffffffff168173ffffffffffffffffffffffffffffffffffffffff1614156111bf576040517f08c379a00000000000000000000000000000000000000000000000000000000081526004016111b690612da8565b60405180910390fd5b6111c8816116ee565b50565b60007f780e9d63000000000000000000000000000000000000000000000000000000007bffffffffffffffffffffffffffffffffffffffffffffffffffffffff1916827bffffffffffffffffffffffffffffffffffffffffffffffffffffffff1916148061123e575061123d82611962565b5b9050919050565b60008073ffffffffffffffffffffffffffffffffffffffff166002600084815260200190815260200160002060009054906101000a900473ffffffffffffffffffffffffffffffffffffffff1673ffffffffffffffffffffffffffffffffffffffff1614159050919050565b600033905090565b816004600083815260200190815260200160002060006101000a81548173ffffffffffffffffffffffffffffffffffffffff021916908373ffffffffffffffffffffffffffffffffffffffff160217905550808273ffffffffffffffffffffffffffffffffffffffff1661132c83610adc565b73ffffffffffffffffffffffffffffffffffffffff167f8c5be1e5ebec7d5bd14f71427d1e84f3dd0314c0f7b2291e5b200ac8c7c3b92560405160405180910390a45050565b600061137d82611245565b6113bc576040517f08c379a00000000000000000000000000000000000000000000000000000000081526004016113b390612e68565b60405180910390fd5b60006113c783610adc565b90508073ffffffffffffffffffffffffffffffffffffffff168473ffffffffffffffffffffffffffffffffffffffff16148061143657508373ffffffffffffffffffffffffffffffffffffffff1661141e84610613565b73ffffffffffffffffffffffffffffffffffffffff16145b806114475750611446818561103f565b5b91505092915050565b8273ffffffffffffffffffffffffffffffffffffffff1661147082610adc565b73ffffffffffffffffffffffffffffffffffffffff16146114c6576040517f08c379a00000000000000000000000000000000000000000000000000000000081526004016114bd90612f68565b60405180910390fd5b600073ffffffffffffffffffffffffffffffffffffffff168273ffffffffffffffffffffffffffffffffffffffff161415611536576040517f08c379a000000000000000000000000000000000000000000000000000000000815260040161152d90612e28565b60405180910390fd5b611541838383611a44565b61154c6000826112b9565b6001600360008573ffffffffffffffffffffffffffffffffffffffff1673ffffffffffffffffffffffffffffffffffffffff168152602001908152602001600020600082825461159c9190613143565b925050819055506001600360008473ffffffffffffffffffffffffffffffffffffffff1673ffffffffffffffffffffffffffffffffffffffff16815260200190815260200160002060008282546115f391906130bc565b92505081905550816002600083815260200190815260200160002060006101000a81548173ffffffffffffffffffffffffffffffffffffffff021916908373ffffffffffffffffffffffffffffffffffffffff160217905550808273ffffffffffffffffffffffffffffffffffffffff168473ffffffffffffffffffffffffffffffffffffffff167fddf252ad1be2c89b69c2b068fc378daa952ba7f163c4a11628f55a4df523b3ef60405160405180910390a4505050565b600081600001549050919050565b6116d4828260405180602001604052806000815250611a54565b5050565b6001816000016000828254019250508190555050565b6000600b60009054906101000a900473ffffffffffffffffffffffffffffffffffffffff16905081600b60006101000a81548173ffffffffffffffffffffffffffffffffffffffff021916908373ffffffffffffffffffffffffffffffffffffffff1602179055508173ffffffffffffffffffffffffffffffffffffffff168173ffffffffffffffffffffffffffffffffffffffff167f8be0079c531659141344cd1fd0a4f28419497f9722a3daafe3b4186f6b6457e060405160405180910390a35050565b6117bf848484611450565b6117cb84848484611aaf565b61180a576040517f08c379a000000000000000000000000000000000000000000000000000000000815260040161180190612d88565b60405180910390fd5b50505050565b606061181b82611245565b61185a576040517f08c379a000000000000000000000000000000000000000000000000000000000815260040161185190612f08565b60405180910390fd5b6000600a6000848152602001908152602001600020805461187a9061323f565b80601f01602080910402602001604051908101604052809291908181526020018280546118a69061323f565b80156118f35780601f106118c8576101008083540402835291602001916118f3565b820191906000526020600020905b8154815290600101906020018083116118d657829003601f168201915b505050505090506000611904611c46565b905060008151141561191a57819250505061195d565b60008251111561194f578082604051602001611937929190612c85565b6040516020818303038152906040529250505061195d565b61195884611c66565b925050505b919050565b60007f80ac58cd000000000000000000000000000000000000000000000000000000007bffffffffffffffffffffffffffffffffffffffffffffffffffffffff1916827bffffffffffffffffffffffffffffffffffffffffffffffffffffffff19161480611a2d57507f5b5e139f000000000000000000000000000000000000000000000000000000007bffffffffffffffffffffffffffffffffffffffffffffffffffffffff1916827bffffffffffffffffffffffffffffffffffffffffffffffffffffffff1916145b80611a3d5750611a3c82611d0d565b5b9050919050565b611a4f838383611d77565b505050565b611a5e8383611e8b565b611a6b6000848484611aaf565b611aaa576040517f08c379a0000000000000000000000000000000000000000000000000000000008152600401611aa190612d88565b60405180910390fd5b505050565b6000611ad08473ffffffffffffffffffffffffffffffffffffffff16612059565b15611c39578373ffffffffffffffffffffffffffffffffffffffff1663150b7a02611af96112b1565b8786866040518563ffffffff1660e01b8152600401611b1b9493929190612cdf565b602060405180830381600087803b158015611b3557600080fd5b505af1925050508015611b6657506040513d601f19601f82011682018060405250810190611b639190612875565b60015b611be9573d8060008114611b96576040519150601f19603f3d011682016040523d82523d6000602084013e611b9b565b606091505b50600081511415611be1576040517f08c379a0000000000000000000000000000000000000000000000000000000008152600401611bd890612d88565b60405180910390fd5b805181602001fd5b63150b7a0260e01b7bffffffffffffffffffffffffffffffffffffffffffffffffffffffff1916817bffffffffffffffffffffffffffffffffffffffffffffffffffffffff191614915050611c3e565b600190505b949350505050565b60606040518060600160405280602c81526020016139f4602c9139905090565b6060611c7182611245565b611cb0576040517f08c379a0000000000000000000000000000000000000000000000000000000008152600401611ca790612f88565b60405180910390fd5b6000611cba611c46565b90506000815111611cda5760405180602001604052806000815250611d05565b80611ce48461206c565b604051602001611cf5929190612c85565b6040516020818303038152906040525b915050919050565b60007f01ffc9a7000000000000000000000000000000000000000000000000000000007bffffffffffffffffffffffffffffffffffffffffffffffffffffffff1916827bffffffffffffffffffffffffffffffffffffffffffffffffffffffff1916149050919050565b611d82838383612219565b600073ffffffffffffffffffffffffffffffffffffffff168373ffffffffffffffffffffffffffffffffffffffff161415611dc557611dc08161221e565b611e04565b8173ffffffffffffffffffffffffffffffffffffffff168373ffffffffffffffffffffffffffffffffffffffff1614611e0357611e028382612267565b5b5b600073ffffffffffffffffffffffffffffffffffffffff168273ffffffffffffffffffffffffffffffffffffffff161415611e4757611e42816123d4565b611e86565b8273ffffffffffffffffffffffffffffffffffffffff168273ffffffffffffffffffffffffffffffffffffffff1614611e8557611e848282612517565b5b5b505050565b600073ffffffffffffffffffffffffffffffffffffffff168273ffffffffffffffffffffffffffffffffffffffff161415611efb576040517f08c379a0000000000000000000000000000000000000000000000000000000008152600401611ef290612ee8565b60405180910390fd5b611f0481611245565b15611f44576040517f08c379a0000000000000000000000000000000000000000000000000000000008152600401611f3b90612de8565b60405180910390fd5b611f5060008383611a44565b6001600360008473ffffffffffffffffffffffffffffffffffffffff1673ffffffffffffffffffffffffffffffffffffffff1681526020019081526020016000206000828254611fa091906130bc565b92505081905550816002600083815260200190815260200160002060006101000a81548173ffffffffffffffffffffffffffffffffffffffff021916908373ffffffffffffffffffffffffffffffffffffffff160217905550808273ffffffffffffffffffffffffffffffffffffffff16600073ffffffffffffffffffffffffffffffffffffffff167fddf252ad1be2c89b69c2b068fc378daa952ba7f163c4a11628f55a4df523b3ef60405160405180910390a45050565b600080823b905060008111915050919050565b606060008214156120b4576040518060400160405280600181526020017f30000000000000000000000000000000000000000000000000000000000000008152509050612214565b600082905060005b600082146120e65780806120cf906132a2565b915050600a826120df9190613112565b91506120bc565b60008167ffffffffffffffff811115612128577f4e487b7100000000000000000000000000000000000000000000000000000000600052604160045260246000fd5b6040519080825280601f01601f19166020018201604052801561215a5781602001600182028036833780820191505090505b5090505b6000851461220d576001826121739190613143565b9150600a8561218291906132eb565b603061218e91906130bc565b60f81b8183815181106121ca577f4e487b7100000000000000000000000000000000000000000000000000000000600052603260045260246000fd5b60200101907effffffffffffffffffffffffffffffffffffffffffffffffffffffffffffff1916908160001a905350600a856122069190613112565b945061215e565b8093505050505b919050565b505050565b6008805490506009600083815260200190815260200160002081905550600881908060018154018082558091505060019003906000526020600020016000909190919091505550565b6000600161227484610b8e565b61227e9190613143565b9050600060076000848152602001908152602001600020549050818114612363576000600660008673ffffffffffffffffffffffffffffffffffffffff1673ffffffffffffffffffffffffffffffffffffffff168152602001908152602001600020600084815260200190815260200160002054905080600660008773ffffffffffffffffffffffffffffffffffffffff1673ffffffffffffffffffffffffffffffffffffffff168152602001908152602001600020600084815260200190815260200160002081905550816007600083815260200190815260200160002081905550505b6007600084815260200190815260200160002060009055600660008573ffffffffffffffffffffffffffffffffffffffff1673ffffffffffffffffffffffffffffffffffffffff16815260200190815260200160002060008381526020019081526020016000206000905550505050565b600060016008805490506123e89190613143565b905060006009600084815260200190815260200160002054905060006008838154811061243e577f4e487b7100000000000000000000000000000000000000000000000000000000600052603260045260246000fd5b906000526020600020015490508060088381548110612486577f4e487b7100000000000000000000000000000000000000000000000000000000600052603260045260246000fd5b9060005260206000200181905550816009600083815260200190815260200160002081905550600960008581526020019081526020016000206000905560088054806124fb577f4e487b7100000000000000000000000000000000000000000000000000000000600052603160045260246000fd5b6001900381819060005260206000200160009055905550505050565b600061252283610b8e565b905081600660008573ffffffffffffffffffffffffffffffffffffffff1673ffffffffffffffffffffffffffffffffffffffff168152602001908152602001600020600083815260200190815260200160002081905550806007600084815260200190815260200160002081905550505050565b60006125a96125a484613048565b613023565b9050828152602081018484840111156125c157600080fd5b6125cc8482856131fd565b509392505050565b6000813590506125e381613980565b92915050565b6000813590506125f881613997565b92915050565b60008135905061260d816139ae565b92915050565b600081359050612622816139c5565b92915050565b600081519050612637816139c5565b92915050565b600082601f83011261264e57600080fd5b813561265e848260208601612596565b91505092915050565b600081359050612676816139dc565b92915050565b60006020828403121561268e57600080fd5b600061269c848285016125d4565b91505092915050565b6000602082840312156126b757600080fd5b60006126c5848285016125e9565b91505092915050565b600080604083850312156126e157600080fd5b60006126ef858286016125d4565b9250506020612700858286016125d4565b9150509250929050565b60008060006060848603121561271f57600080fd5b600061272d868287016125d4565b935050602061273e868287016125d4565b925050604061274f86828701612667565b9150509250925092565b6000806000806080858703121561276f57600080fd5b600061277d878288016125d4565b945050602061278e878288016125d4565b935050604061279f87828801612667565b925050606085013567ffffffffffffffff8111156127bc57600080fd5b6127c88782880161263d565b91505092959194509250565b600080604083850312156127e757600080fd5b60006127f5858286016125d4565b9250506020612806858286016125fe565b9150509250929050565b6000806040838503121561282357600080fd5b6000612831858286016125d4565b925050602061284285828601612667565b9150509250929050565b60006020828403121561285e57600080fd5b600061286c84828501612613565b91505092915050565b60006020828403121561288757600080fd5b600061289584828501612628565b91505092915050565b6000602082840312156128b057600080fd5b60006128be84828501612667565b91505092915050565b6128d081613189565b82525050565b6128df81613177565b82525050565b6128ee8161319b565b82525050565b60006128ff82613079565b612909818561308f565b935061291981856020860161320c565b612922816133d8565b840191505092915050565b600061293882613084565b61294281856130a0565b935061295281856020860161320c565b61295b816133d8565b840191505092915050565b600061297182613084565b61297b81856130b1565b935061298b81856020860161320c565b80840191505092915050565b60006129a4602b836130a0565b91506129af826133e9565b604082019050919050565b60006129c76032836130a0565b91506129d282613438565b604082019050919050565b60006129ea6026836130a0565b91506129f582613487565b604082019050919050565b6000612a0d601d836130a0565b9150612a18826134d6565b602082019050919050565b6000612a30601c836130a0565b9150612a3b826134ff565b602082019050919050565b6000612a53600e836130a0565b9150612a5e82613528565b602082019050919050565b6000612a766024836130a0565b9150612a8182613551565b604082019050919050565b6000612a996019836130a0565b9150612aa4826135a0565b602082019050919050565b6000612abc602c836130a0565b9150612ac7826135c9565b604082019050919050565b6000612adf6038836130a0565b9150612aea82613618565b604082019050919050565b6000612b02602a836130a0565b9150612b0d82613667565b604082019050919050565b6000612b256029836130a0565b9150612b30826136b6565b604082019050919050565b6000612b486020836130a0565b9150612b5382613705565b602082019050919050565b6000612b6b6031836130a0565b9150612b768261372e565b604082019050919050565b6000612b8e602c836130a0565b9150612b998261377d565b604082019050919050565b6000612bb16020836130a0565b9150612bbc826137cc565b602082019050919050565b6000612bd46029836130a0565b9150612bdf826137f5565b604082019050919050565b6000612bf7602f836130a0565b9150612c0282613844565b604082019050919050565b6000612c1a6021836130a0565b9150612c2582613893565b604082019050919050565b6000612c3d6031836130a0565b9150612c48826138e2565b604082019050919050565b6000612c60602c836130a0565b9150612c6b82613931565b604082019050919050565b612c7f816131f3565b82525050565b6000612c918285612966565b9150612c9d8284612966565b91508190509392505050565b6000602082019050612cbe60008301846128d6565b92915050565b6000602082019050612cd960008301846128c7565b92915050565b6000608082019050612cf460008301876128d6565b612d0160208301866128d6565b612d0e6040830185612c76565b8181036060830152612d2081846128f4565b905095945050505050565b6000602082019050612d4060008301846128e5565b92915050565b60006020820190508181036000830152612d60818461292d565b905092915050565b60006020820190508181036000830152612d8181612997565b9050919050565b60006020820190508181036000830152612da1816129ba565b9050919050565b60006020820190508181036000830152612dc1816129dd565b9050919050565b60006020820190508181036000830152612de181612a00565b9050919050565b60006020820190508181036000830152612e0181612a23565b9050919050565b60006020820190508181036000830152612e2181612a46565b9050919050565b60006020820190508181036000830152612e4181612a69565b9050919050565b60006020820190508181036000830152612e6181612a8c565b9050919050565b60006020820190508181036000830152612e8181612aaf565b9050919050565b60006020820190508181036000830152612ea181612ad2565b9050919050565b60006020820190508181036000830152612ec181612af5565b9050919050565b60006020820190508181036000830152612ee181612b18565b9050919050565b60006020820190508181036000830152612f0181612b3b565b9050919050565b60006020820190508181036000830152612f2181612b5e565b9050919050565b60006020820190508181036000830152612f4181612b81565b9050919050565b60006020820190508181036000830152612f6181612ba4565b9050919050565b60006020820190508181036000830152612f8181612bc7565b9050919050565b60006020820190508181036000830152612fa181612bea565b9050919050565b60006020820190508181036000830152612fc181612c0d565b9050919050565b60006020820190508181036000830152612fe181612c30565b9050919050565b6000602082019050818103600083015261300181612c53565b9050919050565b600060208201905061301d6000830184612c76565b92915050565b600061302d61303e565b90506130398282613271565b919050565b6000604051905090565b600067ffffffffffffffff821115613063576130626133a9565b5b61306c826133d8565b9050602081019050919050565b600081519050919050565b600081519050919050565b600082825260208201905092915050565b600082825260208201905092915050565b600081905092915050565b60006130c7826131f3565b91506130d2836131f3565b9250827fffffffffffffffffffffffffffffffffffffffffffffffffffffffffffffffff038211156131075761310661331c565b5b828201905092915050565b600061311d826131f3565b9150613128836131f3565b9250826131385761313761334b565b5b828204905092915050565b600061314e826131f3565b9150613159836131f3565b92508282101561316c5761316b61331c565b5b828203905092915050565b6000613182826131d3565b9050919050565b6000613194826131d3565b9050919050565b60008115159050919050565b60007fffffffff0000000000000000000000000000000000000000000000000000000082169050919050565b600073ffffffffffffffffffffffffffffffffffffffff82169050919050565b6000819050919050565b82818337600083830152505050565b60005b8381101561322a57808201518184015260208101905061320f565b83811115613239576000848401525b50505050565b6000600282049050600182168061325757607f821691505b6020821081141561326b5761326a61337a565b5b50919050565b61327a826133d8565b810181811067ffffffffffffffff82111715613299576132986133a9565b5b80604052505050565b60006132ad826131f3565b91507fffffffffffffffffffffffffffffffffffffffffffffffffffffffffffffffff8214156132e0576132df61331c565b5b600182019050919050565b60006132f6826131f3565b9150613301836131f3565b9250826133115761331061334b565b5b828206905092915050565b7f4e487b7100000000000000000000000000000000000000000000000000000000600052601160045260246000fd5b7f4e487b7100000000000000000000000000000000000000000000000000000000600052601260045260246000fd5b7f4e487b7100000000000000000000000000000000000000000000000000000000600052602260045260246000fd5b7f4e487b7100000000000000000000000000000000000000000000000000000000600052604160045260246000fd5b6000601f19601f8301169050919050565b7f455243373231456e756d657261626c653a206f776e657220696e646578206f7560008201527f74206f6620626f756e6473000000000000000000000000000000000000000000602082015250565b7f4552433732313a207472616e7366657220746f206e6f6e20455243373231526560008201527f63656976657220696d706c656d656e7465720000000000000000000000000000602082015250565b7f4f776e61626c653a206e6577206f776e657220697320746865207a65726f206160008201527f6464726573730000000000000000000000000000000000000000000000000000602082015250565b7f4e6f206d6f7265206b697474656e732061726520617661696c61626c65000000600082015250565b7f4552433732313a20746f6b656e20616c7265616479206d696e74656400000000600082015250565b7f496e76616c696420616d6f756e74000000000000000000000000000000000000600082015250565b7f4552433732313a207472616e7366657220746f20746865207a65726f2061646460008201527f7265737300000000000000000000000000000000000000000000000000000000602082015250565b7f4552433732313a20617070726f766520746f2063616c6c657200000000000000600082015250565b7f4552433732313a206f70657261746f7220717565727920666f72206e6f6e657860008201527f697374656e7420746f6b656e0000000000000000000000000000000000000000602082015250565b7f4552433732313a20617070726f76652063616c6c6572206973206e6f74206f7760008201527f6e6572206e6f7220617070726f76656420666f7220616c6c0000000000000000602082015250565b7f4552433732313a2062616c616e636520717565727920666f7220746865207a6560008201527f726f206164647265737300000000000000000000000000000000000000000000602082015250565b7f4552433732313a206f776e657220717565727920666f72206e6f6e657869737460008201527f656e7420746f6b656e0000000000000000000000000000000000000000000000602082015250565b7f4552433732313a206d696e7420746f20746865207a65726f2061646472657373600082015250565b7f45524337323155524953746f726167653a2055524920717565727920666f722060008201527f6e6f6e6578697374656e7420746f6b656e000000000000000000000000000000602082015250565b7f4552433732313a20617070726f76656420717565727920666f72206e6f6e657860008201527f697374656e7420746f6b656e0000000000000000000000000000000000000000602082015250565b7f4f776e61626c653a2063616c6c6572206973206e6f7420746865206f776e6572600082015250565b7f4552433732313a207472616e73666572206f6620746f6b656e2074686174206960008201527f73206e6f74206f776e0000000000000000000000000000000000000000000000602082015250565b7f4552433732314d657461646174613a2055524920717565727920666f72206e6f60008201527f6e6578697374656e7420746f6b656e0000000000000000000000000000000000602082015250565b7f4552433732313a20617070726f76616c20746f2063757272656e74206f776e6560008201527f7200000000000000000000000000000000000000000000000000000000000000602082015250565b7f4552433732313a207472616e736665722063616c6c6572206973206e6f74206f60008201527f776e6572206e6f7220617070726f766564000000000000000000000000000000602082015250565b7f455243373231456e756d657261626c653a20676c6f62616c20696e646578206f60008201527f7574206f6620626f756e64730000000000000000000000000000000000000000602082015250565b61398981613177565b811461399457600080fd5b50565b6139a081613189565b81146139ab57600080fd5b50565b6139b78161319b565b81146139c257600080fd5b50565b6139ce816131a7565b81146139d957600080fd5b50565b6139e5816131f3565b81146139f057600080fd5b5056fe68747470733a2f2f6b697474656e732e66616b65776f726d732e73747564696f2f6170692f6b697474656e2fa264697066735822122088c59f227dc1211532990714356c0abef5c20871d993892e8a1dcc061f6fcea964736f6c63430008040033",
  "linkReferences": {},
  "deployedLinkReferences": {}
}