{
  "_format": "hh-sol-artifact-1",
  "contractName": "FantomKittens",
  "sourceName": "contracts/FantomKittens.sol",
  "abi": [
    {
      "inputs": [],
      "stateMutability": "nonpayable",
      "type": "constructor"
    },
    {
      "anonymous": false,
      "inputs": [
        {
          "indexed": true,
          "internalType": "address",
          "name": "owner",
          "type": "address"
        },
        {
          "indexed": true,
          "internalType": "address",
          "name": "approved",
          "type": "address"
        },
        {
          "indexed": true,
          "internalType": "uint256",
          "name": "tokenId",
          "type": "uint256"
        }
      ],
      "name": "Approval",
      "type": "event"
    },
    {
      "anonymous": false,
      "inputs": [
        {
          "indexed": true,
          "internalType": "address",
          "name": "owner",
          "type": "address"
        },
        {
          "indexed": true,
          "internalType": "address",
          "name": "operator",
          "type": "address"
        },
        {
          "indexed": false,
          "internalType": "bool",
          "name": "approved",
          "type": "bool"
        }
      ],
      "name": "ApprovalForAll",
      "type": "event"
    },
    {
      "anonymous": false,
      "inputs": [
        {
          "indexed": true,
          "internalType": "address",
          "name": "previousOwner",
          "type": "address"
        },
        {
          "indexed": true,
          "internalType": "address",
          "name": "newOwner",
          "type": "address"
        }
      ],
      "name": "OwnershipTransferred",
      "type": "event"
    },
    {
      "anonymous": false,
      "inputs": [
        {
          "indexed": true,
          "internalType": "address",
          "name": "from",
          "type": "address"
        },
        {
          "indexed": true,
          "internalType": "address",
          "name": "to",
          "type": "address"
        },
        {
          "indexed": true,
          "internalType": "uint256",
          "name": "tokenId",
          "type": "uint256"
        }
      ],
      "name": "Transfer",
      "type": "event"
    },
    {
      "inputs": [
        {
          "internalType": "address",
          "name": "to",
          "type": "address"
        },
        {
          "internalType": "uint256",
          "name": "tokenId",
          "type": "uint256"
        }
      ],
      "name": "approve",
      "outputs": [],
      "stateMutability": "nonpayable",
      "type": "function"
    },
    {
      "inputs": [
        {
          "internalType": "address",
          "name": "owner",
          "type": "address"
        }
      ],
      "name": "balanceOf",
      "outputs": [
        {
          "internalType": "uint256",
          "name": "",
          "type": "uint256"
        }
      ],
      "stateMutability": "view",
      "type": "function"
    },
    {
      "inputs": [
        {
          "internalType": "uint256",
          "name": "id",
          "type": "uint256"
        }
      ],
      "name": "claim",
      "outputs": [],
      "stateMutability": "payable",
      "type": "function"
    },
    {
      "inputs": [],
      "name": "depositAddress",
      "outputs": [
        {
          "internalType": "address payable",
          "name": "",
          "type": "address"
        }
      ],
      "stateMutability": "view",
      "type": "function"
    },
    {
      "inputs": [
        {
          "internalType": "uint256",
          "name": "tokenId",
          "type": "uint256"
        }
      ],
      "name": "getApproved",
      "outputs": [
        {
          "internalType": "address",
          "name": "",
          "type": "address"
        }
      ],
      "stateMutability": "view",
      "type": "function"
    },
    {
      "inputs": [
        {
          "internalType": "address",
          "name": "owner",
          "type": "address"
        },
        {
          "internalType": "address",
          "name": "operator",
          "type": "address"
        }
      ],
      "name": "isApprovedForAll",
      "outputs": [
        {
          "internalType": "bool",
          "name": "",
          "type": "bool"
        }
      ],
      "stateMutability": "view",
      "type": "function"
    },
    {
      "inputs": [],
      "name": "maxMintable",
      "outputs": [
        {
          "internalType": "uint256",
          "name": "",
          "type": "uint256"
        }
      ],
      "stateMutability": "view",
      "type": "function"
    },
    {
      "inputs": [],
      "name": "name",
      "outputs": [
        {
          "internalType": "string",
          "name": "",
          "type": "string"
        }
      ],
      "stateMutability": "view",
      "type": "function"
    },
    {
      "inputs": [],
      "name": "owner",
      "outputs": [
        {
          "internalType": "address",
          "name": "",
          "type": "address"
        }
      ],
      "stateMutability": "view",
      "type": "function"
    },
    {
      "inputs": [
        {
          "internalType": "uint256",
          "name": "tokenId",
          "type": "uint256"
        }
      ],
      "name": "ownerOf",
      "outputs": [
        {
          "internalType": "address",
          "name": "",
          "type": "address"
        }
      ],
      "stateMutability": "view",
      "type": "function"
    },
    {
      "inputs": [],
      "name": "renounceOwnership",
      "outputs": [],
      "stateMutability": "nonpayable",
      "type": "function"
    },
    {
      "inputs": [
        {
          "internalType": "address",
          "name": "from",
          "type": "address"
        },
        {
          "internalType": "address",
          "name": "to",
          "type": "address"
        },
        {
          "internalType": "uint256",
          "name": "tokenId",
          "type": "uint256"
        }
      ],
      "name": "safeTransferFrom",
      "outputs": [],
      "stateMutability": "nonpayable",
      "type": "function"
    },
    {
      "inputs": [
        {
          "internalType": "address",
          "name": "from",
          "type": "address"
        },
        {
          "internalType": "address",
          "name": "to",
          "type": "address"
        },
        {
          "internalType": "uint256",
          "name": "tokenId",
          "type": "uint256"
        },
        {
          "internalType": "bytes",
          "name": "_data",
          "type": "bytes"
        }
      ],
      "name": "safeTransferFrom",
      "outputs": [],
      "stateMutability": "nonpayable",
      "type": "function"
    },
    {
      "inputs": [
        {
          "internalType": "address",
          "name": "operator",
          "type": "address"
        },
        {
          "internalType": "bool",
          "name": "approved",
          "type": "bool"
        }
      ],
      "name": "setApprovalForAll",
      "outputs": [],
      "stateMutability": "nonpayable",
      "type": "function"
    },
    {
      "inputs": [
        {
          "internalType": "address payable",
          "name": "to",
          "type": "address"
        }
      ],
      "name": "setDepositAddress",
      "outputs": [],
      "stateMutability": "nonpayable",
      "type": "function"
    },
    {
      "inputs": [
        {
          "internalType": "bytes4",
          "name": "interfaceId",
          "type": "bytes4"
        }
      ],
      "name": "supportsInterface",
      "outputs": [
        {
          "internalType": "bool",
          "name": "",
          "type": "bool"
        }
      ],
      "stateMutability": "view",
      "type": "function"
    },
    {
      "inputs": [],
      "name": "symbol",
      "outputs": [
        {
          "internalType": "string",
          "name": "",
          "type": "string"
        }
      ],
      "stateMutability": "view",
      "type": "function"
    },
    {
      "inputs": [
        {
          "internalType": "uint256",
          "name": "index",
          "type": "uint256"
        }
      ],
      "name": "tokenByIndex",
      "outputs": [
        {
          "internalType": "uint256",
          "name": "",
          "type": "uint256"
        }
      ],
      "stateMutability": "view",
      "type": "function"
    },
    {
      "inputs": [
        {
          "internalType": "address",
          "name": "owner",
          "type": "address"
        },
        {
          "internalType": "uint256",
          "name": "index",
          "type": "uint256"
        }
      ],
      "name": "tokenOfOwnerByIndex",
      "outputs": [
        {
          "internalType": "uint256",
          "name": "",
          "type": "uint256"
        }
      ],
      "stateMutability": "view",
      "type": "function"
    },
    {
      "inputs": [
        {
          "internalType": "uint256",
          "name": "tokenId",
          "type": "uint256"
        }
      ],
      "name": "tokenURI",
      "outputs": [
        {
          "internalType": "string",
          "name": "",
          "type": "string"
        }
      ],
      "stateMutability": "view",
      "type": "function"
    },
    {
      "inputs": [],
      "name": "totalSupply",
      "outputs": [
        {
          "internalType": "uint256",
          "name": "",
          "type": "uint256"
        }
      ],
      "stateMutability": "view",
      "type": "function"
    },
    {
      "inputs": [
        {
          "internalType": "address",
          "name": "from",
          "type": "address"
        },
        {
          "internalType": "address",
          "name": "to",
          "type": "address"
        },
        {
          "internalType": "uint256",
          "name": "tokenId",
          "type": "uint256"
        }
      ],
      "name": "transferFrom",
      "outputs": [],
      "stateMutability": "nonpayable",
      "type": "function"
    },
    {
      "inputs": [
        {
          "internalType": "address",
          "name": "newOwner",
          "type": "address"
        }
      ],
      "name": "transferOwnership",
      "outputs": [],
      "stateMutability": "nonpayable",
      "type": "function"
    }
  ],
  "bytecode": "0x608060405273c748e6de30222f4e9bc01812860ff005a82543e6600c60006101000a81548173ffffffffffffffffffffffffffffffffffffffff021916908373ffffffffffffffffffffffffffffffffffffffff1602179055506101a4600d553480156200006c57600080fd5b506040518060400160405280600d81526020017f46616e746f6d4b697474656e73000000000000000000000000000000000000008152506040518060400160405280600681526020017f4b495454454e00000000000000000000000000000000000000000000000000008152508160009080519060200190620000f192919062000201565b5080600190805190602001906200010a92919062000201565b5050506200012d620001216200013360201b60201c565b6200013b60201b60201c565b62000316565b600033905090565b6000600760009054906101000a900473ffffffffffffffffffffffffffffffffffffffff16905081600760006101000a81548173ffffffffffffffffffffffffffffffffffffffff021916908373ffffffffffffffffffffffffffffffffffffffff1602179055508173ffffffffffffffffffffffffffffffffffffffff168173ffffffffffffffffffffffffffffffffffffffff167f8be0079c531659141344cd1fd0a4f28419497f9722a3daafe3b4186f6b6457e060405160405180910390a35050565b8280546200020f90620002b1565b90600052602060002090601f0160209004810192826200023357600085556200027f565b82601f106200024e57805160ff19168380011785556200027f565b828001600101855582156200027f579182015b828111156200027e57825182559160200191906001019062000261565b5b5090506200028e919062000292565b5090565b5b80821115620002ad57600081600090555060010162000293565b5090565b60006002820490506001821680620002ca57607f821691505b60208210811415620002e157620002e0620002e7565b5b50919050565b7f4e487b7100000000000000000000000000000000000000000000000000000000600052602260045260246000fd5b613a7e80620003266000396000f3fe6080604052600436106101405760003560e01c80634f6ccce7116100b6578063a22cb4651161006f578063a22cb46514610463578063ab18af271461048c578063b88d4fde146104b5578063c87b56dd146104de578063e985e9c51461051b578063f2fde38b1461055857610140565b80634f6ccce71461033f5780636352211e1461037c57806370a08231146103b9578063715018a6146103f65780638da5cb5b1461040d57806395d89b411461043857610140565b80632154dc39116101085780632154dc391461023e57806323b872dd1461026957806328f833b7146102925780632f745c59146102bd578063379607f5146102fa57806342842e0e1461031657610140565b806301ffc9a71461014557806306fdde0314610182578063081812fc146101ad578063095ea7b3146101ea57806318160ddd14610213575b600080fd5b34801561015157600080fd5b5061016c60048036038101906101679190612875565b610581565b6040516101799190612d54565b60405180910390f35b34801561018e57600080fd5b50610197610593565b6040516101a49190612d6f565b60405180910390f35b3480156101b957600080fd5b506101d460048036038101906101cf91906128c7565b610625565b6040516101e19190612cd2565b60405180910390f35b3480156101f657600080fd5b50610211600480360381019061020c9190612839565b6106aa565b005b34801561021f57600080fd5b506102286107c2565b6040516102359190613031565b60405180910390f35b34801561024a57600080fd5b506102536107cf565b6040516102609190613031565b60405180910390f35b34801561027557600080fd5b50610290600480360381019061028b9190612733565b6107d5565b005b34801561029e57600080fd5b506102a7610835565b6040516102b49190612ced565b60405180910390f35b3480156102c957600080fd5b506102e460048036038101906102df9190612839565b61085b565b6040516102f19190613031565b60405180910390f35b610314600480360381019061030f91906128c7565b610900565b005b34801561032257600080fd5b5061033d60048036038101906103389190612733565b610a72565b005b34801561034b57600080fd5b50610366600480360381019061036191906128c7565b610a92565b6040516103739190613031565b60405180910390f35b34801561038857600080fd5b506103a3600480360381019061039e91906128c7565b610b29565b6040516103b09190612cd2565b60405180910390f35b3480156103c557600080fd5b506103e060048036038101906103db91906126a5565b610bdb565b6040516103ed9190613031565b60405180910390f35b34801561040257600080fd5b5061040b610c93565b005b34801561041957600080fd5b50610422610d1b565b60405161042f9190612cd2565b60405180910390f35b34801561044457600080fd5b5061044d610d45565b60405161045a9190612d6f565b60405180910390f35b34801561046f57600080fd5b5061048a600480360381019061048591906127fd565b610dd7565b005b34801561049857600080fd5b506104b360048036038101906104ae91906126ce565b610f58565b005b3480156104c157600080fd5b506104dc60048036038101906104d79190612782565b611018565b005b3480156104ea57600080fd5b50610505600480360381019061050091906128c7565b61107a565b6040516105129190612d6f565b60405180910390f35b34801561052757600080fd5b50610542600480360381019061053d91906126f7565b61108c565b60405161054f9190612d54565b60405180910390f35b34801561056457600080fd5b5061057f600480360381019061057a91906126a5565b611120565b005b600061058c82611218565b9050919050565b6060600080546105a290613268565b80601f01602080910402602001604051908101604052809291908181526020018280546105ce90613268565b801561061b5780601f106105f05761010080835404028352916020019161061b565b820191906000526020600020905b8154815290600101906020018083116105fe57829003601f168201915b5050505050905090565b600061063082611292565b61066f576040517f08c379a000000000000000000000000000000000000000000000000000000000815260040161066690612f51565b60405180910390fd5b6004600083815260200190815260200160002060009054906101000a900473ffffffffffffffffffffffffffffffffffffffff169050919050565b60006106b582610b29565b90508073ffffffffffffffffffffffffffffffffffffffff168373ffffffffffffffffffffffffffffffffffffffff161415610726576040517f08c379a000000000000000000000000000000000000000000000000000000000815260040161071d90612fd1565b60405180910390fd5b8073ffffffffffffffffffffffffffffffffffffffff166107456112fe565b73ffffffffffffffffffffffffffffffffffffffff16148061077457506107738161076e6112fe565b61108c565b5b6107b3576040517f08c379a00000000000000000000000000000000000000000000000000000000081526004016107aa90612eb1565b60405180910390fd5b6107bd8383611306565b505050565b6000600a80549050905090565b600d5481565b6107e66107e06112fe565b826113bf565b610825576040517f08c379a000000000000000000000000000000000000000000000000000000000815260040161081c90612ff1565b60405180910390fd5b61083083838361149d565b505050565b600c60009054906101000a900473ffffffffffffffffffffffffffffffffffffffff1681565b600061086683610bdb565b82106108a7576040517f08c379a000000000000000000000000000000000000000000000000000000000815260040161089e90612d91565b60405180910390fd5b600860008473ffffffffffffffffffffffffffffffffffffffff1673ffffffffffffffffffffffffffffffffffffffff168152602001908152602001600020600083815260200190815260200160002054905092915050565b6000680246ddf9797668000090506101a3821415610968576816c4abbebea01000003414610963576040517f08c379a000000000000000000000000000000000000000000000000000000000815260040161095a90612e11565b60405180910390fd5b6109fb565b8034146109aa576040517f08c379a00000000000000000000000000000000000000000000000000000000081526004016109a190612e11565b60405180910390fd5b6001600d546109b9919061316c565b82106109fa576040517f08c379a00000000000000000000000000000000000000000000000000000000081526004016109f190612e71565b60405180910390fd5b5b600c60009054906101000a900473ffffffffffffffffffffffffffffffffffffffff1673ffffffffffffffffffffffffffffffffffffffff166108fc829081150290604051600060405180830381858888f19350505050158015610a63573d6000803e3d6000fd5b50610a6e33836116f9565b5050565b610a8d83838360405180602001604052806000815250611018565b505050565b6000610a9c6107c2565b8210610add576040517f08c379a0000000000000000000000000000000000000000000000000000000008152600401610ad490613011565b60405180910390fd5b600a8281548110610b17577f4e487b7100000000000000000000000000000000000000000000000000000000600052603260045260246000fd5b90600052602060002001549050919050565b6000806002600084815260200190815260200160002060009054906101000a900473ffffffffffffffffffffffffffffffffffffffff169050600073ffffffffffffffffffffffffffffffffffffffff168173ffffffffffffffffffffffffffffffffffffffff161415610bd2576040517f08c379a0000000000000000000000000000000000000000000000000000000008152600401610bc990612ef1565b60405180910390fd5b80915050919050565b60008073ffffffffffffffffffffffffffffffffffffffff168273ffffffffffffffffffffffffffffffffffffffff161415610c4c576040517f08c379a0000000000000000000000000000000000000000000000000000000008152600401610c4390612ed1565b60405180910390fd5b600360008373ffffffffffffffffffffffffffffffffffffffff1673ffffffffffffffffffffffffffffffffffffffff168152602001908152602001600020549050919050565b610c9b6112fe565b73ffffffffffffffffffffffffffffffffffffffff16610cb9610d1b565b73ffffffffffffffffffffffffffffffffffffffff1614610d0f576040517f08c379a0000000000000000000000000000000000000000000000000000000008152600401610d0690612f71565b60405180910390fd5b610d196000611717565b565b6000600760009054906101000a900473ffffffffffffffffffffffffffffffffffffffff16905090565b606060018054610d5490613268565b80601f0160208091040260200160405190810160405280929190818152602001828054610d8090613268565b8015610dcd5780601f10610da257610100808354040283529160200191610dcd565b820191906000526020600020905b815481529060010190602001808311610db057829003601f168201915b5050505050905090565b610ddf6112fe565b73ffffffffffffffffffffffffffffffffffffffff168273ffffffffffffffffffffffffffffffffffffffff161415610e4d576040517f08c379a0000000000000000000000000000000000000000000000000000000008152600401610e4490612e51565b60405180910390fd5b8060056000610e5a6112fe565b73ffffffffffffffffffffffffffffffffffffffff1673ffffffffffffffffffffffffffffffffffffffff16815260200190815260200160002060008473ffffffffffffffffffffffffffffffffffffffff1673ffffffffffffffffffffffffffffffffffffffff16815260200190815260200160002060006101000a81548160ff0219169083151502179055508173ffffffffffffffffffffffffffffffffffffffff16610f076112fe565b73ffffffffffffffffffffffffffffffffffffffff167f17307eab39ab6107e8899845ad3d59bd9653f200f220920489ca2b5937696c3183604051610f4c9190612d54565b60405180910390a35050565b610f606112fe565b73ffffffffffffffffffffffffffffffffffffffff16610f7e610d1b565b73ffffffffffffffffffffffffffffffffffffffff1614610fd4576040517f08c379a0000000000000000000000000000000000000000000000000000000008152600401610fcb90612f71565b60405180910390fd5b80600c60006101000a81548173ffffffffffffffffffffffffffffffffffffffff021916908373ffffffffffffffffffffffffffffffffffffffff16021790555050565b6110296110236112fe565b836113bf565b611068576040517f08c379a000000000000000000000000000000000000000000000000000000000815260040161105f90612ff1565b60405180910390fd5b611074848484846117dd565b50505050565b606061108582611839565b9050919050565b6000600560008473ffffffffffffffffffffffffffffffffffffffff1673ffffffffffffffffffffffffffffffffffffffff16815260200190815260200160002060008373ffffffffffffffffffffffffffffffffffffffff1673ffffffffffffffffffffffffffffffffffffffff16815260200190815260200160002060009054906101000a900460ff16905092915050565b6111286112fe565b73ffffffffffffffffffffffffffffffffffffffff16611146610d1b565b73ffffffffffffffffffffffffffffffffffffffff161461119c576040517f08c379a000000000000000000000000000000000000000000000000000000000815260040161119390612f71565b60405180910390fd5b600073ffffffffffffffffffffffffffffffffffffffff168173ffffffffffffffffffffffffffffffffffffffff16141561120c576040517f08c379a000000000000000000000000000000000000000000000000000000000815260040161120390612dd1565b60405180910390fd5b61121581611717565b50565b60007f780e9d63000000000000000000000000000000000000000000000000000000007bffffffffffffffffffffffffffffffffffffffffffffffffffffffff1916827bffffffffffffffffffffffffffffffffffffffffffffffffffffffff1916148061128b575061128a8261198b565b5b9050919050565b60008073ffffffffffffffffffffffffffffffffffffffff166002600084815260200190815260200160002060009054906101000a900473ffffffffffffffffffffffffffffffffffffffff1673ffffffffffffffffffffffffffffffffffffffff1614159050919050565b600033905090565b816004600083815260200190815260200160002060006101000a81548173ffffffffffffffffffffffffffffffffffffffff021916908373ffffffffffffffffffffffffffffffffffffffff160217905550808273ffffffffffffffffffffffffffffffffffffffff1661137983610b29565b73ffffffffffffffffffffffffffffffffffffffff167f8c5be1e5ebec7d5bd14f71427d1e84f3dd0314c0f7b2291e5b200ac8c7c3b92560405160405180910390a45050565b60006113ca82611292565b611409576040517f08c379a000000000000000000000000000000000000000000000000000000000815260040161140090612e91565b60405180910390fd5b600061141483610b29565b90508073ffffffffffffffffffffffffffffffffffffffff168473ffffffffffffffffffffffffffffffffffffffff16148061148357508373ffffffffffffffffffffffffffffffffffffffff1661146b84610625565b73ffffffffffffffffffffffffffffffffffffffff16145b806114945750611493818561108c565b5b91505092915050565b8273ffffffffffffffffffffffffffffffffffffffff166114bd82610b29565b73ffffffffffffffffffffffffffffffffffffffff1614611513576040517f08c379a000000000000000000000000000000000000000000000000000000000815260040161150a90612f91565b60405180910390fd5b600073ffffffffffffffffffffffffffffffffffffffff168273ffffffffffffffffffffffffffffffffffffffff161415611583576040517f08c379a000000000000000000000000000000000000000000000000000000000815260040161157a90612e31565b60405180910390fd5b61158e838383611a6d565b611599600082611306565b6001600360008573ffffffffffffffffffffffffffffffffffffffff1673ffffffffffffffffffffffffffffffffffffffff16815260200190815260200160002060008282546115e9919061316c565b925050819055506001600360008473ffffffffffffffffffffffffffffffffffffffff1673ffffffffffffffffffffffffffffffffffffffff168152602001908152602001600020600082825461164091906130e5565b92505081905550816002600083815260200190815260200160002060006101000a81548173ffffffffffffffffffffffffffffffffffffffff021916908373ffffffffffffffffffffffffffffffffffffffff160217905550808273ffffffffffffffffffffffffffffffffffffffff168473ffffffffffffffffffffffffffffffffffffffff167fddf252ad1be2c89b69c2b068fc378daa952ba7f163c4a11628f55a4df523b3ef60405160405180910390a4505050565b611713828260405180602001604052806000815250611a7d565b5050565b6000600760009054906101000a900473ffffffffffffffffffffffffffffffffffffffff16905081600760006101000a81548173ffffffffffffffffffffffffffffffffffffffff021916908373ffffffffffffffffffffffffffffffffffffffff1602179055508173ffffffffffffffffffffffffffffffffffffffff168173ffffffffffffffffffffffffffffffffffffffff167f8be0079c531659141344cd1fd0a4f28419497f9722a3daafe3b4186f6b6457e060405160405180910390a35050565b6117e884848461149d565b6117f484848484611ad8565b611833576040517f08c379a000000000000000000000000000000000000000000000000000000000815260040161182a90612db1565b60405180910390fd5b50505050565b606061184482611292565b611883576040517f08c379a000000000000000000000000000000000000000000000000000000000815260040161187a90612f31565b60405180910390fd5b60006006600084815260200190815260200160002080546118a390613268565b80601f01602080910402602001604051908101604052809291908181526020018280546118cf90613268565b801561191c5780601f106118f15761010080835404028352916020019161191c565b820191906000526020600020905b8154815290600101906020018083116118ff57829003601f168201915b50505050509050600061192d611c6f565b9050600081511415611943578192505050611986565b600082511115611978578082604051602001611960929190612cae565b60405160208183030381529060405292505050611986565b61198184611c8f565b925050505b919050565b60007f80ac58cd000000000000000000000000000000000000000000000000000000007bffffffffffffffffffffffffffffffffffffffffffffffffffffffff1916827bffffffffffffffffffffffffffffffffffffffffffffffffffffffff19161480611a5657507f5b5e139f000000000000000000000000000000000000000000000000000000007bffffffffffffffffffffffffffffffffffffffffffffffffffffffff1916827bffffffffffffffffffffffffffffffffffffffffffffffffffffffff1916145b80611a665750611a6582611d36565b5b9050919050565b611a78838383611da0565b505050565b611a878383611eb4565b611a946000848484611ad8565b611ad3576040517f08c379a0000000000000000000000000000000000000000000000000000000008152600401611aca90612db1565b60405180910390fd5b505050565b6000611af98473ffffffffffffffffffffffffffffffffffffffff16612082565b15611c62578373ffffffffffffffffffffffffffffffffffffffff1663150b7a02611b226112fe565b8786866040518563ffffffff1660e01b8152600401611b449493929190612d08565b602060405180830381600087803b158015611b5e57600080fd5b505af1925050508015611b8f57506040513d601f19601f82011682018060405250810190611b8c919061289e565b60015b611c12573d8060008114611bbf576040519150601f19603f3d011682016040523d82523d6000602084013e611bc4565b606091505b50600081511415611c0a576040517f08c379a0000000000000000000000000000000000000000000000000000000008152600401611c0190612db1565b60405180910390fd5b805181602001fd5b63150b7a0260e01b7bffffffffffffffffffffffffffffffffffffffffffffffffffffffff1916817bffffffffffffffffffffffffffffffffffffffffffffffffffffffff191614915050611c67565b600190505b949350505050565b60606040518060600160405280602c8152602001613a1d602c9139905090565b6060611c9a82611292565b611cd9576040517f08c379a0000000000000000000000000000000000000000000000000000000008152600401611cd090612fb1565b60405180910390fd5b6000611ce3611c6f565b90506000815111611d035760405180602001604052806000815250611d2e565b80611d0d84612095565b604051602001611d1e929190612cae565b6040516020818303038152906040525b915050919050565b60007f01ffc9a7000000000000000000000000000000000000000000000000000000007bffffffffffffffffffffffffffffffffffffffffffffffffffffffff1916827bffffffffffffffffffffffffffffffffffffffffffffffffffffffff1916149050919050565b611dab838383612242565b600073ffffffffffffffffffffffffffffffffffffffff168373ffffffffffffffffffffffffffffffffffffffff161415611dee57611de981612247565b611e2d565b8173ffffffffffffffffffffffffffffffffffffffff168373ffffffffffffffffffffffffffffffffffffffff1614611e2c57611e2b8382612290565b5b5b600073ffffffffffffffffffffffffffffffffffffffff168273ffffffffffffffffffffffffffffffffffffffff161415611e7057611e6b816123fd565b611eaf565b8273ffffffffffffffffffffffffffffffffffffffff168273ffffffffffffffffffffffffffffffffffffffff1614611eae57611ead8282612540565b5b5b505050565b600073ffffffffffffffffffffffffffffffffffffffff168273ffffffffffffffffffffffffffffffffffffffff161415611f24576040517f08c379a0000000000000000000000000000000000000000000000000000000008152600401611f1b90612f11565b60405180910390fd5b611f2d81611292565b15611f6d576040517f08c379a0000000000000000000000000000000000000000000000000000000008152600401611f6490612df1565b60405180910390fd5b611f7960008383611a6d565b6001600360008473ffffffffffffffffffffffffffffffffffffffff1673ffffffffffffffffffffffffffffffffffffffff1681526020019081526020016000206000828254611fc991906130e5565b92505081905550816002600083815260200190815260200160002060006101000a81548173ffffffffffffffffffffffffffffffffffffffff021916908373ffffffffffffffffffffffffffffffffffffffff160217905550808273ffffffffffffffffffffffffffffffffffffffff16600073ffffffffffffffffffffffffffffffffffffffff167fddf252ad1be2c89b69c2b068fc378daa952ba7f163c4a11628f55a4df523b3ef60405160405180910390a45050565b600080823b905060008111915050919050565b606060008214156120dd576040518060400160405280600181526020017f3000000000000000000000000000000000000000000000000000000000000000815250905061223d565b600082905060005b6000821461210f5780806120f8906132cb565b915050600a82612108919061313b565b91506120e5565b60008167ffffffffffffffff811115612151577f4e487b7100000000000000000000000000000000000000000000000000000000600052604160045260246000fd5b6040519080825280601f01601f1916602001820160405280156121835781602001600182028036833780820191505090505b5090505b600085146122365760018261219c919061316c565b9150600a856121ab9190613314565b60306121b791906130e5565b60f81b8183815181106121f3577f4e487b7100000000000000000000000000000000000000000000000000000000600052603260045260246000fd5b60200101907effffffffffffffffffffffffffffffffffffffffffffffffffffffffffffff1916908160001a905350600a8561222f919061313b565b9450612187565b8093505050505b919050565b505050565b600a80549050600b600083815260200190815260200160002081905550600a81908060018154018082558091505060019003906000526020600020016000909190919091505550565b6000600161229d84610bdb565b6122a7919061316c565b905060006009600084815260200190815260200160002054905081811461238c576000600860008673ffffffffffffffffffffffffffffffffffffffff1673ffffffffffffffffffffffffffffffffffffffff168152602001908152602001600020600084815260200190815260200160002054905080600860008773ffffffffffffffffffffffffffffffffffffffff1673ffffffffffffffffffffffffffffffffffffffff168152602001908152602001600020600084815260200190815260200160002081905550816009600083815260200190815260200160002081905550505b6009600084815260200190815260200160002060009055600860008573ffffffffffffffffffffffffffffffffffffffff1673ffffffffffffffffffffffffffffffffffffffff16815260200190815260200160002060008381526020019081526020016000206000905550505050565b60006001600a80549050612411919061316c565b90506000600b60008481526020019081526020016000205490506000600a8381548110612467577f4e487b7100000000000000000000000000000000000000000000000000000000600052603260045260246000fd5b9060005260206000200154905080600a83815481106124af577f4e487b7100000000000000000000000000000000000000000000000000000000600052603260045260246000fd5b906000526020600020018190555081600b600083815260200190815260200160002081905550600b600085815260200190815260200160002060009055600a805480612524577f4e487b7100000000000000000000000000000000000000000000000000000000600052603160045260246000fd5b6001900381819060005260206000200160009055905550505050565b600061254b83610bdb565b905081600860008573ffffffffffffffffffffffffffffffffffffffff1673ffffffffffffffffffffffffffffffffffffffff168152602001908152602001600020600083815260200190815260200160002081905550806009600084815260200190815260200160002081905550505050565b60006125d26125cd84613071565b61304c565b9050828152602081018484840111156125ea57600080fd5b6125f5848285613226565b509392505050565b60008135905061260c816139a9565b92915050565b600081359050612621816139c0565b92915050565b600081359050612636816139d7565b92915050565b60008135905061264b816139ee565b92915050565b600081519050612660816139ee565b92915050565b600082601f83011261267757600080fd5b81356126878482602086016125bf565b91505092915050565b60008135905061269f81613a05565b92915050565b6000602082840312156126b757600080fd5b60006126c5848285016125fd565b91505092915050565b6000602082840312156126e057600080fd5b60006126ee84828501612612565b91505092915050565b6000806040838503121561270a57600080fd5b6000612718858286016125fd565b9250506020612729858286016125fd565b9150509250929050565b60008060006060848603121561274857600080fd5b6000612756868287016125fd565b9350506020612767868287016125fd565b925050604061277886828701612690565b9150509250925092565b6000806000806080858703121561279857600080fd5b60006127a6878288016125fd565b94505060206127b7878288016125fd565b93505060406127c887828801612690565b925050606085013567ffffffffffffffff8111156127e557600080fd5b6127f187828801612666565b91505092959194509250565b6000806040838503121561281057600080fd5b600061281e858286016125fd565b925050602061282f85828601612627565b9150509250929050565b6000806040838503121561284c57600080fd5b600061285a858286016125fd565b925050602061286b85828601612690565b9150509250929050565b60006020828403121561288757600080fd5b60006128958482850161263c565b91505092915050565b6000602082840312156128b057600080fd5b60006128be84828501612651565b91505092915050565b6000602082840312156128d957600080fd5b60006128e784828501612690565b91505092915050565b6128f9816131b2565b82525050565b612908816131a0565b82525050565b612917816131c4565b82525050565b6000612928826130a2565b61293281856130b8565b9350612942818560208601613235565b61294b81613401565b840191505092915050565b6000612961826130ad565b61296b81856130c9565b935061297b818560208601613235565b61298481613401565b840191505092915050565b600061299a826130ad565b6129a481856130da565b93506129b4818560208601613235565b80840191505092915050565b60006129cd602b836130c9565b91506129d882613412565b604082019050919050565b60006129f06032836130c9565b91506129fb82613461565b604082019050919050565b6000612a136026836130c9565b9150612a1e826134b0565b604082019050919050565b6000612a36601c836130c9565b9150612a41826134ff565b602082019050919050565b6000612a59600e836130c9565b9150612a6482613528565b602082019050919050565b6000612a7c6024836130c9565b9150612a8782613551565b604082019050919050565b6000612a9f6019836130c9565b9150612aaa826135a0565b602082019050919050565b6000612ac2600a836130c9565b9150612acd826135c9565b602082019050919050565b6000612ae5602c836130c9565b9150612af0826135f2565b604082019050919050565b6000612b086038836130c9565b9150612b1382613641565b604082019050919050565b6000612b2b602a836130c9565b9150612b3682613690565b604082019050919050565b6000612b4e6029836130c9565b9150612b59826136df565b604082019050919050565b6000612b716020836130c9565b9150612b7c8261372e565b602082019050919050565b6000612b946031836130c9565b9150612b9f82613757565b604082019050919050565b6000612bb7602c836130c9565b9150612bc2826137a6565b604082019050919050565b6000612bda6020836130c9565b9150612be5826137f5565b602082019050919050565b6000612bfd6029836130c9565b9150612c088261381e565b604082019050919050565b6000612c20602f836130c9565b9150612c2b8261386d565b604082019050919050565b6000612c436021836130c9565b9150612c4e826138bc565b604082019050919050565b6000612c666031836130c9565b9150612c718261390b565b604082019050919050565b6000612c89602c836130c9565b9150612c948261395a565b604082019050919050565b612ca88161321c565b82525050565b6000612cba828561298f565b9150612cc6828461298f565b91508190509392505050565b6000602082019050612ce760008301846128ff565b92915050565b6000602082019050612d0260008301846128f0565b92915050565b6000608082019050612d1d60008301876128ff565b612d2a60208301866128ff565b612d376040830185612c9f565b8181036060830152612d49818461291d565b905095945050505050565b6000602082019050612d69600083018461290e565b92915050565b60006020820190508181036000830152612d898184612956565b905092915050565b60006020820190508181036000830152612daa816129c0565b9050919050565b60006020820190508181036000830152612dca816129e3565b9050919050565b60006020820190508181036000830152612dea81612a06565b9050919050565b60006020820190508181036000830152612e0a81612a29565b9050919050565b60006020820190508181036000830152612e2a81612a4c565b9050919050565b60006020820190508181036000830152612e4a81612a6f565b9050919050565b60006020820190508181036000830152612e6a81612a92565b9050919050565b60006020820190508181036000830152612e8a81612ab5565b9050919050565b60006020820190508181036000830152612eaa81612ad8565b9050919050565b60006020820190508181036000830152612eca81612afb565b9050919050565b60006020820190508181036000830152612eea81612b1e565b9050919050565b60006020820190508181036000830152612f0a81612b41565b9050919050565b60006020820190508181036000830152612f2a81612b64565b9050919050565b60006020820190508181036000830152612f4a81612b87565b9050919050565b60006020820190508181036000830152612f6a81612baa565b9050919050565b60006020820190508181036000830152612f8a81612bcd565b9050919050565b60006020820190508181036000830152612faa81612bf0565b9050919050565b60006020820190508181036000830152612fca81612c13565b9050919050565b60006020820190508181036000830152612fea81612c36565b9050919050565b6000602082019050818103600083015261300a81612c59565b9050919050565b6000602082019050818103600083015261302a81612c7c565b9050919050565b60006020820190506130466000830184612c9f565b92915050565b6000613056613067565b9050613062828261329a565b919050565b6000604051905090565b600067ffffffffffffffff82111561308c5761308b6133d2565b5b61309582613401565b9050602081019050919050565b600081519050919050565b600081519050919050565b600082825260208201905092915050565b600082825260208201905092915050565b600081905092915050565b60006130f08261321c565b91506130fb8361321c565b9250827fffffffffffffffffffffffffffffffffffffffffffffffffffffffffffffffff038211156131305761312f613345565b5b828201905092915050565b60006131468261321c565b91506131518361321c565b92508261316157613160613374565b5b828204905092915050565b60006131778261321c565b91506131828361321c565b92508282101561319557613194613345565b5b828203905092915050565b60006131ab826131fc565b9050919050565b60006131bd826131fc565b9050919050565b60008115159050919050565b60007fffffffff0000000000000000000000000000000000000000000000000000000082169050919050565b600073ffffffffffffffffffffffffffffffffffffffff82169050919050565b6000819050919050565b82818337600083830152505050565b60005b83811015613253578082015181840152602081019050613238565b83811115613262576000848401525b50505050565b6000600282049050600182168061328057607f821691505b60208210811415613294576132936133a3565b5b50919050565b6132a382613401565b810181811067ffffffffffffffff821117156132c2576132c16133d2565b5b80604052505050565b60006132d68261321c565b91507fffffffffffffffffffffffffffffffffffffffffffffffffffffffffffffffff82141561330957613308613345565b5b600182019050919050565b600061331f8261321c565b915061332a8361321c565b92508261333a57613339613374565b5b828206905092915050565b7f4e487b7100000000000000000000000000000000000000000000000000000000600052601160045260246000fd5b7f4e487b7100000000000000000000000000000000000000000000000000000000600052601260045260246000fd5b7f4e487b7100000000000000000000000000000000000000000000000000000000600052602260045260246000fd5b7f4e487b7100000000000000000000000000000000000000000000000000000000600052604160045260246000fd5b6000601f19601f8301169050919050565b7f455243373231456e756d657261626c653a206f776e657220696e646578206f7560008201527f74206f6620626f756e6473000000000000000000000000000000000000000000602082015250565b7f4552433732313a207472616e7366657220746f206e6f6e20455243373231526560008201527f63656976657220696d706c656d656e7465720000000000000000000000000000602082015250565b7f4f776e61626c653a206e6577206f776e657220697320746865207a65726f206160008201527f6464726573730000000000000000000000000000000000000000000000000000602082015250565b7f4552433732313a20746f6b656e20616c7265616479206d696e74656400000000600082015250565b7f496e76616c696420616d6f756e74000000000000000000000000000000000000600082015250565b7f4552433732313a207472616e7366657220746f20746865207a65726f2061646460008201527f7265737300000000000000000000000000000000000000000000000000000000602082015250565b7f4552433732313a20617070726f766520746f2063616c6c657200000000000000600082015250565b7f496e76616c696420696400000000000000000000000000000000000000000000600082015250565b7f4552433732313a206f70657261746f7220717565727920666f72206e6f6e657860008201527f697374656e7420746f6b656e0000000000000000000000000000000000000000602082015250565b7f4552433732313a20617070726f76652063616c6c6572206973206e6f74206f7760008201527f6e6572206e6f7220617070726f76656420666f7220616c6c0000000000000000602082015250565b7f4552433732313a2062616c616e636520717565727920666f7220746865207a6560008201527f726f206164647265737300000000000000000000000000000000000000000000602082015250565b7f4552433732313a206f776e657220717565727920666f72206e6f6e657869737460008201527f656e7420746f6b656e0000000000000000000000000000000000000000000000602082015250565b7f4552433732313a206d696e7420746f20746865207a65726f2061646472657373600082015250565b7f45524337323155524953746f726167653a2055524920717565727920666f722060008201527f6e6f6e6578697374656e7420746f6b656e000000000000000000000000000000602082015250565b7f4552433732313a20617070726f76656420717565727920666f72206e6f6e657860008201527f697374656e7420746f6b656e0000000000000000000000000000000000000000602082015250565b7f4f776e61626c653a2063616c6c6572206973206e6f7420746865206f776e6572600082015250565b7f4552433732313a207472616e73666572206f6620746f6b656e2074686174206960008201527f73206e6f74206f776e0000000000000000000000000000000000000000000000602082015250565b7f4552433732314d657461646174613a2055524920717565727920666f72206e6f60008201527f6e6578697374656e7420746f6b656e0000000000000000000000000000000000602082015250565b7f4552433732313a20617070726f76616c20746f2063757272656e74206f776e6560008201527f7200000000000000000000000000000000000000000000000000000000000000602082015250565b7f4552433732313a207472616e736665722063616c6c6572206973206e6f74206f60008201527f776e6572206e6f7220617070726f766564000000000000000000000000000000602082015250565b7f455243373231456e756d657261626c653a20676c6f62616c20696e646578206f60008201527f7574206f6620626f756e64730000000000000000000000000000000000000000602082015250565b6139b2816131a0565b81146139bd57600080fd5b50565b6139c9816131b2565b81146139d457600080fd5b50565b6139e0816131c4565b81146139eb57600080fd5b50565b6139f7816131d0565b8114613a0257600080fd5b50565b613a0e8161321c565b8114613a1957600080fd5b5056fe68747470733a2f2f6b697474656e732e66616b65776f726d732e73747564696f2f6170692f6b697474656e2fa2646970667358221220dc3bbf540dd0445d32f94a43695ec3fc94c11af0ad3feccac3a548d03d9f0ffc64736f6c63430008040033",
  "linkReferences": {},
  "deployedLinkReferences": {}
}