{
  "_format": "hh-sol-artifact-1",
  "contractName": "MasterKitten",
  "sourceName": "contracts/MasterKitten.sol",
  "abi": [
    {
      "inputs": [
        {
          "internalType": "contract RKITTEN",
          "name": "_rKITTEN",
          "type": "address"
        },
        {
          "internalType": "address",
          "name": "_devaddr",
          "type": "address"
        },
        {
          "internalType": "uint256",
          "name": "_rKITTENPerSecond",
          "type": "uint256"
        }
      ],
      "stateMutability": "nonpayable",
      "type": "constructor"
    },
    {
      "anonymous": false,
      "inputs": [
        {
          "indexed": true,
          "internalType": "address",
          "name": "user",
          "type": "address"
        },
        {
          "indexed": true,
          "internalType": "uint256",
          "name": "pid",
          "type": "uint256"
        },
        {
          "indexed": false,
          "internalType": "uint256",
          "name": "amount",
          "type": "uint256"
        }
      ],
      "name": "Deposit",
      "type": "event"
    },
    {
      "anonymous": false,
      "inputs": [
        {
          "indexed": true,
          "internalType": "address",
          "name": "user",
          "type": "address"
        },
        {
          "indexed": true,
          "internalType": "uint256",
          "name": "pid",
          "type": "uint256"
        },
        {
          "indexed": false,
          "internalType": "uint256",
          "name": "amount",
          "type": "uint256"
        }
      ],
      "name": "EmergencyWithdraw",
      "type": "event"
    },
    {
      "anonymous": false,
      "inputs": [
        {
          "indexed": true,
          "internalType": "address",
          "name": "previousOwner",
          "type": "address"
        },
        {
          "indexed": true,
          "internalType": "address",
          "name": "newOwner",
          "type": "address"
        }
      ],
      "name": "OwnershipTransferred",
      "type": "event"
    },
    {
      "anonymous": false,
      "inputs": [
        {
          "indexed": true,
          "internalType": "address",
          "name": "user",
          "type": "address"
        },
        {
          "indexed": true,
          "internalType": "uint256",
          "name": "pid",
          "type": "uint256"
        },
        {
          "indexed": false,
          "internalType": "uint256",
          "name": "amount",
          "type": "uint256"
        }
      ],
      "name": "Withdraw",
      "type": "event"
    },
    {
      "inputs": [],
      "name": "MaxAllocPoint",
      "outputs": [
        {
          "internalType": "uint256",
          "name": "",
          "type": "uint256"
        }
      ],
      "stateMutability": "view",
      "type": "function"
    },
    {
      "inputs": [
        {
          "internalType": "uint256",
          "name": "_allocPoint",
          "type": "uint256"
        },
        {
          "internalType": "contract IERC20",
          "name": "_lpToken",
          "type": "address"
        }
      ],
      "name": "add",
      "outputs": [],
      "stateMutability": "nonpayable",
      "type": "function"
    },
    {
      "inputs": [],
      "name": "daoAddress",
      "outputs": [
        {
          "internalType": "address",
          "name": "",
          "type": "address"
        }
      ],
      "stateMutability": "view",
      "type": "function"
    },
    {
      "inputs": [
        {
          "internalType": "uint256",
          "name": "_pid",
          "type": "uint256"
        },
        {
          "internalType": "uint256",
          "name": "_amount",
          "type": "uint256"
        }
      ],
      "name": "deposit",
      "outputs": [],
      "stateMutability": "nonpayable",
      "type": "function"
    },
    {
      "inputs": [
        {
          "internalType": "address",
          "name": "_devaddr",
          "type": "address"
        }
      ],
      "name": "dev",
      "outputs": [],
      "stateMutability": "nonpayable",
      "type": "function"
    },
    {
      "inputs": [],
      "name": "devaddr",
      "outputs": [
        {
          "internalType": "address",
          "name": "",
          "type": "address"
        }
      ],
      "stateMutability": "view",
      "type": "function"
    },
    {
      "inputs": [
        {
          "internalType": "uint256",
          "name": "_pid",
          "type": "uint256"
        }
      ],
      "name": "emergencyWithdraw",
      "outputs": [],
      "stateMutability": "nonpayable",
      "type": "function"
    },
    {
      "inputs": [],
      "name": "endRewards",
      "outputs": [],
      "stateMutability": "nonpayable",
      "type": "function"
    },
    {
      "inputs": [
        {
          "internalType": "uint256",
          "name": "_from",
          "type": "uint256"
        },
        {
          "internalType": "uint256",
          "name": "_to",
          "type": "uint256"
        }
      ],
      "name": "getMultiplier",
      "outputs": [
        {
          "internalType": "uint256",
          "name": "",
          "type": "uint256"
        }
      ],
      "stateMutability": "view",
      "type": "function"
    },
    {
      "inputs": [],
      "name": "massUpdatePools",
      "outputs": [],
      "stateMutability": "nonpayable",
      "type": "function"
    },
    {
      "inputs": [],
      "name": "maxRKittenPerSecond",
      "outputs": [
        {
          "internalType": "uint256",
          "name": "",
          "type": "uint256"
        }
      ],
      "stateMutability": "view",
      "type": "function"
    },
    {
      "inputs": [],
      "name": "owner",
      "outputs": [
        {
          "internalType": "address",
          "name": "",
          "type": "address"
        }
      ],
      "stateMutability": "view",
      "type": "function"
    },
    {
      "inputs": [
        {
          "internalType": "uint256",
          "name": "_pid",
          "type": "uint256"
        },
        {
          "internalType": "address",
          "name": "_user",
          "type": "address"
        }
      ],
      "name": "pendingRKITTEN",
      "outputs": [
        {
          "internalType": "uint256",
          "name": "",
          "type": "uint256"
        }
      ],
      "stateMutability": "view",
      "type": "function"
    },
    {
      "inputs": [
        {
          "internalType": "uint256",
          "name": "",
          "type": "uint256"
        }
      ],
      "name": "poolInfo",
      "outputs": [
        {
          "internalType": "contract IERC20",
          "name": "lpToken",
          "type": "address"
        },
        {
          "internalType": "uint256",
          "name": "allocPoint",
          "type": "uint256"
        },
        {
          "internalType": "uint256",
          "name": "lastRewardTime",
          "type": "uint256"
        },
        {
          "internalType": "uint256",
          "name": "accRKITTENPerShare",
          "type": "uint256"
        }
      ],
      "stateMutability": "view",
      "type": "function"
    },
    {
      "inputs": [],
      "name": "poolLength",
      "outputs": [
        {
          "internalType": "uint256",
          "name": "",
          "type": "uint256"
        }
      ],
      "stateMutability": "view",
      "type": "function"
    },
    {
      "inputs": [],
      "name": "rKITTEN",
      "outputs": [
        {
          "internalType": "contract RKITTEN",
          "name": "",
          "type": "address"
        }
      ],
      "stateMutability": "view",
      "type": "function"
    },
    {
      "inputs": [],
      "name": "rKITTENPerSecond",
      "outputs": [
        {
          "internalType": "uint256",
          "name": "",
          "type": "uint256"
        }
      ],
      "stateMutability": "view",
      "type": "function"
    },
    {
      "inputs": [],
      "name": "renounceOwnership",
      "outputs": [],
      "stateMutability": "nonpayable",
      "type": "function"
    },
    {
      "inputs": [
        {
          "internalType": "uint256",
          "name": "_pid",
          "type": "uint256"
        },
        {
          "internalType": "uint256",
          "name": "_allocPoint",
          "type": "uint256"
        }
      ],
      "name": "set",
      "outputs": [],
      "stateMutability": "nonpayable",
      "type": "function"
    },
    {
      "inputs": [
        {
          "internalType": "uint256",
          "name": "_rKITTENPerSecond",
          "type": "uint256"
        }
      ],
      "name": "setRKittenPerSecond",
      "outputs": [],
      "stateMutability": "nonpayable",
      "type": "function"
    },
    {
      "inputs": [],
      "name": "startTime",
      "outputs": [
        {
          "internalType": "uint256",
          "name": "",
          "type": "uint256"
        }
      ],
      "stateMutability": "view",
      "type": "function"
    },
    {
      "inputs": [],
      "name": "totalAllocPoint",
      "outputs": [
        {
          "internalType": "uint256",
          "name": "",
          "type": "uint256"
        }
      ],
      "stateMutability": "view",
      "type": "function"
    },
    {
      "inputs": [
        {
          "internalType": "address",
          "name": "newOwner",
          "type": "address"
        }
      ],
      "name": "transferOwnership",
      "outputs": [],
      "stateMutability": "nonpayable",
      "type": "function"
    },
    {
      "inputs": [
        {
          "internalType": "uint256",
          "name": "_pid",
          "type": "uint256"
        }
      ],
      "name": "updatePool",
      "outputs": [],
      "stateMutability": "nonpayable",
      "type": "function"
    },
    {
      "inputs": [
        {
          "internalType": "uint256",
          "name": "",
          "type": "uint256"
        },
        {
          "internalType": "address",
          "name": "",
          "type": "address"
        }
      ],
      "name": "userInfo",
      "outputs": [
        {
          "internalType": "uint256",
          "name": "amount",
          "type": "uint256"
        },
        {
          "internalType": "uint256",
          "name": "rewardDebt",
          "type": "uint256"
        }
      ],
      "stateMutability": "view",
      "type": "function"
    },
    {
      "inputs": [
        {
          "internalType": "uint256",
          "name": "_pid",
          "type": "uint256"
        },
        {
          "internalType": "uint256",
          "name": "_amount",
          "type": "uint256"
        }
      ],
      "name": "withdraw",
      "outputs": [],
      "stateMutability": "nonpayable",
      "type": "function"
    }
  ],
  "bytecode": "0x60a060405260006006553480156200001657600080fd5b50604051620030743803806200307483398181016040528101906200003c919062000207565b6200005c62000050620000f660201b60201c565b620000fe60201b60201c565b82600160006101000a81548173ffffffffffffffffffffffffffffffffffffffff021916908373ffffffffffffffffffffffffffffffffffffffff16021790555081600260006101000a81548173ffffffffffffffffffffffffffffffffffffffff021916908373ffffffffffffffffffffffffffffffffffffffff160217905550806003819055504260808181525050505050620002fd565b600033905090565b60008060009054906101000a900473ffffffffffffffffffffffffffffffffffffffff169050816000806101000a81548173ffffffffffffffffffffffffffffffffffffffff021916908373ffffffffffffffffffffffffffffffffffffffff1602179055508173ffffffffffffffffffffffffffffffffffffffff168173ffffffffffffffffffffffffffffffffffffffff167f8be0079c531659141344cd1fd0a4f28419497f9722a3daafe3b4186f6b6457e060405160405180910390a35050565b600081519050620001d381620002af565b92915050565b600081519050620001ea81620002c9565b92915050565b6000815190506200020181620002e3565b92915050565b6000806000606084860312156200021d57600080fd5b60006200022d86828701620001d9565b93505060206200024086828701620001c2565b92505060406200025386828701620001f0565b9150509250925092565b60006200026a8262000285565b9050919050565b60006200027e826200025d565b9050919050565b600073ffffffffffffffffffffffffffffffffffffffff82169050919050565b6000819050919050565b620002ba816200025d565b8114620002c657600080fd5b50565b620002d48162000271565b8114620002e057600080fd5b50565b620002ee81620002a5565b8114620002fa57600080fd5b50565b608051612d386200033c60003960008181610a1701528181610a3e0152818161126a0152818161138d015281816113b401526113de0152612d386000f3fe608060405234801561001057600080fd5b506004361061018e5760003560e01c80635312ea8e116100de5780638dbb1e3a11610097578063d9cd1ca011610071578063d9cd1ca01461043d578063e2bbb15814610447578063f2fde38b14610463578063f4b83c4c1461047f5761018e565b80638dbb1e3a146103be57806393f1a40b146103ee578063d49e77cd1461041f5761018e565b80635312ea8e14610336578063630b5ba114610352578063715018a61461035c57806378e97925146103665780638d88a90e146103845780638da5cb5b146103a05761018e565b80632131c68c1161014b5780632b8bbbe8116101255780632b8bbbe8146102c657806334f3444c146102e2578063441a3e70146102fe57806351eb05a61461031a5761018e565b80632131c68c1461025a5780632191dfe0146102785780632a4b80a9146102965761018e565b8063081e3eda146101935780630a16cfd6146101b15780631462c91a146101cf5780631526fe27146101ed57806317caf6f1146102205780631ab06ee51461023e575b600080fd5b61019b61049d565b6040516101a8919061275c565b60405180910390f35b6101b96104aa565b6040516101c6919061275c565b60405180910390f35b6101d76104b6565b6040516101e4919061275c565b60405180910390f35b610207600480360381019061020291906121fe565b6104bc565b604051610217949392919061259a565b60405180910390f35b61022861051c565b604051610235919061275c565b60405180910390f35b610258600480360381019061025391906122c8565b610522565b005b6102626106a9565b60405161026f919061251f565b60405180910390f35b6102806106c1565b60405161028d91906125df565b60405180910390f35b6102b060048036038101906102ab9190612250565b6106e7565b6040516102bd919061275c565b60405180910390f35b6102e060048036038101906102db919061228c565b610941565b005b6102fc60048036038101906102f791906121fe565b610b50565b005b610318600480360381019061031391906122c8565b610c29565b005b610334600480360381019061032f91906121fe565b610e77565b005b610350600480360381019061034b91906121fe565b61104c565b005b61035a6111ad565b005b6103646111e0565b005b61036e611268565b60405161037b919061275c565b60405180910390f35b61039e600480360381019061039991906121ac565b61128c565b005b6103a8611360565b6040516103b5919061251f565b60405180910390f35b6103d860048036038101906103d391906122c8565b611389565b6040516103e5919061275c565b60405180910390f35b61040860048036038101906104039190612250565b611422565b604051610416929190612777565b60405180910390f35b610427611453565b604051610434919061251f565b60405180910390f35b610445611479565b005b610461600480360381019061045c91906122c8565b611673565b005b61047d600480360381019061047891906121ac565b61187c565b005b610487611974565b604051610494919061275c565b60405180910390f35b6000600480549050905090565b670de0b6b3a764000081565b60035481565b600481815481106104cc57600080fd5b90600052602060002090600402016000915090508060000160009054906101000a900473ffffffffffffffffffffffffffffffffffffffff16908060010154908060020154908060030154905084565b60065481565b61052a61197a565b73ffffffffffffffffffffffffffffffffffffffff16610548611360565b73ffffffffffffffffffffffffffffffffffffffff161461059e576040517f08c379a00000000000000000000000000000000000000000000000000000000081526004016105959061269c565b60405180910390fd5b610fa08111156105e3576040517f08c379a00000000000000000000000000000000000000000000000000000000081526004016105da906126fc565b60405180910390fd5b6105eb6111ad565b8060048381548110610626577f4e487b7100000000000000000000000000000000000000000000000000000000600052603260045260246000fd5b90600052602060002090600402016001015460065461064591906128b3565b61064f91906127d2565b6006819055508060048381548110610690577f4e487b7100000000000000000000000000000000000000000000000000000000600052603260045260246000fd5b9060005260206000209060040201600101819055505050565b73c748e6de30222f4e9bc01812860ff005a82543e681565b600160009054906101000a900473ffffffffffffffffffffffffffffffffffffffff1681565b60008060048481548110610724577f4e487b7100000000000000000000000000000000000000000000000000000000600052603260045260246000fd5b9060005260206000209060040201905060006005600086815260200190815260200160002060008573ffffffffffffffffffffffffffffffffffffffff1673ffffffffffffffffffffffffffffffffffffffff168152602001908152602001600020905060008260030154905060008360000160009054906101000a900473ffffffffffffffffffffffffffffffffffffffff1673ffffffffffffffffffffffffffffffffffffffff166370a08231306040518263ffffffff1660e01b81526004016107f0919061251f565b60206040518083038186803b15801561080857600080fd5b505afa15801561081c573d6000803e3d6000fd5b505050506040513d601f19601f820116820180604052508101906108409190612227565b9050836002015442118015610856575060008114155b156108f157600061086b856002015442611389565b905060006108ae6006546108a088600101546108926003548761198290919063ffffffff16565b61198290919063ffffffff16565b61199890919063ffffffff16565b90506108ec6108dd846108cf64e8d4a510008561198290919063ffffffff16565b61199890919063ffffffff16565b856119ae90919063ffffffff16565b935050505b610935836001015461092764e8d4a5100061091986886000015461198290919063ffffffff16565b61199890919063ffffffff16565b6119c490919063ffffffff16565b94505050505092915050565b61094961197a565b73ffffffffffffffffffffffffffffffffffffffff16610967611360565b73ffffffffffffffffffffffffffffffffffffffff16146109bd576040517f08c379a00000000000000000000000000000000000000000000000000000000081526004016109b49061269c565b60405180910390fd5b610fa0821115610a02576040517f08c379a00000000000000000000000000000000000000000000000000000000081526004016109f9906126fc565b60405180910390fd5b610a0b816119da565b610a136111ad565b60007f00000000000000000000000000000000000000000000000000000000000000004211610a62577f0000000000000000000000000000000000000000000000000000000000000000610a64565b425b9050610a7b836006546119ae90919063ffffffff16565b600681905550600460405180608001604052808473ffffffffffffffffffffffffffffffffffffffff1681526020018581526020018381526020016000815250908060018154018082558091505060019003906000526020600020906004020160009091909190915060008201518160000160006101000a81548173ffffffffffffffffffffffffffffffffffffffff021916908373ffffffffffffffffffffffffffffffffffffffff1602179055506020820151816001015560408201518160020155606082015181600301555050505050565b610b5861197a565b73ffffffffffffffffffffffffffffffffffffffff16610b76611360565b73ffffffffffffffffffffffffffffffffffffffff1614610bcc576040517f08c379a0000000000000000000000000000000000000000000000000000000008152600401610bc39061269c565b60405180910390fd5b670de0b6b3a7640000811115610c17576040517f08c379a0000000000000000000000000000000000000000000000000000000008152600401610c0e9061273c565b60405180910390fd5b610c1f6111ad565b8060038190555050565b600060048381548110610c65577f4e487b7100000000000000000000000000000000000000000000000000000000600052603260045260246000fd5b9060005260206000209060040201905060006005600085815260200190815260200160002060003373ffffffffffffffffffffffffffffffffffffffff1673ffffffffffffffffffffffffffffffffffffffff16815260200190815260200160002090508281600001541015610d10576040517f08c379a0000000000000000000000000000000000000000000000000000000008152600401610d07906126dc565b60405180910390fd5b610d1984610e77565b6000610d638260010154610d5564e8d4a51000610d478760030154876000015461198290919063ffffffff16565b61199890919063ffffffff16565b6119c490919063ffffffff16565b9050610d7c8483600001546119c490919063ffffffff16565b8260000181905550610db664e8d4a51000610da88560030154856000015461198290919063ffffffff16565b61199890919063ffffffff16565b82600101819055506000811115610dd257610dd13382611ae1565b5b610e2133858560000160009054906101000a900473ffffffffffffffffffffffffffffffffffffffff1673ffffffffffffffffffffffffffffffffffffffff16611d039092919063ffffffff16565b843373ffffffffffffffffffffffffffffffffffffffff167ff279e6a1f5e320cca91135676d9cb6e44ca8a08c0b88342bcdb1144f6511b56886604051610e68919061275c565b60405180910390a35050505050565b600060048281548110610eb3577f4e487b7100000000000000000000000000000000000000000000000000000000600052603260045260246000fd5b9060005260206000209060040201905080600201544211610ed45750611049565b60008160000160009054906101000a900473ffffffffffffffffffffffffffffffffffffffff1673ffffffffffffffffffffffffffffffffffffffff166370a08231306040518263ffffffff1660e01b8152600401610f33919061251f565b60206040518083038186803b158015610f4b57600080fd5b505afa158015610f5f573d6000803e3d6000fd5b505050506040513d601f19601f82011682018060405250810190610f839190612227565b90506000811415610f9e574282600201819055505050611049565b6000610fae836002015442611389565b90506000610ff1600654610fe38660010154610fd56003548761198290919063ffffffff16565b61198290919063ffffffff16565b61199890919063ffffffff16565b90506110336110208461101264e8d4a510008561198290919063ffffffff16565b61199890919063ffffffff16565b85600301546119ae90919063ffffffff16565b8460030181905550428460020181905550505050505b50565b600060048281548110611088577f4e487b7100000000000000000000000000000000000000000000000000000000600052603260045260246000fd5b9060005260206000209060040201905060006005600084815260200190815260200160002060003373ffffffffffffffffffffffffffffffffffffffff1673ffffffffffffffffffffffffffffffffffffffff1681526020019081526020016000209050600081600001549050600082600001819055506000826001018190555061115833828560000160009054906101000a900473ffffffffffffffffffffffffffffffffffffffff1673ffffffffffffffffffffffffffffffffffffffff16611d039092919063ffffffff16565b833373ffffffffffffffffffffffffffffffffffffffff167fbb757047c2b5f3974fe26b7c10f732e7bce710b0952a71082702781e62ae05958360405161119f919061275c565b60405180910390a350505050565b6000600480549050905060005b818110156111dc576111cb81610e77565b806111d5906129bc565b90506111ba565b5050565b6111e861197a565b73ffffffffffffffffffffffffffffffffffffffff16611206611360565b73ffffffffffffffffffffffffffffffffffffffff161461125c576040517f08c379a00000000000000000000000000000000000000000000000000000000081526004016112539061269c565b60405180910390fd5b6112666000611d89565b565b7f000000000000000000000000000000000000000000000000000000000000000081565b600260009054906101000a900473ffffffffffffffffffffffffffffffffffffffff1673ffffffffffffffffffffffffffffffffffffffff163373ffffffffffffffffffffffffffffffffffffffff161461131c576040517f08c379a00000000000000000000000000000000000000000000000000000000081526004016113139061267c565b60405180910390fd5b80600260006101000a81548173ffffffffffffffffffffffffffffffffffffffff021916908373ffffffffffffffffffffffffffffffffffffffff16021790555050565b60008060009054906101000a900473ffffffffffffffffffffffffffffffffffffffff16905090565b60007f000000000000000000000000000000000000000000000000000000000000000083116113d8577f00000000000000000000000000000000000000000000000000000000000000006113da565b825b92507f000000000000000000000000000000000000000000000000000000000000000082101561140d576000905061141c565b828261141991906128b3565b90505b92915050565b6005602052816000526040600020602052806000526040600020600091509150508060000154908060010154905082565b600260009054906101000a900473ffffffffffffffffffffffffffffffffffffffff1681565b61148161197a565b73ffffffffffffffffffffffffffffffffffffffff1661149f611360565b73ffffffffffffffffffffffffffffffffffffffff16146114f5576040517f08c379a00000000000000000000000000000000000000000000000000000000081526004016114ec9061269c565b60405180910390fd5b6000600160009054906101000a900473ffffffffffffffffffffffffffffffffffffffff1673ffffffffffffffffffffffffffffffffffffffff166370a08231306040518263ffffffff1660e01b8152600401611552919061251f565b60206040518083038186803b15801561156a57600080fd5b505afa15801561157e573d6000803e3d6000fd5b505050506040513d601f19601f820116820180604052508101906115a29190612227565b90506000600381905550600160009054906101000a900473ffffffffffffffffffffffffffffffffffffffff1673ffffffffffffffffffffffffffffffffffffffff1663a9059cbb73c748e6de30222f4e9bc01812860ff005a82543e6836040518363ffffffff1660e01b815260040161161d929190612571565b602060405180830381600087803b15801561163757600080fd5b505af115801561164b573d6000803e3d6000fd5b505050506040513d601f19601f8201168201806040525081019061166f91906121d5565b5050565b6000600483815481106116af577f4e487b7100000000000000000000000000000000000000000000000000000000600052603260045260246000fd5b9060005260206000209060040201905060006005600085815260200190815260200160002060003373ffffffffffffffffffffffffffffffffffffffff1673ffffffffffffffffffffffffffffffffffffffff168152602001908152602001600020905061171c84610e77565b6000611766826001015461175864e8d4a5100061174a8760030154876000015461198290919063ffffffff16565b61199890919063ffffffff16565b6119c490919063ffffffff16565b905061177f8483600001546119ae90919063ffffffff16565b82600001819055506117b964e8d4a510006117ab8560030154856000015461198290919063ffffffff16565b61199890919063ffffffff16565b826001018190555060008111156117d5576117d43382611ae1565b5b6118263330868660000160009054906101000a900473ffffffffffffffffffffffffffffffffffffffff1673ffffffffffffffffffffffffffffffffffffffff16611e4d909392919063ffffffff16565b843373ffffffffffffffffffffffffffffffffffffffff167f90890809c654f11d6e72a28fa60149770a0d11ec6c92319d6ceb2bb0a4ea1a158660405161186d919061275c565b60405180910390a35050505050565b61188461197a565b73ffffffffffffffffffffffffffffffffffffffff166118a2611360565b73ffffffffffffffffffffffffffffffffffffffff16146118f8576040517f08c379a00000000000000000000000000000000000000000000000000000000081526004016118ef9061269c565b60405180910390fd5b600073ffffffffffffffffffffffffffffffffffffffff168173ffffffffffffffffffffffffffffffffffffffff161415611968576040517f08c379a000000000000000000000000000000000000000000000000000000000815260040161195f9061261c565b60405180910390fd5b61197181611d89565b50565b610fa081565b600033905090565b600081836119909190612859565b905092915050565b600081836119a69190612828565b905092915050565b600081836119bc91906127d2565b905092915050565b600081836119d291906128b3565b905092915050565b6000600480549050905060005b81811015611adc578273ffffffffffffffffffffffffffffffffffffffff1660048281548110611a40577f4e487b7100000000000000000000000000000000000000000000000000000000600052603260045260246000fd5b906000526020600020906004020160000160009054906101000a900473ffffffffffffffffffffffffffffffffffffffff1673ffffffffffffffffffffffffffffffffffffffff161415611ac9576040517f08c379a0000000000000000000000000000000000000000000000000000000008152600401611ac09061265c565b60405180910390fd5b8080611ad4906129bc565b9150506119e7565b505050565b6000600160009054906101000a900473ffffffffffffffffffffffffffffffffffffffff1673ffffffffffffffffffffffffffffffffffffffff166370a08231306040518263ffffffff1660e01b8152600401611b3e919061251f565b60206040518083038186803b158015611b5657600080fd5b505afa158015611b6a573d6000803e3d6000fd5b505050506040513d601f19601f82011682018060405250810190611b8e9190612227565b905080821115611c4d57600160009054906101000a900473ffffffffffffffffffffffffffffffffffffffff1673ffffffffffffffffffffffffffffffffffffffff1663a9059cbb84836040518363ffffffff1660e01b8152600401611bf5929190612571565b602060405180830381600087803b158015611c0f57600080fd5b505af1158015611c23573d6000803e3d6000fd5b505050506040513d601f19601f82011682018060405250810190611c4791906121d5565b50611cfe565b600160009054906101000a900473ffffffffffffffffffffffffffffffffffffffff1673ffffffffffffffffffffffffffffffffffffffff1663a9059cbb84846040518363ffffffff1660e01b8152600401611caa929190612571565b602060405180830381600087803b158015611cc457600080fd5b505af1158015611cd8573d6000803e3d6000fd5b505050506040513d601f19601f82011682018060405250810190611cfc91906121d5565b505b505050565b611d848363a9059cbb60e01b8484604051602401611d22929190612571565b604051602081830303815290604052907bffffffffffffffffffffffffffffffffffffffffffffffffffffffff19166020820180517bffffffffffffffffffffffffffffffffffffffffffffffffffffffff8381831617835250505050611ed6565b505050565b60008060009054906101000a900473ffffffffffffffffffffffffffffffffffffffff169050816000806101000a81548173ffffffffffffffffffffffffffffffffffffffff021916908373ffffffffffffffffffffffffffffffffffffffff1602179055508173ffffffffffffffffffffffffffffffffffffffff168173ffffffffffffffffffffffffffffffffffffffff167f8be0079c531659141344cd1fd0a4f28419497f9722a3daafe3b4186f6b6457e060405160405180910390a35050565b611ed0846323b872dd60e01b858585604051602401611e6e9392919061253a565b604051602081830303815290604052907bffffffffffffffffffffffffffffffffffffffffffffffffffffffff19166020820180517bffffffffffffffffffffffffffffffffffffffffffffffffffffffff8381831617835250505050611ed6565b50505050565b6000611f38826040518060400160405280602081526020017f5361666545524332303a206c6f772d6c6576656c2063616c6c206661696c65648152508573ffffffffffffffffffffffffffffffffffffffff16611f9d9092919063ffffffff16565b9050600081511115611f985780806020019051810190611f5891906121d5565b611f97576040517f08c379a0000000000000000000000000000000000000000000000000000000008152600401611f8e9061271c565b60405180910390fd5b5b505050565b6060611fac8484600085611fb5565b90509392505050565b606082471015611ffa576040517f08c379a0000000000000000000000000000000000000000000000000000000008152600401611ff19061263c565b60405180910390fd5b612003856120c9565b612042576040517f08c379a0000000000000000000000000000000000000000000000000000000008152600401612039906126bc565b60405180910390fd5b6000808673ffffffffffffffffffffffffffffffffffffffff16858760405161206b9190612508565b60006040518083038185875af1925050503d80600081146120a8576040519150601f19603f3d011682016040523d82523d6000602084013e6120ad565b606091505b50915091506120bd8282866120dc565b92505050949350505050565b600080823b905060008111915050919050565b606083156120ec5782905061213c565b6000835111156120ff5782518084602001fd5b816040517f08c379a000000000000000000000000000000000000000000000000000000000815260040161213391906125fa565b60405180910390fd5b9392505050565b60008135905061215281612ca6565b92915050565b60008151905061216781612cbd565b92915050565b60008135905061217c81612cd4565b92915050565b60008135905061219181612ceb565b92915050565b6000815190506121a681612ceb565b92915050565b6000602082840312156121be57600080fd5b60006121cc84828501612143565b91505092915050565b6000602082840312156121e757600080fd5b60006121f584828501612158565b91505092915050565b60006020828403121561221057600080fd5b600061221e84828501612182565b91505092915050565b60006020828403121561223957600080fd5b600061224784828501612197565b91505092915050565b6000806040838503121561226357600080fd5b600061227185828601612182565b925050602061228285828601612143565b9150509250929050565b6000806040838503121561229f57600080fd5b60006122ad85828601612182565b92505060206122be8582860161216d565b9150509250929050565b600080604083850312156122db57600080fd5b60006122e985828601612182565b92505060206122fa85828601612182565b9150509250929050565b61230d816128e7565b82525050565b600061231e826127a0565b61232881856127b6565b9350612338818560208601612989565b80840191505092915050565b61234d81612941565b82525050565b61235c81612965565b82525050565b600061236d826127ab565b61237781856127c1565b9350612387818560208601612989565b61239081612a63565b840191505092915050565b60006123a86026836127c1565b91506123b382612a74565b604082019050919050565b60006123cb6026836127c1565b91506123d682612ac3565b604082019050919050565b60006123ee601c836127c1565b91506123f982612b12565b602082019050919050565b60006124116009836127c1565b915061241c82612b3b565b602082019050919050565b60006124346020836127c1565b915061243f82612b64565b602082019050919050565b6000612457601d836127c1565b915061246282612b8d565b602082019050919050565b600061247a6012836127c1565b915061248582612bb6565b602082019050919050565b600061249d601c836127c1565b91506124a882612bdf565b602082019050919050565b60006124c0602a836127c1565b91506124cb82612c08565b604082019050919050565b60006124e36027836127c1565b91506124ee82612c57565b604082019050919050565b61250281612937565b82525050565b60006125148284612313565b915081905092915050565b60006020820190506125346000830184612304565b92915050565b600060608201905061254f6000830186612304565b61255c6020830185612304565b61256960408301846124f9565b949350505050565b60006040820190506125866000830185612304565b61259360208301846124f9565b9392505050565b60006080820190506125af6000830187612344565b6125bc60208301866124f9565b6125c960408301856124f9565b6125d660608301846124f9565b95945050505050565b60006020820190506125f46000830184612353565b92915050565b600060208201905081810360008301526126148184612362565b905092915050565b600060208201905081810360008301526126358161239b565b9050919050565b60006020820190508181036000830152612655816123be565b9050919050565b60006020820190508181036000830152612675816123e1565b9050919050565b6000602082019050818103600083015261269581612404565b9050919050565b600060208201905081810360008301526126b581612427565b9050919050565b600060208201905081810360008301526126d58161244a565b9050919050565b600060208201905081810360008301526126f58161246d565b9050919050565b6000602082019050818103600083015261271581612490565b9050919050565b60006020820190508181036000830152612735816124b3565b9050919050565b60006020820190508181036000830152612755816124d6565b9050919050565b600060208201905061277160008301846124f9565b92915050565b600060408201905061278c60008301856124f9565b61279960208301846124f9565b9392505050565b600081519050919050565b600081519050919050565b600081905092915050565b600082825260208201905092915050565b60006127dd82612937565b91506127e883612937565b9250827fffffffffffffffffffffffffffffffffffffffffffffffffffffffffffffffff0382111561281d5761281c612a05565b5b828201905092915050565b600061283382612937565b915061283e83612937565b92508261284e5761284d612a34565b5b828204905092915050565b600061286482612937565b915061286f83612937565b9250817fffffffffffffffffffffffffffffffffffffffffffffffffffffffffffffffff04831182151516156128a8576128a7612a05565b5b828202905092915050565b60006128be82612937565b91506128c983612937565b9250828210156128dc576128db612a05565b5b828203905092915050565b60006128f282612917565b9050919050565b60008115159050919050565b6000612910826128e7565b9050919050565b600073ffffffffffffffffffffffffffffffffffffffff82169050919050565b6000819050919050565b600061294c82612953565b9050919050565b600061295e82612917565b9050919050565b600061297082612977565b9050919050565b600061298282612917565b9050919050565b60005b838110156129a757808201518184015260208101905061298c565b838111156129b6576000848401525b50505050565b60006129c782612937565b91507fffffffffffffffffffffffffffffffffffffffffffffffffffffffffffffffff8214156129fa576129f9612a05565b5b600182019050919050565b7f4e487b7100000000000000000000000000000000000000000000000000000000600052601160045260246000fd5b7f4e487b7100000000000000000000000000000000000000000000000000000000600052601260045260246000fd5b6000601f19601f8301169050919050565b7f4f776e61626c653a206e6577206f776e657220697320746865207a65726f206160008201527f6464726573730000000000000000000000000000000000000000000000000000602082015250565b7f416464726573733a20696e73756666696369656e742062616c616e636520666f60008201527f722063616c6c0000000000000000000000000000000000000000000000000000602082015250565b7f6164643a20706f6f6c20616c7265616479206578697374732121212100000000600082015250565b7f6465763a207775743f0000000000000000000000000000000000000000000000600082015250565b7f4f776e61626c653a2063616c6c6572206973206e6f7420746865206f776e6572600082015250565b7f416464726573733a2063616c6c20746f206e6f6e2d636f6e7472616374000000600082015250565b7f77697468647261773a206e6f7420676f6f640000000000000000000000000000600082015250565b7f6164643a20746f6f206d616e7920616c6c6f6320706f696e7473212100000000600082015250565b7f5361666545524332303a204552433230206f7065726174696f6e20646964206e60008201527f6f74207375636365656400000000000000000000000000000000000000000000602082015250565b7f736574524b697474656e5065725365636f6e643a20746f6f206d616e7920724b60008201527f495454454e732100000000000000000000000000000000000000000000000000602082015250565b612caf816128e7565b8114612cba57600080fd5b50565b612cc6816128f9565b8114612cd157600080fd5b50565b612cdd81612905565b8114612ce857600080fd5b50565b612cf481612937565b8114612cff57600080fd5b5056fea264697066735822122072dbec329cded11f9d4ccba3175eee81c258519ee83b9cbb4c0f60e490aeb2b664736f6c63430008040033",
  "linkReferences": {},
  "deployedLinkReferences": {}
}