{
  "_format": "hh-sol-artifact-1",
  "contractName": "MasterKitten",
  "sourceName": "contracts/MasterKitten.sol",
  "abi": [
    {
      "inputs": [
        {
          "internalType": "contract RKITTEN",
          "name": "_rKITTEN",
          "type": "address"
        },
        {
          "internalType": "address",
          "name": "_devaddr",
          "type": "address"
        },
        {
          "internalType": "uint256",
          "name": "_rKITTENPerSecond",
          "type": "uint256"
        }
      ],
      "stateMutability": "nonpayable",
      "type": "constructor"
    },
    {
      "anonymous": false,
      "inputs": [
        {
          "indexed": true,
          "internalType": "address",
          "name": "user",
          "type": "address"
        },
        {
          "indexed": true,
          "internalType": "uint256",
          "name": "pid",
          "type": "uint256"
        },
        {
          "indexed": false,
          "internalType": "uint256",
          "name": "amount",
          "type": "uint256"
        }
      ],
      "name": "Deposit",
      "type": "event"
    },
    {
      "anonymous": false,
      "inputs": [
        {
          "indexed": true,
          "internalType": "address",
          "name": "user",
          "type": "address"
        },
        {
          "indexed": true,
          "internalType": "uint256",
          "name": "pid",
          "type": "uint256"
        },
        {
          "indexed": false,
          "internalType": "uint256",
          "name": "amount",
          "type": "uint256"
        }
      ],
      "name": "EmergencyWithdraw",
      "type": "event"
    },
    {
      "anonymous": false,
      "inputs": [
        {
          "indexed": true,
          "internalType": "address",
          "name": "previousOwner",
          "type": "address"
        },
        {
          "indexed": true,
          "internalType": "address",
          "name": "newOwner",
          "type": "address"
        }
      ],
      "name": "OwnershipTransferred",
      "type": "event"
    },
    {
      "anonymous": false,
      "inputs": [
        {
          "indexed": true,
          "internalType": "address",
          "name": "user",
          "type": "address"
        },
        {
          "indexed": true,
          "internalType": "uint256",
          "name": "pid",
          "type": "uint256"
        },
        {
          "indexed": false,
          "internalType": "uint256",
          "name": "amount",
          "type": "uint256"
        }
      ],
      "name": "Withdraw",
      "type": "event"
    },
    {
      "inputs": [],
      "name": "MaxAllocPoint",
      "outputs": [
        {
          "internalType": "uint256",
          "name": "",
          "type": "uint256"
        }
      ],
      "stateMutability": "view",
      "type": "function"
    },
    {
      "inputs": [
        {
          "internalType": "uint256",
          "name": "_allocPoint",
          "type": "uint256"
        },
        {
          "internalType": "contract IERC20",
          "name": "_lpToken",
          "type": "address"
        }
      ],
      "name": "add",
      "outputs": [],
      "stateMutability": "nonpayable",
      "type": "function"
    },
    {
      "inputs": [
        {
          "internalType": "uint256",
          "name": "_pid",
          "type": "uint256"
        },
        {
          "internalType": "uint256",
          "name": "_amount",
          "type": "uint256"
        }
      ],
      "name": "deposit",
      "outputs": [],
      "stateMutability": "nonpayable",
      "type": "function"
    },
    {
      "inputs": [
        {
          "internalType": "address",
          "name": "_devaddr",
          "type": "address"
        }
      ],
      "name": "dev",
      "outputs": [],
      "stateMutability": "nonpayable",
      "type": "function"
    },
    {
      "inputs": [],
      "name": "devaddr",
      "outputs": [
        {
          "internalType": "address",
          "name": "",
          "type": "address"
        }
      ],
      "stateMutability": "view",
      "type": "function"
    },
    {
      "inputs": [
        {
          "internalType": "uint256",
          "name": "_pid",
          "type": "uint256"
        }
      ],
      "name": "emergencyWithdraw",
      "outputs": [],
      "stateMutability": "nonpayable",
      "type": "function"
    },
    {
      "inputs": [
        {
          "internalType": "uint256",
          "name": "_from",
          "type": "uint256"
        },
        {
          "internalType": "uint256",
          "name": "_to",
          "type": "uint256"
        }
      ],
      "name": "getMultiplier",
      "outputs": [
        {
          "internalType": "uint256",
          "name": "",
          "type": "uint256"
        }
      ],
      "stateMutability": "view",
      "type": "function"
    },
    {
      "inputs": [],
      "name": "massUpdatePools",
      "outputs": [],
      "stateMutability": "nonpayable",
      "type": "function"
    },
    {
      "inputs": [],
      "name": "maxRKittenPerSecond",
      "outputs": [
        {
          "internalType": "uint256",
          "name": "",
          "type": "uint256"
        }
      ],
      "stateMutability": "view",
      "type": "function"
    },
    {
      "inputs": [],
      "name": "owner",
      "outputs": [
        {
          "internalType": "address",
          "name": "",
          "type": "address"
        }
      ],
      "stateMutability": "view",
      "type": "function"
    },
    {
      "inputs": [
        {
          "internalType": "uint256",
          "name": "_pid",
          "type": "uint256"
        },
        {
          "internalType": "address",
          "name": "_user",
          "type": "address"
        }
      ],
      "name": "pendingRKITTEN",
      "outputs": [
        {
          "internalType": "uint256",
          "name": "",
          "type": "uint256"
        }
      ],
      "stateMutability": "view",
      "type": "function"
    },
    {
      "inputs": [
        {
          "internalType": "uint256",
          "name": "",
          "type": "uint256"
        }
      ],
      "name": "poolInfo",
      "outputs": [
        {
          "internalType": "contract IERC20",
          "name": "lpToken",
          "type": "address"
        },
        {
          "internalType": "uint256",
          "name": "allocPoint",
          "type": "uint256"
        },
        {
          "internalType": "uint256",
          "name": "lastRewardTime",
          "type": "uint256"
        },
        {
          "internalType": "uint256",
          "name": "accRKITTENPerShare",
          "type": "uint256"
        }
      ],
      "stateMutability": "view",
      "type": "function"
    },
    {
      "inputs": [],
      "name": "poolLength",
      "outputs": [
        {
          "internalType": "uint256",
          "name": "",
          "type": "uint256"
        }
      ],
      "stateMutability": "view",
      "type": "function"
    },
    {
      "inputs": [],
      "name": "rKITTEN",
      "outputs": [
        {
          "internalType": "contract RKITTEN",
          "name": "",
          "type": "address"
        }
      ],
      "stateMutability": "view",
      "type": "function"
    },
    {
      "inputs": [],
      "name": "rKITTENPerSecond",
      "outputs": [
        {
          "internalType": "uint256",
          "name": "",
          "type": "uint256"
        }
      ],
      "stateMutability": "view",
      "type": "function"
    },
    {
      "inputs": [],
      "name": "renounceOwnership",
      "outputs": [],
      "stateMutability": "nonpayable",
      "type": "function"
    },
    {
      "inputs": [
        {
          "internalType": "uint256",
          "name": "_pid",
          "type": "uint256"
        },
        {
          "internalType": "uint256",
          "name": "_allocPoint",
          "type": "uint256"
        }
      ],
      "name": "set",
      "outputs": [],
      "stateMutability": "nonpayable",
      "type": "function"
    },
    {
      "inputs": [
        {
          "internalType": "uint256",
          "name": "_rKITTENPerSecond",
          "type": "uint256"
        }
      ],
      "name": "setRKittenPerSecond",
      "outputs": [],
      "stateMutability": "nonpayable",
      "type": "function"
    },
    {
      "inputs": [],
      "name": "startTime",
      "outputs": [
        {
          "internalType": "uint256",
          "name": "",
          "type": "uint256"
        }
      ],
      "stateMutability": "view",
      "type": "function"
    },
    {
      "inputs": [],
      "name": "totalAllocPoint",
      "outputs": [
        {
          "internalType": "uint256",
          "name": "",
          "type": "uint256"
        }
      ],
      "stateMutability": "view",
      "type": "function"
    },
    {
      "inputs": [
        {
          "internalType": "address",
          "name": "newOwner",
          "type": "address"
        }
      ],
      "name": "transferOwnership",
      "outputs": [],
      "stateMutability": "nonpayable",
      "type": "function"
    },
    {
      "inputs": [
        {
          "internalType": "uint256",
          "name": "_pid",
          "type": "uint256"
        }
      ],
      "name": "updatePool",
      "outputs": [],
      "stateMutability": "nonpayable",
      "type": "function"
    },
    {
      "inputs": [
        {
          "internalType": "uint256",
          "name": "",
          "type": "uint256"
        },
        {
          "internalType": "address",
          "name": "",
          "type": "address"
        }
      ],
      "name": "userInfo",
      "outputs": [
        {
          "internalType": "uint256",
          "name": "amount",
          "type": "uint256"
        },
        {
          "internalType": "uint256",
          "name": "rewardDebt",
          "type": "uint256"
        }
      ],
      "stateMutability": "view",
      "type": "function"
    },
    {
      "inputs": [
        {
          "internalType": "uint256",
          "name": "_pid",
          "type": "uint256"
        },
        {
          "internalType": "uint256",
          "name": "_amount",
          "type": "uint256"
        }
      ],
      "name": "withdraw",
      "outputs": [],
      "stateMutability": "nonpayable",
      "type": "function"
    }
  ],
  "bytecode": "0x60a060405260006006553480156200001657600080fd5b5060405162002e0438038062002e0483398181016040528101906200003c919062000207565b6200005c62000050620000f660201b60201c565b620000fe60201b60201c565b82600160006101000a81548173ffffffffffffffffffffffffffffffffffffffff021916908373ffffffffffffffffffffffffffffffffffffffff16021790555081600260006101000a81548173ffffffffffffffffffffffffffffffffffffffff021916908373ffffffffffffffffffffffffffffffffffffffff160217905550806003819055504260808181525050505050620002fd565b600033905090565b60008060009054906101000a900473ffffffffffffffffffffffffffffffffffffffff169050816000806101000a81548173ffffffffffffffffffffffffffffffffffffffff021916908373ffffffffffffffffffffffffffffffffffffffff1602179055508173ffffffffffffffffffffffffffffffffffffffff168173ffffffffffffffffffffffffffffffffffffffff167f8be0079c531659141344cd1fd0a4f28419497f9722a3daafe3b4186f6b6457e060405160405180910390a35050565b600081519050620001d381620002af565b92915050565b600081519050620001ea81620002c9565b92915050565b6000815190506200020181620002e3565b92915050565b6000806000606084860312156200021d57600080fd5b60006200022d86828701620001d9565b93505060206200024086828701620001c2565b92505060406200025386828701620001f0565b9150509250925092565b60006200026a8262000285565b9050919050565b60006200027e826200025d565b9050919050565b600073ffffffffffffffffffffffffffffffffffffffff82169050919050565b6000819050919050565b620002ba816200025d565b8114620002c657600080fd5b50565b620002d48162000271565b8114620002e057600080fd5b50565b620002ee81620002a5565b8114620002fa57600080fd5b50565b608051612ac86200033c600039600081816109a1015281816109c8015281816111f4015281816113170152818161133e01526113680152612ac86000f3fe608060405234801561001057600080fd5b50600436106101585760003560e01c80635312ea8e116100c35780638dbb1e3a1161007c5780638dbb1e3a1461036a57806393f1a40b1461039a578063d49e77cd146103cb578063e2bbb158146103e9578063f2fde38b14610405578063f4b83c4c1461042157610158565b80635312ea8e146102e2578063630b5ba1146102fe578063715018a61461030857806378e97925146103125780638d88a90e146103305780638da5cb5b1461034c57610158565b80632191dfe0116101155780632191dfe0146102245780632a4b80a9146102425780632b8bbbe81461027257806334f3444c1461028e578063441a3e70146102aa57806351eb05a6146102c657610158565b8063081e3eda1461015d5780630a16cfd61461017b5780631462c91a146101995780631526fe27146101b757806317caf6f1146101ea5780631ab06ee514610208575b600080fd5b61016561043f565b60405161017291906124ec565b60405180910390f35b61018361044c565b60405161019091906124ec565b60405180910390f35b6101a1610458565b6040516101ae91906124ec565b60405180910390f35b6101d160048036038101906101cc9190611f8e565b61045e565b6040516101e1949392919061232a565b60405180910390f35b6101f26104be565b6040516101ff91906124ec565b60405180910390f35b610222600480360381019061021d9190612058565b6104c4565b005b61022c61064b565b604051610239919061236f565b60405180910390f35b61025c60048036038101906102579190611fe0565b610671565b60405161026991906124ec565b60405180910390f35b61028c6004803603810190610287919061201c565b6108cb565b005b6102a860048036038101906102a39190611f8e565b610ada565b005b6102c460048036038101906102bf9190612058565b610bb3565b005b6102e060048036038101906102db9190611f8e565b610e01565b005b6102fc60048036038101906102f79190611f8e565b610fd6565b005b610306611137565b005b61031061116a565b005b61031a6111f2565b60405161032791906124ec565b60405180910390f35b61034a60048036038101906103459190611f3c565b611216565b005b6103546112ea565b60405161036191906122af565b60405180910390f35b610384600480360381019061037f9190612058565b611313565b60405161039191906124ec565b60405180910390f35b6103b460048036038101906103af9190611fe0565b6113ac565b6040516103c2929190612507565b60405180910390f35b6103d36113dd565b6040516103e091906122af565b60405180910390f35b61040360048036038101906103fe9190612058565b611403565b005b61041f600480360381019061041a9190611f3c565b61160c565b005b610429611704565b60405161043691906124ec565b60405180910390f35b6000600480549050905090565b670de0b6b3a764000081565b60035481565b6004818154811061046e57600080fd5b90600052602060002090600402016000915090508060000160009054906101000a900473ffffffffffffffffffffffffffffffffffffffff16908060010154908060020154908060030154905084565b60065481565b6104cc61170a565b73ffffffffffffffffffffffffffffffffffffffff166104ea6112ea565b73ffffffffffffffffffffffffffffffffffffffff1614610540576040517f08c379a00000000000000000000000000000000000000000000000000000000081526004016105379061242c565b60405180910390fd5b610fa0811115610585576040517f08c379a000000000000000000000000000000000000000000000000000000000815260040161057c9061248c565b60405180910390fd5b61058d611137565b80600483815481106105c8577f4e487b7100000000000000000000000000000000000000000000000000000000600052603260045260246000fd5b9060005260206000209060040201600101546006546105e79190612643565b6105f19190612562565b6006819055508060048381548110610632577f4e487b7100000000000000000000000000000000000000000000000000000000600052603260045260246000fd5b9060005260206000209060040201600101819055505050565b600160009054906101000a900473ffffffffffffffffffffffffffffffffffffffff1681565b600080600484815481106106ae577f4e487b7100000000000000000000000000000000000000000000000000000000600052603260045260246000fd5b9060005260206000209060040201905060006005600086815260200190815260200160002060008573ffffffffffffffffffffffffffffffffffffffff1673ffffffffffffffffffffffffffffffffffffffff168152602001908152602001600020905060008260030154905060008360000160009054906101000a900473ffffffffffffffffffffffffffffffffffffffff1673ffffffffffffffffffffffffffffffffffffffff166370a08231306040518263ffffffff1660e01b815260040161077a91906122af565b60206040518083038186803b15801561079257600080fd5b505afa1580156107a6573d6000803e3d6000fd5b505050506040513d601f19601f820116820180604052508101906107ca9190611fb7565b90508360020154421180156107e0575060008114155b1561087b5760006107f5856002015442611313565b9050600061083860065461082a886001015461081c6003548761171290919063ffffffff16565b61171290919063ffffffff16565b61172890919063ffffffff16565b90506108766108678461085964e8d4a510008561171290919063ffffffff16565b61172890919063ffffffff16565b8561173e90919063ffffffff16565b935050505b6108bf83600101546108b164e8d4a510006108a386886000015461171290919063ffffffff16565b61172890919063ffffffff16565b61175490919063ffffffff16565b94505050505092915050565b6108d361170a565b73ffffffffffffffffffffffffffffffffffffffff166108f16112ea565b73ffffffffffffffffffffffffffffffffffffffff1614610947576040517f08c379a000000000000000000000000000000000000000000000000000000000815260040161093e9061242c565b60405180910390fd5b610fa082111561098c576040517f08c379a00000000000000000000000000000000000000000000000000000000081526004016109839061248c565b60405180910390fd5b6109958161176a565b61099d611137565b60007f000000000000000000000000000000000000000000000000000000000000000042116109ec577f00000000000000000000000000000000000000000000000000000000000000006109ee565b425b9050610a058360065461173e90919063ffffffff16565b600681905550600460405180608001604052808473ffffffffffffffffffffffffffffffffffffffff1681526020018581526020018381526020016000815250908060018154018082558091505060019003906000526020600020906004020160009091909190915060008201518160000160006101000a81548173ffffffffffffffffffffffffffffffffffffffff021916908373ffffffffffffffffffffffffffffffffffffffff1602179055506020820151816001015560408201518160020155606082015181600301555050505050565b610ae261170a565b73ffffffffffffffffffffffffffffffffffffffff16610b006112ea565b73ffffffffffffffffffffffffffffffffffffffff1614610b56576040517f08c379a0000000000000000000000000000000000000000000000000000000008152600401610b4d9061242c565b60405180910390fd5b670de0b6b3a7640000811115610ba1576040517f08c379a0000000000000000000000000000000000000000000000000000000008152600401610b98906124cc565b60405180910390fd5b610ba9611137565b8060038190555050565b600060048381548110610bef577f4e487b7100000000000000000000000000000000000000000000000000000000600052603260045260246000fd5b9060005260206000209060040201905060006005600085815260200190815260200160002060003373ffffffffffffffffffffffffffffffffffffffff1673ffffffffffffffffffffffffffffffffffffffff16815260200190815260200160002090508281600001541015610c9a576040517f08c379a0000000000000000000000000000000000000000000000000000000008152600401610c919061246c565b60405180910390fd5b610ca384610e01565b6000610ced8260010154610cdf64e8d4a51000610cd18760030154876000015461171290919063ffffffff16565b61172890919063ffffffff16565b61175490919063ffffffff16565b9050610d0684836000015461175490919063ffffffff16565b8260000181905550610d4064e8d4a51000610d328560030154856000015461171290919063ffffffff16565b61172890919063ffffffff16565b82600101819055506000811115610d5c57610d5b3382611871565b5b610dab33858560000160009054906101000a900473ffffffffffffffffffffffffffffffffffffffff1673ffffffffffffffffffffffffffffffffffffffff16611a939092919063ffffffff16565b843373ffffffffffffffffffffffffffffffffffffffff167ff279e6a1f5e320cca91135676d9cb6e44ca8a08c0b88342bcdb1144f6511b56886604051610df291906124ec565b60405180910390a35050505050565b600060048281548110610e3d577f4e487b7100000000000000000000000000000000000000000000000000000000600052603260045260246000fd5b9060005260206000209060040201905080600201544211610e5e5750610fd3565b60008160000160009054906101000a900473ffffffffffffffffffffffffffffffffffffffff1673ffffffffffffffffffffffffffffffffffffffff166370a08231306040518263ffffffff1660e01b8152600401610ebd91906122af565b60206040518083038186803b158015610ed557600080fd5b505afa158015610ee9573d6000803e3d6000fd5b505050506040513d601f19601f82011682018060405250810190610f0d9190611fb7565b90506000811415610f28574282600201819055505050610fd3565b6000610f38836002015442611313565b90506000610f7b600654610f6d8660010154610f5f6003548761171290919063ffffffff16565b61171290919063ffffffff16565b61172890919063ffffffff16565b9050610fbd610faa84610f9c64e8d4a510008561171290919063ffffffff16565b61172890919063ffffffff16565b856003015461173e90919063ffffffff16565b8460030181905550428460020181905550505050505b50565b600060048281548110611012577f4e487b7100000000000000000000000000000000000000000000000000000000600052603260045260246000fd5b9060005260206000209060040201905060006005600084815260200190815260200160002060003373ffffffffffffffffffffffffffffffffffffffff1673ffffffffffffffffffffffffffffffffffffffff168152602001908152602001600020905060008160000154905060008260000181905550600082600101819055506110e233828560000160009054906101000a900473ffffffffffffffffffffffffffffffffffffffff1673ffffffffffffffffffffffffffffffffffffffff16611a939092919063ffffffff16565b833373ffffffffffffffffffffffffffffffffffffffff167fbb757047c2b5f3974fe26b7c10f732e7bce710b0952a71082702781e62ae05958360405161112991906124ec565b60405180910390a350505050565b6000600480549050905060005b818110156111665761115581610e01565b8061115f9061274c565b9050611144565b5050565b61117261170a565b73ffffffffffffffffffffffffffffffffffffffff166111906112ea565b73ffffffffffffffffffffffffffffffffffffffff16146111e6576040517f08c379a00000000000000000000000000000000000000000000000000000000081526004016111dd9061242c565b60405180910390fd5b6111f06000611b19565b565b7f000000000000000000000000000000000000000000000000000000000000000081565b600260009054906101000a900473ffffffffffffffffffffffffffffffffffffffff1673ffffffffffffffffffffffffffffffffffffffff163373ffffffffffffffffffffffffffffffffffffffff16146112a6576040517f08c379a000000000000000000000000000000000000000000000000000000000815260040161129d9061240c565b60405180910390fd5b80600260006101000a81548173ffffffffffffffffffffffffffffffffffffffff021916908373ffffffffffffffffffffffffffffffffffffffff16021790555050565b60008060009054906101000a900473ffffffffffffffffffffffffffffffffffffffff16905090565b60007f00000000000000000000000000000000000000000000000000000000000000008311611362577f0000000000000000000000000000000000000000000000000000000000000000611364565b825b92507f000000000000000000000000000000000000000000000000000000000000000082101561139757600090506113a6565b82826113a39190612643565b90505b92915050565b6005602052816000526040600020602052806000526040600020600091509150508060000154908060010154905082565b600260009054906101000a900473ffffffffffffffffffffffffffffffffffffffff1681565b60006004838154811061143f577f4e487b7100000000000000000000000000000000000000000000000000000000600052603260045260246000fd5b9060005260206000209060040201905060006005600085815260200190815260200160002060003373ffffffffffffffffffffffffffffffffffffffff1673ffffffffffffffffffffffffffffffffffffffff16815260200190815260200160002090506114ac84610e01565b60006114f682600101546114e864e8d4a510006114da8760030154876000015461171290919063ffffffff16565b61172890919063ffffffff16565b61175490919063ffffffff16565b905061150f84836000015461173e90919063ffffffff16565b826000018190555061154964e8d4a5100061153b8560030154856000015461171290919063ffffffff16565b61172890919063ffffffff16565b82600101819055506000811115611565576115643382611871565b5b6115b63330868660000160009054906101000a900473ffffffffffffffffffffffffffffffffffffffff1673ffffffffffffffffffffffffffffffffffffffff16611bdd909392919063ffffffff16565b843373ffffffffffffffffffffffffffffffffffffffff167f90890809c654f11d6e72a28fa60149770a0d11ec6c92319d6ceb2bb0a4ea1a15866040516115fd91906124ec565b60405180910390a35050505050565b61161461170a565b73ffffffffffffffffffffffffffffffffffffffff166116326112ea565b73ffffffffffffffffffffffffffffffffffffffff1614611688576040517f08c379a000000000000000000000000000000000000000000000000000000000815260040161167f9061242c565b60405180910390fd5b600073ffffffffffffffffffffffffffffffffffffffff168173ffffffffffffffffffffffffffffffffffffffff1614156116f8576040517f08c379a00000000000000000000000000000000000000000000000000000000081526004016116ef906123ac565b60405180910390fd5b61170181611b19565b50565b610fa081565b600033905090565b6000818361172091906125e9565b905092915050565b6000818361173691906125b8565b905092915050565b6000818361174c9190612562565b905092915050565b600081836117629190612643565b905092915050565b6000600480549050905060005b8181101561186c578273ffffffffffffffffffffffffffffffffffffffff16600482815481106117d0577f4e487b7100000000000000000000000000000000000000000000000000000000600052603260045260246000fd5b906000526020600020906004020160000160009054906101000a900473ffffffffffffffffffffffffffffffffffffffff1673ffffffffffffffffffffffffffffffffffffffff161415611859576040517f08c379a0000000000000000000000000000000000000000000000000000000008152600401611850906123ec565b60405180910390fd5b80806118649061274c565b915050611777565b505050565b6000600160009054906101000a900473ffffffffffffffffffffffffffffffffffffffff1673ffffffffffffffffffffffffffffffffffffffff166370a08231306040518263ffffffff1660e01b81526004016118ce91906122af565b60206040518083038186803b1580156118e657600080fd5b505afa1580156118fa573d6000803e3d6000fd5b505050506040513d601f19601f8201168201806040525081019061191e9190611fb7565b9050808211156119dd57600160009054906101000a900473ffffffffffffffffffffffffffffffffffffffff1673ffffffffffffffffffffffffffffffffffffffff1663a9059cbb84836040518363ffffffff1660e01b8152600401611985929190612301565b602060405180830381600087803b15801561199f57600080fd5b505af11580156119b3573d6000803e3d6000fd5b505050506040513d601f19601f820116820180604052508101906119d79190611f65565b50611a8e565b600160009054906101000a900473ffffffffffffffffffffffffffffffffffffffff1673ffffffffffffffffffffffffffffffffffffffff1663a9059cbb84846040518363ffffffff1660e01b8152600401611a3a929190612301565b602060405180830381600087803b158015611a5457600080fd5b505af1158015611a68573d6000803e3d6000fd5b505050506040513d601f19601f82011682018060405250810190611a8c9190611f65565b505b505050565b611b148363a9059cbb60e01b8484604051602401611ab2929190612301565b604051602081830303815290604052907bffffffffffffffffffffffffffffffffffffffffffffffffffffffff19166020820180517bffffffffffffffffffffffffffffffffffffffffffffffffffffffff8381831617835250505050611c66565b505050565b60008060009054906101000a900473ffffffffffffffffffffffffffffffffffffffff169050816000806101000a81548173ffffffffffffffffffffffffffffffffffffffff021916908373ffffffffffffffffffffffffffffffffffffffff1602179055508173ffffffffffffffffffffffffffffffffffffffff168173ffffffffffffffffffffffffffffffffffffffff167f8be0079c531659141344cd1fd0a4f28419497f9722a3daafe3b4186f6b6457e060405160405180910390a35050565b611c60846323b872dd60e01b858585604051602401611bfe939291906122ca565b604051602081830303815290604052907bffffffffffffffffffffffffffffffffffffffffffffffffffffffff19166020820180517bffffffffffffffffffffffffffffffffffffffffffffffffffffffff8381831617835250505050611c66565b50505050565b6000611cc8826040518060400160405280602081526020017f5361666545524332303a206c6f772d6c6576656c2063616c6c206661696c65648152508573ffffffffffffffffffffffffffffffffffffffff16611d2d9092919063ffffffff16565b9050600081511115611d285780806020019051810190611ce89190611f65565b611d27576040517f08c379a0000000000000000000000000000000000000000000000000000000008152600401611d1e906124ac565b60405180910390fd5b5b505050565b6060611d3c8484600085611d45565b90509392505050565b606082471015611d8a576040517f08c379a0000000000000000000000000000000000000000000000000000000008152600401611d81906123cc565b60405180910390fd5b611d9385611e59565b611dd2576040517f08c379a0000000000000000000000000000000000000000000000000000000008152600401611dc99061244c565b60405180910390fd5b6000808673ffffffffffffffffffffffffffffffffffffffff168587604051611dfb9190612298565b60006040518083038185875af1925050503d8060008114611e38576040519150601f19603f3d011682016040523d82523d6000602084013e611e3d565b606091505b5091509150611e4d828286611e6c565b92505050949350505050565b600080823b905060008111915050919050565b60608315611e7c57829050611ecc565b600083511115611e8f5782518084602001fd5b816040517f08c379a0000000000000000000000000000000000000000000000000000000008152600401611ec3919061238a565b60405180910390fd5b9392505050565b600081359050611ee281612a36565b92915050565b600081519050611ef781612a4d565b92915050565b600081359050611f0c81612a64565b92915050565b600081359050611f2181612a7b565b92915050565b600081519050611f3681612a7b565b92915050565b600060208284031215611f4e57600080fd5b6000611f5c84828501611ed3565b91505092915050565b600060208284031215611f7757600080fd5b6000611f8584828501611ee8565b91505092915050565b600060208284031215611fa057600080fd5b6000611fae84828501611f12565b91505092915050565b600060208284031215611fc957600080fd5b6000611fd784828501611f27565b91505092915050565b60008060408385031215611ff357600080fd5b600061200185828601611f12565b925050602061201285828601611ed3565b9150509250929050565b6000806040838503121561202f57600080fd5b600061203d85828601611f12565b925050602061204e85828601611efd565b9150509250929050565b6000806040838503121561206b57600080fd5b600061207985828601611f12565b925050602061208a85828601611f12565b9150509250929050565b61209d81612677565b82525050565b60006120ae82612530565b6120b88185612546565b93506120c8818560208601612719565b80840191505092915050565b6120dd816126d1565b82525050565b6120ec816126f5565b82525050565b60006120fd8261253b565b6121078185612551565b9350612117818560208601612719565b612120816127f3565b840191505092915050565b6000612138602683612551565b915061214382612804565b604082019050919050565b600061215b602683612551565b915061216682612853565b604082019050919050565b600061217e601c83612551565b9150612189826128a2565b602082019050919050565b60006121a1600983612551565b91506121ac826128cb565b602082019050919050565b60006121c4602083612551565b91506121cf826128f4565b602082019050919050565b60006121e7601d83612551565b91506121f28261291d565b602082019050919050565b600061220a601283612551565b915061221582612946565b602082019050919050565b600061222d601c83612551565b91506122388261296f565b602082019050919050565b6000612250602a83612551565b915061225b82612998565b604082019050919050565b6000612273602783612551565b915061227e826129e7565b604082019050919050565b612292816126c7565b82525050565b60006122a482846120a3565b915081905092915050565b60006020820190506122c46000830184612094565b92915050565b60006060820190506122df6000830186612094565b6122ec6020830185612094565b6122f96040830184612289565b949350505050565b60006040820190506123166000830185612094565b6123236020830184612289565b9392505050565b600060808201905061233f60008301876120d4565b61234c6020830186612289565b6123596040830185612289565b6123666060830184612289565b95945050505050565b600060208201905061238460008301846120e3565b92915050565b600060208201905081810360008301526123a481846120f2565b905092915050565b600060208201905081810360008301526123c58161212b565b9050919050565b600060208201905081810360008301526123e58161214e565b9050919050565b6000602082019050818103600083015261240581612171565b9050919050565b6000602082019050818103600083015261242581612194565b9050919050565b60006020820190508181036000830152612445816121b7565b9050919050565b60006020820190508181036000830152612465816121da565b9050919050565b60006020820190508181036000830152612485816121fd565b9050919050565b600060208201905081810360008301526124a581612220565b9050919050565b600060208201905081810360008301526124c581612243565b9050919050565b600060208201905081810360008301526124e581612266565b9050919050565b60006020820190506125016000830184612289565b92915050565b600060408201905061251c6000830185612289565b6125296020830184612289565b9392505050565b600081519050919050565b600081519050919050565b600081905092915050565b600082825260208201905092915050565b600061256d826126c7565b9150612578836126c7565b9250827fffffffffffffffffffffffffffffffffffffffffffffffffffffffffffffffff038211156125ad576125ac612795565b5b828201905092915050565b60006125c3826126c7565b91506125ce836126c7565b9250826125de576125dd6127c4565b5b828204905092915050565b60006125f4826126c7565b91506125ff836126c7565b9250817fffffffffffffffffffffffffffffffffffffffffffffffffffffffffffffffff048311821515161561263857612637612795565b5b828202905092915050565b600061264e826126c7565b9150612659836126c7565b92508282101561266c5761266b612795565b5b828203905092915050565b6000612682826126a7565b9050919050565b60008115159050919050565b60006126a082612677565b9050919050565b600073ffffffffffffffffffffffffffffffffffffffff82169050919050565b6000819050919050565b60006126dc826126e3565b9050919050565b60006126ee826126a7565b9050919050565b600061270082612707565b9050919050565b6000612712826126a7565b9050919050565b60005b8381101561273757808201518184015260208101905061271c565b83811115612746576000848401525b50505050565b6000612757826126c7565b91507fffffffffffffffffffffffffffffffffffffffffffffffffffffffffffffffff82141561278a57612789612795565b5b600182019050919050565b7f4e487b7100000000000000000000000000000000000000000000000000000000600052601160045260246000fd5b7f4e487b7100000000000000000000000000000000000000000000000000000000600052601260045260246000fd5b6000601f19601f8301169050919050565b7f4f776e61626c653a206e6577206f776e657220697320746865207a65726f206160008201527f6464726573730000000000000000000000000000000000000000000000000000602082015250565b7f416464726573733a20696e73756666696369656e742062616c616e636520666f60008201527f722063616c6c0000000000000000000000000000000000000000000000000000602082015250565b7f6164643a20706f6f6c20616c7265616479206578697374732121212100000000600082015250565b7f6465763a207775743f0000000000000000000000000000000000000000000000600082015250565b7f4f776e61626c653a2063616c6c6572206973206e6f7420746865206f776e6572600082015250565b7f416464726573733a2063616c6c20746f206e6f6e2d636f6e7472616374000000600082015250565b7f77697468647261773a206e6f7420676f6f640000000000000000000000000000600082015250565b7f6164643a20746f6f206d616e7920616c6c6f6320706f696e7473212100000000600082015250565b7f5361666545524332303a204552433230206f7065726174696f6e20646964206e60008201527f6f74207375636365656400000000000000000000000000000000000000000000602082015250565b7f736574524b697474656e5065725365636f6e643a20746f6f206d616e7920724b60008201527f495454454e732100000000000000000000000000000000000000000000000000602082015250565b612a3f81612677565b8114612a4a57600080fd5b50565b612a5681612689565b8114612a6157600080fd5b50565b612a6d81612695565b8114612a7857600080fd5b50565b612a84816126c7565b8114612a8f57600080fd5b5056fea2646970667358221220e31e9865ec77d60e2830149e40bbb993da0bcd5755acfe6871734fdca0a5902564736f6c63430008040033",
  "linkReferences": {},
  "deployedLinkReferences": {}
}